:0200000480304A
:200000000000000000000000000000000000000000000000000000000000000000000000E0
:200020000000000000000000000000000000000000000000000000000000000000000000C0
:200040000000000000000000000000000000000000000000000000000000000000000000A0
:20006000000000000000000000000000000000000000000000000000000000000000000080
:204000000020002075CF028075CF028075CF028075CF028075CF028075CF028075CF0280F6
:2040200075CF028075CF028075CF028075CF028075CF028075CF028075CF028075CF028050
:2040400075CF028075CF028075CF028075CF028075CF028075CF028075CF028001000000F5
:204060000100000001000000C911000001000000931A000001000000D103000001000000E0
:20408000800000000000000000000000000000008430ECDF3900826D3A4C437D9AC87E557E
:2040A000C2E1C44D8E82D3D53751F33E59E0BF856A640ADCA19D4AD2FF7BEAC8AEAD5C4A23
:2040C000FA8983D33D67F8AA2F1B77043066D3A386D351DCCDBA156AF9963DE39DA9FC92E1
:2040E00009EFE6A77509E734167FC2597F8AC8140101000000000000020000000200000007
:2041000001657047406870474068704741617047416570478161704781657047C1617047FF
:2041200058222EF0A1BC03004FF001007047000068222EF099BC00006C222EF089BC0000A2
:20414000D0222EF091BC00000048704730D601800048704750ED0180A1EB00014FEAD170B8
:204160007047000008B90020704700687047000008B900207047007A7047000008B9002027
:204180007047406870470000C0F8A410C0F8A8207047000010B5014CA04710BD5D61018061
:2041A00010B5014CA04710BD316A018010B5014CA04710BD75B3008010B5014CA04710BDE9
:2041C000E176018010B5014CA04710BD018E008010B5014CA04710BDF105018010B5014CE3
:2041E000A04710BDD169008010B5014CA04710BDB9B9008010B5014CA04710BD9D9C018019
:2042000010B5014CA04710BD31A0008010B5014CA04710BD1955018010B5014CA04710BD0C
:20422000B16F008010B5014CA04710BD415A008010B5014CA04710BD9591018010B5014C7E
:20424000A04710BD8190008010B5014CA04710BD25E5008010B5014CA04710BD9D64008082
:2042600010B5014CA04710BD154B008010B5014CA04710BD19DF008010B5014CA04710BD94
:20428000BD12018010B5014CA04710BD1164008010B5014CA04710BD6D67008010B5014CE7
:2042A000A04710BD5549008010B5014CA04710BD4598008010B5014CA04710BDB9CD00803D
:2042C00010B5014CA04710BDC545008010B5014CA04710BDC1500080C06D0421042898BF62
:2042E000022108467047000008210022491E40F8042BFBD17047000009281EBF0D28012096
:204300007047002070470000082251F8043B521E40F8043BF9D1704710B50968014CA0478B
:2043200010BDC0461D4A018010B5024CD0220021A04710BD8921038010B5024C0C22002159
:20434000A04710BD8921038010B5024C0223A04710BDC0468191008010B5024C0023A047DB
:2043600010BDC04661BD008010B5024C0023A04710BDC04629BB008010B5024C0122A0475B
:2043800010BDC04675CF008010B5024C0A23A04710BDC0468191008010B5024C00F5C560CD
:2043A000A04710BD21BE008010B5024C00F5C560A04710BD21BE008010B5024C4422002110
:2043C000A04710BD8921038010B5024C58220021A04710BD8921038010B5024C68220021AF
:2043E000A04710BD8921038010B5024C6C220021A04710BD8921038010B5024C5FEA81015B
:20440000A04710BD95470080024800680028FBD17047C04664200020426F002112B1806F01
:2044200000B901210846704710B5024C80220021A04710BD8921038010B5024C8030A0473B
:2044400010BDC04621BE008010B5024C8030A04710BDC04621BE00804FF001014FF00002CC
:2044600080E806008260704710B51346014C0A22A04710BD0190008010B51346014C02224A
:20448000A04710BD01900080302824BF00207047401C5FEA500070471044002302E000F848
:2044A000013B521C8A42FAD370470000C0F1000140EA01004FEAD070C0F100007047000044
:2044C0001C310822521E50F8043B41F80439F9D1704700001C310822521E50F8043B41F8D0
:2044E0000439F9D1704700001C310822521E51F8043940F8043BF9D17047000010B50028AC
:2045000008BF10BD014C8021A04710BD9547008010B5002808BF10BD014C5821A04710BD0E
:204520009547008010B5002808BF10BD014C6C21A04710BD9547008010B5002808BF10BD33
:20454000014C6821A04710BD9547008010B5002808BF10BD014CD021A04710BD95470080A6
:2045600010B5034CA047C01D5FEAD00010BDC046A553008010B513460A46024C2821A04713
:2045800010BDC046C57C008010B5002808BF10BD014CA04710BDC046A556008010B5134666
:2045A0000A46024C1421A04710BDC0460192008010B500234DF8043D014CA04701B010BD3B
:2045C0000DE1008010B500234DF8043D014CA04701B010BD55D00080024A10800248017011
:2045E0007047C0469C550020A155002010B5034C5FF48C720021A04710BDC046892103806A
:2046000020B94BF28000CFF6FF707047806D5FEAD0007047891A0023104403E000F8011B4B
:204620005B1CDBB28B42F9D370470000016821B949F60070CFF6FF70704700214162084637
:204640007047000080EA0100C0F1000140EA01004FEAD07080F0010070470000016B09B98C
:2046600000207047C06BD0F1010038BF0020401C7047000030B5034C0546A047024C28462A
:20468000A04730BD054700805923038030B50446034D64220021A84742F21070A06530BDC0
:2046A0008921038030B5044C0546A047024C05F58C70A04730BDC046ED450080002208214B
:2046C00000E0012250F8043B002BFAD1491EF9D11046704710B5044C00F5AA70A04708B950
:2046E000002010BDFF2010BDF5A4008010B5044C00F5AA70A04708B9002010BDFF2010BD23
:20470000F5A4008010B5002808BF10BD024C5FF48C71A04710BDC0469547008010B5B2F5DF
:20472000C07F034C88BF4FF4C072A04710BDC046855F008010B582B0049C0094059C0194B0
:20474000014CA04702B010BDD5B4008010B582B0049C0094059C0194014CA04702B010BD89
:20476000596F008010B582B0049C009400240194014CA04702B010BDBD62008010B582B0C4
:20478000049C009400240194014CA04702B010BD01B9008010B500290A4608BF10BD024922
:2047A0000C680021A04710BD08CB018010B54DF8043D1346024C1622A04701B010BDC046C7
:2047C000056C008010B54DF8043D1346024C1322A04701B010BDC046056C008010B54DF85B
:2047E000043D1346024C0C22A04701B010BDC046056C008030B50446034DE8220021A847AE
:204800000020A060207030BD8921038010B51830034C0021A047D0F1010038BF002010BDC4
:204820007D5C008010B50C46236800F1AC01D31A2246014CA04710BDA55E008000F1010014
:2048400020EA420001F1010101EA420140EA0100A0F101007047000080EA0102A0EB01007D
:2048600020EA020001EA020140EA01004FEAD070704700000368591A0129BCBF6FF06B0096
:204880007047591E016003F8012C0120704700005FF00042002110EA020304D15FEA520266
:2048A000491C2029F7D30846704700000023834201D0934204D149F60070CFF6FF7070477E
:2048C000116018467047000030B407E011F8014B12F8015B5B1E6C4000F8014B002BF5D172
:2048E00030BC704710B5054CA04720B14BF28010CFF6FF7010BD002010BDC0461D4A01809E
:2049000030B5054D0C46A84710B96FF02D0030BDC0682060002030BD0959008030B5054D0F
:204920000C46A84710B96FF02D0030BDC0682060002030BD3D59008030B5054D0C46A847B1
:2049400010B96FF02D0030BDC0682060002030BD715900804DF8040D00206A46042112F8C1
:20496000013B5FEA00201843491EF8D101B0704710B583B0059C0094069C0194079C029402
:20498000014CA04703B010BD099F008010B583B0059C0094069C0194079C0294014CA0476A
:2049A00003B010BD7185008010B583B0059C0094069C019400240294014CA04703B010BD2F
:2049C000C587008010B583B0059C0094069C019400240294014CA04703B010BD019B00801D
:2049E00010B583B0059C0094069C019400240294014CA04703B010BD39A9008010B583B08B
:204A0000059C0094069C019400240294014CA04703B010BD710A018010B583B0059C009493
:204A2000069C019400240294014CA04703B010BD99FD008010B5102A03461CBF6FF04300F6
:204A400010BD024C08461946A04710BD7DEB008030B5054D0C46A84710B96FF02D0030BD38
:204A600000692060002030BD9D57008030B5054D0C46A84710B96FF02D0030BD0069206029
:204A8000002030BDD157008030B5054D0C46A84710B96FF02D0030BD00692060002030BDB1
:204AA0000558008030B5054D0C46A84710B96FF02D0030BD00692060002030BD3958008058
:204AC00030B5054D0C46A84710B96FF02D0030BD00692060002030BD6D58008030B5054DAA
:204AE0000C46A84710B96FF02D0030BD00692060002030BDA158008030B5054D0C46A8474C
:204B000010B96FF02D0030BD00692060002030BDD558008010B501290CBF034C034C114601
:204B20001A46A04710BDC0465D610180316A0180D0F8382112B16FF033007047B1F5C07FEE
:204B400002D80161002070476FF0370070470000891A1044802200F8012B0122002303E00F
:204B600000F8013B521CD2B28A42F9D370470000012250B1002908DB05E003680BB1002262
:204B800003E0001D491E0029F7DC10467047000030B4002306E010F8014B521E11F8015B8F
:204BA0006C402343002AF6D1184630BC7047000010B58368012B03D1044C0C30A04710BD01
:204BC0004BF28000CFF6FF7010BDC046D959008010B518B103680BB1836823B94AF6007033
:204BE000CFF6FF7010BD014CA04710BD9D73008030B50028054608BF30BD044C2846A04772
:204C0000024C05F58C70A04730BDC0460547008010B584B0069C0094079C0194089C029409
:204C200000240394014CA04704B010BD7107018030B5064C0546A047044C05F10C00A04769
:204C4000024C05F11800A04730BDC0465944008010B408E003780C78A34201D0012005E09A
:204C6000491C401C521E002AF4DC002010BC704710B5012986460CBF034C044C104619468C
:204C80007246A04710BDC046898801807D7F018030B50028054608BF30BD034C2846A047E3
:204CA000024C2846A04730BDF14B00805923038070B5064E0D461446B04710EA05016FEA33
:204CC0000000204051EA000070BDC046AD44008030B50446054D5FF4A0720021A8475FF050
:204CE000FF30206142F21070E06130BD8921038006494A6842B10A68824204BF48687047A1
:204D000008314A68002AF6D100207047C0EC018030B45B4208E00D6852F8044B9D431C4000
:204D20002C4341F8044B401E0028F4D130BC704770B48C1A0123002604E0D5186D1E465583
:204D40005B1CDBB2A342F8D3084400F8014C70BC7047000000F0FF014FEA016100F47F42EB
:204D600041EA02214FEA102202F47F4241EA020141EA10607047000030B5064C0546B830D9
:204D8000A047044C05F18800A047034C05F19400A04730BD85550080D14F008010B582B0D9
:204DA0008E46144604990093019100F1280172462346024CA04702B010BDC04675600080B9
:204DC00010B585B0079C0094089C0194099C02940A9C039400240494014CA04705B010BD7F
:204DE000958B008030B5064C5FF40C710120A047054610B1034C2846A047284630BDC046F3
:204E0000E5210380A546008030B581B00546054C6846A04700B103E0034C00992846A04786
:204E200001B030BD016800801D4A0180F0B504460D461746044EAC220021B0472046034C77
:204E400029463A46A047F0BD892103808941008030B5074C0546A04704E00168A94208BFEF
:204E600030BD0C3001680029F7D1002030BDC0465141008030B5074C0546A04704E0818833
:204E8000A94208BF30BD0C3001680029F7D1002030BDC04651410080F0B585B00A9C0B9D90
:204EA0000C9E0D9F00930194029503960497024C0123A04705B0F0BD5D21018070B5074E75
:204EC0000C461546B04710B96FF02D0070BD0169216040692860002070BDC04671590080F3
:204EE00030B401230AE00C680568A54201D2002306E0A54204D1091D001D521E002AF2DCB5
:204F0000184630BC7047000042685FEA42128A429CBF0020704780685FEA511250F822004D
:204F200011F01F0130FA01F010F001007047000030B587B00A9C0D9D00940B9C03950194A9
:204F40000C9C05950294049400240694014CA04707B030BD991D018030B50028044608BFF6
:204F600030BDA068044DA8476069034DA8472046024C2021A04730BD5923038095470080D0
:204F800030B585B00B9C089D0095099D01950A9D02955FF0FF3503950494024CA04705B0FF
:204FA00030BDC0465D21018010B509680E2905D1054C0649B8301022A04710BD4BF2801081
:204FC000CFF6FF7010BDC046216A00808020002030B50028054608BF30BD064C2846A0474C
:204FE000044C05F10C00A047024C05F11800A04730BDC0468555008010B4054C20800548E6
:205000000170054802700548037010BC7047C0469A5500209E5500209F550020A0550020CC
:2050200010B585B09646012201920292039201AA049200930A467346024C02A9A04705B049
:2050400010BDC04679C9008030B5074C5FF48C710120A047054608B9002030BD034C284655
:20506000A047284630BDC046E5210380ED45008030B50028044608BF30BDA068012803D19D
:20508000044D04F10C00A84700202070A060606030BDC046355E008070B5044608E0E568B5
:2050A0002046054E1021B0472046044CA0472C46002CF4D170BDC046954700805923038081
:2050C00030B5064C0546A047054C05F17C00A047044C05F18800A04730BDC0469968008094
:2050E00059440080314C008030B50028044608BF30BD054D2046A8472046044D6421A847B9
:2051000042F21070A06530BDAD9600809547008070B5054607E0A06928602046044EB04733
:205120002046044CA0472C68002CF4D170BDC046594F00805923038070B40024C6180DE0E0
:205140009C4201D2157805E09C4202D18025357001E000250570401C521C641C8C42EFD3DC
:2051600070BC704770B50022027001228260416000F10C06044D30460C46A8472146034C2C
:205180003046A04770BDC046FD5D0080E548008030B504680D1B012DBCBF6FF05F0030BD2B
:2051A00025789D421CBF6FF0610030BD641C0460014CA04730BDC046C5B0008010B586465A
:2051C00014464DF8043D084672462346054C0121A04710F10E0F04BF4BF20030CFF6FF70A4
:2051E00001B010BD15E3008030B51C4603688B4202D3591AA14202D26FF06B0030BD1B1B4E
:205200000360034D114622461846A847204630BDCD21038030B504460C30074D40220021C9
:20522000A8470025256065602046044CA04708B9284630BDFF2030BD89210380E16C02804F
:2052400070B587B00B9E0C9C00960E9E0D9D01960F9E04940296109E0024039605950694A2
:20526000014CA04707B070BD1118018010B4094B1C69844205D118680860586810600020FB
:2052800005E053F8144F002CF2D16FF02D0010BC7047C046F8E7018010B4094B1C698442B4
:2052A00005D11868086058681060002005E053F8144F002CF2D16FF02D0010BC7047C04649
:2052C000F8ED018010B4094B1C69844205D11868086058681060002005E053F8144F002C38
:2052E000F2D16FF02D0010BC7047C046ACE8018070B505460024C5F8D84005F1DC0021461F
:20530000044E5FF4C872B047284640F8084B024CA04770BD8921038029430080F0B5044654
:205320000D46164609E06068B04205D1A068054F29463246B84710B1A469002CF3D12046DF
:20534000F0BDC04605220380F0B504460D46164609E06068B04205D1A068054F2946324696
:20536000B84710B1A469002CF3D12046F0BDC0460522038070B45FEA5106B1F5807F039CA5
:20538000049D18BFB1F5007F02D06FF01F0006E01E602E60106000EBD6002060002070BC31
:2053A0007047000030B544680CB9002030BD03E0816851F8241009B9641EF9D18068044D43
:2053C00050F82400A847D0F1200000EB441030BD9148008070B581B006461546074C022397
:2053E0006A46A04740B93168054C009A2846A0473168009A1144316001B070BD91510080EB
:20540000216A008070B581B0084E059C356800942B44074DA84700284FF0070004D1306876
:20542000216808443060002001B070BD1C2500205531018070B581B0084E059C3568009423
:205440002B44074DA84700284FF0070004D13068216808443060002001B070BD1C250020FB
:205460005531018030B582B0059C069D41B1012904D049F60070CFF6FF7006E0012100E00F
:20548000002100940195024CA04702B030BDC04699F4008070B505461646121D084C042364
:2054A000A047002818BF70BD716811B96FF05F0070BD2968B160296872681144296070BD33
:2054C0009151008030B50546094C0121A047002818BF30BD05F10C00054C0121A04700286C
:2054E00018BF30BD05F11800014C0021A04730BD4D66008070B583B004460E460146084DD3
:205500000C226846A84720463146054C0C22A0473046034C0C226946A04703B070BDC0460E
:20552000CD210380F0B581B0044616461D46074FB84700B108E0009504F17C0104F18802A7
:205540002046034C3346A04701B0F0BD1D4A01809D4D008070B504460E46084D0022A8475D
:205560000028B8BF70BD054620463146044C0522A0470028B8BF70BD281870BD1DD2008031
:205580007548008030B50028044608BF30BDA06828B16168054DA847A068054DA84701206E
:2055A000002184E80300A16030BDC046F94300805923038030B40A4C6569854208D1256976
:2055C0008D4205D12068106060681860002005E054F8185F002DEFD16FF02D0030BC70470A
:2055E000E4F6018010B590F8A100002302280CD1074800685FEA101E06D0441E095D102933
:2056000002DC401A106000E00723184610BDC04618250020F0B400240FE052F8046B53F88F
:20562000047B351BA64234BF01240024BD4238BF641CED1B41F8045B401E0028EDD12046B7
:20564000F0BC704770B5054670B1084CA047044607E0A068064E2946B04708B9204670BDD4
:205660000C3420680028F4D1002070BD51410080B521038010B48968202309688A1C12F0AC
:20568000040201EB420202245FEA5303082B01FB124402FB04F2F6D26FEA0201491C0160AD
:2056A00010BC704730B50028054608BF30BD064C2846A047054C05F17C00A047044C05F1C4
:2056C0008800A04730BDC0460191008085550080D14F008070B506461446094D0323A84726
:2056E00000B170BD206820B1401E20603068017811B16FF0670070BD401C3060002070BD96
:205700009151008070B583B08668079C012E089D07D100940195002402940C30044CA0473B
:2057200003E04BF28000CFF6FF7003B070BDC046BD97008070B50021814206460ED0084D53
:20574000686858B16868074CC0683146A04708B9686870BD083568680028F3D1002070BDC3
:20576000C0EC0180B52103800948016871B90949094A0B6833B151F8083B42F8043B0B684B
:20578000002BF8D100211160012101600248704724250020C0EC01803826002070B505467B
:2057A000094C70B16A686068904206D12068A968064EB04708B9204670BD54F8140F002861
:2057C000F0D1002070BDC046ECF701800522038070B50546094C70B16A686068904206D17E
:2057E0002068A968064EB04708B9204670BD54F8140F0028F0D1002070BDC04634EC018025
:205800000522038070B50546094C70B16A686068904206D12068A968064EB04708B92046AA
:2058200070BD54F8140F0028F0D1002070BDC046F8E701800522038070B50546094C70B1A0
:205840006A686068904206D12068A968064EB04708B9204670BD54F8140F0028F0D1002055
:2058600070BDC046F8ED01800522038070B50546094C70B16A686068904206D12068A96823
:20588000064EB04708B9204670BD54F8140F0028F0D1002070BDC046DCE3018005220380D4
:2058A00070B50546094C70B16A686068904206D12068A968064EB04708B9204670BD54F83B
:2058C000140F0028F0D1002070BDC046ACE801800522038070B50546094C70B16A6860682A
:2058E000904206D12068A968064EB04708B9204670BD54F8140F0028F0D1002070BDC0461C
:2059000048E801800522038070B50546094C70B16A686068904206D12068A968064EB0471F
:2059200008B9204670BD54F8100F0028F0D1002070BDC04624E901800522038070B50546C4
:20594000094C70B16A686068904206D12068A968064EB04708B9204670BD54F8100F0028C3
:20596000F0D1002070BDC04628DB01800522038070B50546094C70B16A686068904206D1BC
:205980002068A968064EB04708B9204670BD54F8180F0028F0D1002070BDC046E4F60180C5
:2059A00005220380F0B5D0F8D8600025142E059C02DB6FF03D050DE000F1DC0E142706FB0E
:2059C00007E631607260F3603461D0F8D810491CC0F8D8102846F0BD70B50C4615464DF8A8
:2059E000041D00F1AC011346074E6A46B04700B108E00098001BA8421ABF4BF28000CFF602
:205A0000FF70002001B070BDA55E0080F0B5002908BFF0BD05465FEA8101091F44180AE0D0
:205A20002868064EB04706462068044FB84745F8040B44F80469AC42F2D2F0BD9D420080B2
:205A40004FF000010160416042F20132C6F2457282604AF68932CEF6CD72C2604DF6FE42A9
:205A6000C9F6BA02026145F27642C1F2320242610846704730B50028044608BF30BD084D6A
:205A800004F12000A8472046064D5FF4A071A84742F21070E0615FF0FF30206130BDC0460F
:205AA000054700809547008030B400210A4644680FE00023856855F8225035FA03F515F0D3
:205AC000010F01D0084607E05B1C491C202BF1D3521CA242EDD3002030BC7047F0B588B013
:205AE0000D9C0E9D0F9F109E0096DDF844E0CDF804E00296CDF80CE0049405950697002482
:205B00000794024CA04708B0F0BDC046412F018070B518B1016809B1046C24B949F600704C
:205B2000CFF6FF7070BD0025256204F11000044E1021B0472046024C1021A047284670BD72
:205B40009547008010B584B01C46002BB8BF5C4203945FEAD37393F001035FEA43035B1E99
:205B600000930123019303AB0293024C6B46A04704B010BDB146018010B584B01346002A3C
:205B8000B8BF534203935FEAD27292F001025FEA4202521E00920122019203AA0292024C7D
:205BA0006A46A04704B010BD1575008010B584B01346002AB8BF534203935FEAD27292F096
:205BC00001025FEA4202521E00920122019203AA0292024C6A46A04704B010BDD17700800E
:205BE000F0B581B00D4614461E46084F04216846B847042C2846064D694688BF042422461E
:205C0000A8473460002001B0F0BDC046E97B0280CD21038030B40B4B5C6884B15C68E569E1
:205C20002D68854207D1A5688D4204D16568954201D1204604E008335C68002CEED10020B5
:205C400030BC7047C0EC018070B50B4D04460E46A847002818BF70BD074D04F10C0006F1F2
:205C60000C01A847002818BF70BD04F11800024C06F11801A04770BD3597008010B584B038
:205C80000A460029B8BF4A4203925FEAD17191F001015FEA4101491E00910121019103A902
:205CA0000291024C6946A04704B010BD759A008030B50A4C05467C30A047084C05F1880072
:205CC000A047064C05F1B800A047054C05F19400A047034C05F1C400A04730BD594400803A
:205CE000314C0080FF230360B2F13003092B98BF0360B2F14103052B9CBFA2F137030360BC
:205D0000B2F16103052B9CBF573A02600068884224BF6FF00500704700207047F0B50B4EF9
:205D200004460D461F46B047002818BFF0BD2946064D04F10C003A46A847002818BFF0BDE0
:205D400004F11800024C0121A047F0BD41FC00804D660080F0B586B0D0F8A8700B9C0C9D37
:205D60000D9EDDF838E007B100E0274600940195029603975FF0FF340494CDF814E0024C09
:205D8000A04706B0F0BDC0462927018030B584B085689646012D079A089C0AD1009301928C
:205DA00002940022039210F80C2B7346044CA04703E04BF28000CFF6FF7004B030BDC046EC
:205DC000A589008030B584B085689646012D079A089C0AD10093019202940022039210F86A
:205DE0000C2B7346044CA04703E04BF28000CFF6FF7004B030BDC0466170008030B50A4C75
:205E00000546A047094C05F17C00A047084C05F18800A047064C05F1AC00A047034C05F1C9
:205E2000D000A04730BDC0469968008059440080314C008030B50A4C0546A047094C05F165
:205E40007C00A047084C05F18800A047064C05F1AC00A047034C05F1D000A04730BDC0465C
:205E60000191008085550080D14F008070B5044618B1206808B1A56825B94AF60070CFF63D
:205E8000FF7070BD054E2046B04700B170BD20682946427A2046024CA04770BDE18100807B
:205EA0009D73008070B5022B1D4608D31468264616F8013B166013B16D1EAB4204D94BF2C4
:205EC0008000CFF6FF7070BD641CE51815602246014CA04770BDC0460DE2008030B50028A4
:205EE000054608BF30BD286C28B1084C2421A047286C074CA047E86B18B12968C9698C6A13
:205F0000A0472846014C4421A04730BD954700805923038030B505462868B0F1FF3F08BFE5
:205F200030BD084C05F10800A0470020C5F8D80005F1DC00044C5FF4C871A0475FF0FF3073
:205F4000286030BD4D45008095470080F0B581B086460C4616461D4608467146074FB84751
:205F600000B108E0009504F17C0104F188022046034C3346A04701B0F0BDC0461D4A0180A1
:205F80009D4D008030B58CB005460AB900200EE0084C6846A047044620B92846064C6946DF
:205FA000A0470446054D30216846A84720460CB030BDC0461D030180B1AB00809547008082
:205FC00070B582B01C46069E079B23B94BF28000CFF6FF700EE0751C00955B1E019323466B
:205FE000054DA84700B105E0206830702068401C2060002002B070BD21DE008070B581B06A
:20600000054616460B4C01236A46A04700B10EE00098012802D06FF0630008E0286810F853
:20602000011B002918BF012131602860002001B070BDC0469151008070B50D4D04460E4686
:20604000A84778B90A4D04F10C0006F10C01A84740B904F11800064C06F11801A04708B9C5
:20606000002070BD4BF28000CFF6FF7070BDC046759A00802DE9F04782B00B4D0A9E0B9CFA
:206080008A461F4623469046114632468146A84738B900960194054C48463946424653466C
:2060A000A04702B0BDE8F087FD6D0080C549008070B503F1070E5FEADE0ED3EBCE0593B17B
:2060C00002EB0E0414F8016D56FA05F515F0010E4FEA550507D15B1E05D013F0070FF5D151
:2060E00014F8015DF2E7014CA04770BD4D9D008030B50C4D286890B90B4CA0470B490022C7
:206100000B4604E050F80C4B521C43F8044B0468002CF7D1002041F82200012028600348E4
:2061200030BDC0462825002051410080002600202DE9F043814615461F46002688460A4C8D
:2061400030463946A047094C414602464846A047002818BFBDE8F083761CAE4208F10C0824
:20616000EDD3BDE8F083C04645460080A5760080F0B50446D4F828010B4E0D461746B047B7
:2061800087421CBF6FF4A040F0BD04F5B770074C29463A46A04720B14AF6FE70CFF6FF706F
:2061A000F0BD0020F0BDC04671410080052203802DE9F04305466C688946A06817461E4683
:2061C00058B1DFF8288010210120C047E060040004BF6FF06900BDE8F083A7606660C4F86E
:2061E00000906C600020BDE8F083C046E5210380F0B583B004460D4617460C4E0C22002101
:206200006846B047204629463A46094C6B46A04700B109E00098052800D008B9019810B14D
:206220006FF0670000E0002003B0F0BD892103801DB00080F0B585B0D0F8A4700A9C0B9DBA
:206240000C9E37B1012F09D04BF60070CFF6FF700CE0009401950296054C06E0002700971B
:206260000197029403950496024CA04705B0F0BD95CE0080EDFA008070B50D4C05460846C6
:206280000E46A047E96DC91DB0EBD10F05D83046084C0021A047002804DA4BF28030CFF6A5
:2062A000FF7070BD2A68044C3046291DA04770BD614500807D5C0080C9B200802DE9F047C9
:2062C00083B00D4D0B9C17461E461A46234680468A46DDF83090A84750B90096CDF80890EA
:2062E0000194064C3946524608F128034046A04703B0BDE8F087C046FD6D0080019B008034
:206300002DE9F0410C465FEA9101164614F003020A4F0546984618BF491CB847002818BFE8
:20632000BDE8F08114B90020BDE8F0812146044C284632464346A047BDE8F08195660080A6
:20634000ED7B0080F0B500680E4F0C4616461D46B84720B94BF28000CFF6FF70F0BD032140
:20636000032D216004D24BF20010CFF6FF70F0BD06F8011B81885FEA112131708088707041
:206380000020F0BD514E0080F0B584B0D0F8A4E0099CBEF1000F0A9D0B9E0C9F07D0BEF108
:2063A000010F07D04BF60070CFF6FF7008E00094044C01E00094044C019502960397A047D1
:2063C00004B0F0BD89D70080814F0080F0B584B0D0F8A4E0099CBEF1000F0A9D0B9E0C9FA9
:2063E00007D0BEF1010F07D04BF60070CFF6FF7008E00094044C01E00094044C019502968C
:206400000397A04704B0F0BDCDD40080555D008030B586B0044603A8009005A8019008461B
:2064200011460A4D04AB02AAA84760B9084D059A039904F58C70A84700B104E02046044C8C
:20644000049A0299A04706B030BDC04675530080BD12018070B50D4C06460D46A04704468D
:2064600078B90B4C06F17C0005F17C01A047044638B9084C06F1880005F18801A047044609
:2064800010B1054D3046A847204670BD1943008035970080495C008089450080F0B596B06B
:2064A00004460E4617460A4D6846A847094D6846A84721463246084C6846A0473946074C60
:2064C0006846A047064C6846A047002016B0F0BDC9430080415A00808190008025E50080EB
:2064E00011450080F0B59AB004460E4617460A4D6846A847094D6846A84721463246084CC2
:206500006846A0473946074C6846A047064C6846A04700201AB0F0BDD9430080E57200808E
:20652000F5A40080F10B01803945008070B50446206878B1102A04D949F68070CFF6FF702D
:2065400070BD436913F0010F01D0154607E00569954204D949F60070CFF6FF7070BD2DB12C
:20656000034E04F128002A46B047A563002070BDCD210380F0B50E4C06460F46A0470028D1
:20658000024610DB0B4D304639461446A8470028024608DB144430463946074D0622A84727
:2065A0000028024601DA1046F0BDA018F0BDC046E95100801DD2008075480080F0B50E4CBD
:2065C00006460F46A0470028024610DB0B4D304639461446A8470028024608DB1444304621
:2065E0003946074D0422A8470028024601DA1046F0BDA018F0BDC046E95100801DD20080D1
:206600007548008070B505460E4621B949F60070CFF6FF7070BD28460A4C44220021A0475D
:20662000F069446AA04700218142E86304D149F68060CFF6FF7070BD2E602846024CA047B7
:20664000002070BD8921038019950080F0B505460E460E4C0121A0470746A0B968680C4C1D
:206660005FEA8002A8680021A047002E3046A968B8BF704208605FEAD67090F001005FEA98
:206680004000401E28603846F0BDC046BD7000808921038070B505460C4619B90C4C28466F
:2066A000A0470AE06868A04209D15FEA8402A868084C0021A04701202860002070BD044EFA
:2066C0002846B0472146044C2846A04770BDC0468555008089210380BD7000802DE9F0419B
:2066E0000026174605464DF8046D0B4CDFF82C80226811446A46C0474FF0070820B92068F7
:206700000099B04608443860054C2846A047404601B0BDE8F081C0461C25002029DD008026
:20672000DD5E00802DE9F0410026174605464DF8046D0B4CDFF82C80226811446A46C04763
:206740004FF0070820B920680099B04608443860054C2846A047404601B0BDE8F081C0461E
:206760001C25002029DD0080DD5E008030B586B0044603A8009005A80190084611460A4D9D
:2067800004AB02AAA84760B9084D059A039904F58C70A84700B104E02046054C049A02999D
:2067A000A04706B030BDC04675530080BD12018019DF008030B4002484420B46154601D0EE
:2067C000AC4204D149F60070CFF6FF7016E02C60591E08440FE010F801192246002918BF55
:2067E00001210C4394422A6808BF002103FB01F10A432A605B1E002BEDD1002030BC7047EC
:2068000030B5032A044606D30A68104610F8013B032B086004D04BF28000CFF6FF7030BDEF
:206820005378921C0A60084D12F8010B0A6050EA0320A84720B94BF28010CFF6FF7030BD8D
:2068400000682060002030BD754E008070B50F4D04460E46A84788B90D4D3046A84768B9D1
:206860000C4D04F1080006F10801A84730B904F11400084C06F11401A04720B14BF6006028
:20688000CFF6FF7070BD002070BDC0461971008095940080759A008070B50646002540F834
:2068A000045B0E4CA0470D4C06F11000A0470B4C06F11C00A0470A4C06F12800A047074CF1
:2068C00006F14C00A047B565F56535667566B566F56635677567B56770BDC046594400804A
:2068E000314C00806FF002010844072813D8DFE810F0080012000A000C0012000E001200AA
:206900001000064870470648704706487047064870470648704700207047C046E8CF018039
:20692000F4CF018000D0018018D001800CD0018010B5C8B10268BAB152686FF002031A446D
:20694000052A11D8DFE812F0060010000900090010000C004068074C04E04068064C01E058
:206960004068064CA04710BD4AF60070CFF6FF7010BDC04695910180E17601809D9C018079
:20698000F0B50E465FEA9201174612F003020F4C054618BF491CA0470346A0B9002210E041
:2069A000AC6812F0030116F8010B5FEAC10132F0030E10FA01F154F80E00521C084344F81A
:2069C0000E00BA42ECD31846F0BDC046956600802DE9F0419BB006460F4690461D460B4C9F
:2069E0006846A04729460A4C6846A04731463A46084C6846A0474146074C6846A047074C06
:206A00006846A04700201BB0BDE8F081E943008075B30080018E0080F1050180254500801C
:206A20002DE9F0435FEA9205894612F003010D4C0746904618BF6D1C2946D2EB8506A047DE
:206A4000044660B9B8F1000F09D0B86849463044054E4246B047B8682946044DA847204618
:206A6000BDE8F08395660080CD2103800D5A008010B587B00468012C10D10A4C0391009437
:206A8000094C049001940124029405920693074C074B084A08490948A04701E041F20200F7
:206AA00007B010BD48DD0180A8DC01804123018048DE018088E00180E8DA018068DC01802A
:206AC000F0B586B004460E480D46D0E900010D4FCDE90401049305921046002110221E46DC
:206AE000B8470020009001900748F3B2029004A803902046054C2946FF22A04706B0F0BD00
:206B000038CC018089210380B1610080259C0080F0B581B005460E4617463068121A3146E3
:206B20000C4C6846A04798B90B4C00992846A04700B10DE0A868012806D1084C05F10C00CE
:206B400031463A46A04703E04BF28000CFF6FF7001B0F0BD01680080655100802548008019
:206B6000F0B501F118070E4D0E460446021D38463946A847002818BFF0BD0A4D3A46304662
:206B80003146A84718B92146074C3046A047002818BFF0BD3846054C0121A047F0BDC04670
:206BA0002D3A01801DE4008091AD00804D6600802DE9F04192B004461E46189D199F02A82D
:206BC0005FF0000E10235B1E40F804EBFBD161B922B9DFF828802046C04720B94AF2800043
:206BE000CFF6FF7007E002A902460095019720463346034CA04712B0BDE8F081714100803B
:206C0000119400802DE9F04190461A460F4C069B05460E46A0470028024611DB0C4F28462B
:206C200031461446B8470028024609DB2846094D314614445FFA88F2A8470028024602DA8F
:206C40001046BDE8F081A018BDE8F081E95100801DD200807548008030B504460D460020F2
:206C60005FEA521EA16851F82020D2F1FF3241F82020401C7045F5D90020A1685FEA800289
:206C800051F820305B1C41F82030401CA168895809B97045F1D95FF0FF302060A0686D421F
:206CA00050F82E10294440F82E1030BDF0B504460F461646114D0323A84700B1F0BD306875
:206CC00010B96FF05F00F0BD401E306020680078307130790728C4BF6FF06300F0BD20689F
:206CE000401C2060B060316820680844B84220601CBF6FF06500F0BD0020F0BD9151008046
:206D0000F0B5044620686368104E1844206020460D461746B0474FF0FF0600B90026E819C6
:206D200035F00F0550F00F004AF21011CEF2080101E00D6010358542FBD304F10C00044C2C
:206D400040220021A0473046F0BDC046F59C02808921038070B5012A04460D4606D104F1A7
:206D6000AC000F4C05F18801A04770BD22B14BF28000CFF6FF7070BD094E04F1880005F1BE
:206D80008801B047002818BF70BD04F17C00054C05F17C01A04700B170BD002070BDC046FA
:206DA000495C00803597008070B5044620680D46411A0129BCBF6FF06B0070BD411E216041
:206DC0000AB1FF2100E0002100F8011C20462946084E0122B0470028B8BF70BD461C2046E9
:206DE0002946054C0122A0470028B8BF70BD301870BDC0461DD20080754800802DE9F0418F
:206E0000104C05460E4617469846A047022805D1E86D31463A4643460B4C0AE0094C28467C
:206E2000A047012808D105F14C0031463A464346064CA047BDE8F0814BF28000CFF6FF7067
:206E4000BDE8F0815D4600804D870080BD5100802DE9F041114C0E46376805469046A04778
:206E600030B90F4C28463946A04730B1BDE8F0810A4C2846A047B8420AD1A868012807D172
:206E8000084C05F10C0031464246A047BDE8F0814BF28000CFF6FF70BDE8F08109410080CF
:206EA00065510080556D0080F0B586B0D0F8A4E00B9CBEF1000F0C9D0D9E0E9F07D0BEF147
:206EC000010F0AD04BF60070CFF6FF7011E00094019502960397084C0AE05FF0000ECDF836
:206EE00000E0CDF804E00294039504960597034CA04706B0F0BDC0467D140180E119018079
:206F000010B4019C50EA012050EA024043F60041CEF60001086054F0005454F4806454EA90
:206F2000C37443F60440CEF600000460012043F60841CEF60001086043F60C40CEF600005C
:206F4000016811F4803FFBD1006810B141F2030000E0002010BC70472DE9F04F9346DBF855
:206F6000004082460F2C0D469846099F0A9E16D96FF02000BDE8F08F6D1E34B95046424625
:206F80004346DFF828900121C8474146095D17F8010B641C484006F8010B14F00F04002D4A
:206FA000EAD1CBF800400020BDE8F08F154B00802DE9F041B4B006460F4690461D460D4C11
:206FC0006846A04729460C4C6846A047044648B931463A46094C6846A0474146084C68460B
:206FE000A0470446074D6846A847204634B0BDE8F081C04629430080B9B9008031A00080DA
:20700000195501804D450080F0B515461E464DF8080D47183946104C302301AA6846A047E4
:20702000A8B9009801990844B84204D04BF28000CFF6FF700DE039462A46084C6846A047ED
:2070400028B939463246054C6846A04708B1B0F59F4002B0F0BDC04691510080D5530080C6
:207060002DE9F04782B005468A46A96D16461C46DDF828900B9B0C9821B94BF28000CFF66F
:20708000FF7013E0009005F188080A4F424605F17C012846B84700B108E0CDF80490009431
:2070A000054C2846414632465346A04702B0BDE8F087C04665470080C15F0080F0B5044603
:2070C00042F2107081420E4608D86068B04219D230460D4D0421A847074610B96FF00F00F8
:2070E000F0BDA16861B16068084D5FEA80023846A847A0686168064DA847A068054DA84717
:207100006660A7600020F0BDE5210380CD210380F94300805923038070B50022114D114624
:207120000446A847B8B904F108060F4D3046A847802810D3143420460C4D0021A84750B13E
:20714000094D2046A847022805D32046084C3146A047002804DB4BF60060CFF6FF7070BD61
:20716000002070BD71C00080A5530080094F0080759A00802DE9F041ABB000291746319D3C
:207180000E4641F210041EBF002F002B002D15D00090002401941946DFF82880202213A8E7
:2071A000C047294623462246074C6846A047044620B931463A46054D6846A84720462BB056
:2071C000BDE8F081CD210380716A008029CB008070B504460E4601F11800104D0121A8471E
:2071E00020B14BF28030CFF6FF7070BD0C4D2046A847022803D1204631460A4C07E0084D55
:207200002046A847012804D120463146064CA04770BD4BF28000CFF6FF7070BD7D5C008061
:207220005D4600807962008055000180F0B50023102A8E460646104601D1872708E00828EA
:2072400001D11B2704E049F60070CFF6FF70F0BD411E0EEB01027418157853EA450304F8B1
:20726000013912F801395FEAD313491EF4DA9EF80010401E5FEAE1114942C9B20F40315C0B
:20728000794031540020F0BD10B5F0B10268E2B152686FF002031A44072A16D8DFE812F01C
:2072A0000B0015000E000E0015001100150008004068084C07E04068074C04E04068074C92
:2072C00001E04068064CA04710BD4AF60070CFF6FF7010BDF10B018025E50080F1050180F0
:2072E000195501804FF000010160416041F26F62C7F2803282604BF2B922C4F61412C260F2
:2073000044F2D722C1F22472026140F20062CDF68A22426143F2BC02CAF66F12826143F69C
:20732000AA02C1F23162C2614EF64D62CEF28D32026240F64E62CBF2FB0242620846704719
:20734000F0B581B006460020B168096811F0010F14D005460E4F15E057F825100D4C30467C
:20736000A047002801DC012010E0314657F82520094C6846A04748B9009911B96FF00D004B
:2073800004E06D1C57F825100029E5DC01B0F0BD7CFD01807D5C00809D8A008010B5F0B154
:2073A0000368E3B15B686FF002042344072B16D8DFE813F00B0015000E000E0015001100F3
:2073C000150008004068084C07E04068074C04E04068074C01E04068064CA04710BD4AF604
:2073E0000070CFF6FF7010BDF5A4008081900080018E008031A000802DE9F04F8BB0124C24
:20740000159D0F462946834690469946149EDDF85CA0A047A8B903AC0097CDF80480029488
:2074200033460A4E584629464A46B04748B91698CDF804A000902146054C58462B46202236
:20744000A0470BB0BDE8F08FD1710080E9990080194A0080F0B586B005460E461746124C8A
:20746000102101A8A047286801AB846905A8009028460E4D22461946A847054660B930468C
:2074800022460B4D01A9A847054628B92246084C38463146A0470546034C102101A8A04774
:2074A000284606B0F0BDC04695470080553101802D720080F0B583B005460C461746104E43
:2074C0006846B047291D0C3422460E4D6846A847054670B920460C4D0021A8470028204650
:2074E0000A4C694614BF07F0010207F00002A0470546074C6846A047284603B0F0BDC046D3
:2075000059440080D17700807D5C0080A5760080855500802DE9F04104460D4617462E6861
:20752000386806FB00F0002814DADFF8408028463946C047002802DB29460D4D0CE02A46EF
:207540000B4D20463946A847002818BFBDE8F081764208E02946074D20463A46A84700288A
:2075600018BFBDE8F0812660BDE8F0812580008001C2008035B600802DE9F04793B00646D3
:207580001B9C0DF10C08CDF8048000940F4CDDF870A0DDF874901E9D1F9FA047044668B961
:2075A0000B4C3046A047CDF8009001950297094C5346414602463046A0470446064D40217B
:2075C0004046A847204613B0BDE8F087B16B0080714100803DF20080954700802DE9F04FC3
:2075E0004DF8040D0F469B469DF828A0CAF345090025144615E04D45DFF83C803846214619
:207600000CBF012600263246C04790B932460A4E07F10C0004F10C01B04750B924346D1CD3
:20762000EDB25D45E7DB0098044C39465FEADA12A04701B0BDE8F08FA5760080B5740080AB
:2076400030B5054690B12868002818BF00290DD02846114C0123A04700B130BD28680068B8
:2076600002281EBF03280428242804D049F60070CFF6FF7030BD094C24210120A04720B941
:2076800049F68060CFF6FF7030BD2864044C1021A047002030BDC046A97A0080E521038077
:2076A000954700802DE9F0430D465142C9B20A436968DFF84880C2F3C0177E420446C0476A
:2076C0008146C0B920682968DFF834803A46C04720603B460B4FA1686868AA68B84768682A
:2076E00006E0A16851F82020B24341F82020401C61688842F5D34846BDE8F083BD7000809A
:207700003D480080114D00802DE9F0438646089C002014F0010F0D4616469846DDF81C908B
:2077200003D00E4F0E487146B84714F0020F05D020B929460B4D0A483246A84714F0040FB3
:2077400005D020B9084C064841464A46A047002808BFBDE8F083FF20BDE8F0839D7D008003
:207760003028002039440080C9A600802DE9F04382B005461F46DDF82490DDF828800B9ECB
:207780000F4CA047C8B90F4C2846A047A8B900960D4C284639464A464346A04768B9306880
:2077A0000A4C08EB0001284601AAA04700B104E03068019908443060002002B0BDE8F083F2
:2077C0002D6500802D4600805531018029DD00802DE9F04104460D4617462E68386806FB9F
:2077E00000F0002814DDDFF8408028463946C047002802DB29460D4D0CE02A460B4D20460D
:207800003946A847002818BFBDE8F081764208E02946074D20463A46A847002818BFBDE809
:20782000F0812660BDE8F0812580008001C2008035B600802DE9F04191B006460F461546E4
:20784000114CA0470068114CA047422D804604D94BF20034CFF6FF740DE038462A460C4C4A
:207860006946A047044630B9304641462B46094C6A46A04704462946074D6846A8472046D5
:2078800011B0BDE8F081C04649410080E5680080018F00805182008095470080F0B590B090
:2078A00004460E4618B1206808B1A16821B94AF60070CFF6FF701DE0407A0F4D0F182046B9
:2078C0006946A847B0B90D4D2046A84790B920680B4D427A20463946A84758B92168084D4A
:2078E0000A7A20466946A84700B103E02046024C3146A04710B0F0BD89720080E181008090
:207900009D73008030B500218142044620D0114D11482146A84710B9104C032016E00D4D2F
:207920000F482146A84710B90C4C05200EE0094D0C482146A84710B9084C062006E02146D6
:20794000044C0948A04718B9044C0820A04730BD002030BDB521038028CB0180E5680080DB
:2079600000CC018008CC018010CC018010B5002823D00368002B18BF00291ED00A68E2B19F
:2079800093421AD152686FF002031A44052A14D8DFE812F0060013000A000A0013000E0079
:2079A00040684968084C06E040684968074C02E040684968064CA04704E04AF60070CFF6BB
:2079C000FF7010BD002010BD2141008039410080414100802DE9F04184B0CC69FF25032C9D
:2079E0000F684A688B68CE68D1F820E0D1F82480896A19D8DFE814F00400090009000E002C
:207A0000009601910A4C39460CE0009601910294084CF8E7009201930296039171464246FB
:207A20003B46054CA0470546284604B0BDE8F08109770080317D0080C1820080F0B400264F
:207A4000864203460C46154601D0AE4204D149F60070CFF6FF7024E080222E60601E0344F6
:207A600013E01878314600282F6818BF012006438E4208BF0020641E04FB00F10F432F6002
:207A800013F8011901FB00F14A40002CE9D1002A49F60061CFF6FF7114BF0120002000FB56
:207AA00001F0F0BC7047000030B5802A05461CBFC42AB2F5807F04D049F6E060CFF6FF70A2
:207AC00030BD286800281FD0446914F0020F02D18068904218D1012B6A60AB6007D02A6870
:207AE0005068032818BF042801D0052805D128686A68C069C469E86B04E02BB9D0696A68EE
:207B0000046AE86BA04730BD49F60070CFF6FF7030BD00002DE9F041ABB000291746319C0B
:207B2000329E0D4618BF002F41F210021EBF002B002C002E19D00090012001901946DFF814
:207B4000348020221BA8C04721460A4C202223A8A04731462A463B46074C6846A04702461C
:207B600018B9064C6846A047024610462BB0BDE8F081C046CD210380716A008091EC0080EF
:207B80002DE9F041164C05460F461646A04702284BF28018CFF6FF7812D1286809280FD19A
:207BA000202E05D24BF20010CFF6FF70BDE8F0810C4C05F17C0039463246A047804658B98A
:207BC000074C2846A047012806D1074C05F17C0039463246A04780464046BDE8F081C046F2
:207BE0005D46008009930080018F00802DE9F0475FEA9106044611F00300606817469946B7
:207C00008A4618BF761CD1EB8608B0423CBF6FF00300BDE8F0874246A0680D4D0021A8477C
:207C20006168A068891B0A4D00EB86005FEA81020021A847A168484641445246B84705462D
:207C400018B9A068034C3146A0472846BDE8F087892103800D5A0080F0B40B461146002292
:207C60008242054601D08A4204D149F60070CFF6FF7025E028465A1E865C9F1B9E420F60CA
:207C80008CBF01200020D6F1010138BF0021084300210AE015F8012B7240B9422CBF01242B
:207CA000002402FB04F21043491C9942F2D3002849F60061CFF6FF7118BF012000FB01F074
:207CC000F0BC70472DE9F0410C46012615461F464DF80C6D4168806801910290DFF84480B3
:207CE00000216846C04720B131460E4E6846B04710B96FF00D0012E00A4E02216846B0471E
:207D000028B1094E6846B04718B1012807D1002005E021462A463B46044C6846A04703B0CF
:207D2000BDE8F0817D5C008041730080FD1001802DE9F0478646099C002014F0010F0D46CD
:207D400016469846DDF820A0DDF8289003D00F4F0F487146B84714F0020F05D020B9294657
:207D60000C4D0B483246A84714F0040F06D028B9094C0748494642465346A047002808BFF8
:207D8000BDE8F087FF20BDE8F087C046F1EF0080B82D0020994300809DF9008070B5ADF5E8
:207DA000017D05466A4600238020401E42F8043BFBD11E4680930846114C6A4680A9A04702
:207DC000A0B98098B0F5007F10D81124684605F1400107E0027801F8012B027802B1002435
:207DE000401C761C809A9642F4D300E0112405F18000044DA84754EA00000DF5017D70BD26
:207E0000296900201552008070B5ADF5017D05466A4600238020401E42F8043BFBD11E46BF
:207E200080930846114C6A4680A9A04798B98098B0F5007F0FD811246846294607E002789D
:207E400001F8012B027802B10024401C761C809A9642F4D300E0112405F18000044DA8473A
:207E600054EA00000DF5017D70BDC04629690020155200802DE9F04786460A9C002014F095
:207E8000010F0D4616469846DDF820A0DDF8249003D00F4F0F487146B84714F0020F05D0FF
:207EA00020B929460C4D0B483246A84714F0040F06D028B9094C0748414652464B46A0475E
:207EC000002808BFBDE8F087FF20BDE8F087C046097E0080302800204944008079AF008022
:207EE00070B40B46114600228242044601D08A4204D149F60070CFF6FF7025E020465D1E4B
:207F0000425D9E1A9A420E608CBF01200020D2F1010238BF002210430021012B0BD0B142E7
:207F200014F8012B2CBF0123002302FB03F21043491CA942F3D3002849F60061CFF6FF717F
:207F400018BF012000FB01F070BC7047F0B50446E06D154FC01DB3EBD00F4FEAD0000D4604
:207F600088BF0346084611461A461E46B8470746B8B9E06D5FEAC601814205D90B4E091AD1
:207F80002846B047074660B94C34094E28462146B047002805DB2246064C28462946A047ED
:207FA00007463846F0BDC046216A0080B99C0080759A0080D1770080F0B50446E06D154F6C
:207FC000C01DB3EBD00F4FEAD0000D4688BF0346084611461A461E46B8470746B8B9E06DE8
:207FE0005FEAC601814205D90B4E091A2846B047074660B94C34094E28462146B0470028BE
:2080000005DB2246064C28462946A04707463846F0BDC046216A0080B99C0080759A008015
:20802000D177008030B405460B466C6806E05FEA8400A968001F085810B9641E002CF6D1A3
:20804000586806E05FEA80019A68091F515811B9401E0028F6D104B9B8B184420BD8A04215
:208060000DD810E05FEA84009968001F0A58A9680858904201D9012008E0904202D25FF0C1
:20808000FF3003E0641E002CECD1002030BC70472DE9F04785B08246894614461F460D9E1D
:2080A000DDF8388022E0641E3946134D10226846A84750463A463B46104D0121A847B9F152
:2080C000000F04BF30788DF81000387816F8011B4840B9F1010F08F8010B08BF8DF810000D
:2080E0003846054D10220DF10101A847002CDAD1002005B0BDE8F087CD210380154B008076
:208100002DE9F041044600205FEA511611F01F07002A15461EBF012D6FF00300BDE8F081CF
:2081200062685FEA42128A420CD815B90020BDE8F081DFF838802046711CC047002818BF9C
:20814000BDE8F081A168012212FA07F351F826209A4341F82620A16815FA07F351F826204B
:208160001A4341F82620BDE8F081C046BD7000802DE9F04F81B086460C9C002014F0010F2C
:208180000D4616469846DDF828B0DDF82C90DDF834A003D00E4F0F487146B84714F0020F19
:2081A00005D020B929460C4D0A483246A84714F0040F08D038B9CDF80090084C0548514623
:2081C00042465B46A04700B1FF2001B0BDE8F08FC9A00080B82D0020A9430080DDCC008067
:2081E00010B5002826D00168002923D049686FF00202114407291DD8DFE811F00B001C009A
:208200000F0013001C0017001C00080040680C4C01E040680B4CA04710BD40680A4C012131
:2082200006E04068084C002102E04068074C0021A04710BD4AF60070CFF6FF7010BDC046D2
:20824000E5720080415A008075B30080B9B900802DE9F04305460F4691461C46134E0122EC
:20826000B047002818BFBDE8F083114E3846B04705F10C080F4E414602462846B047002859
:2082800018BFBDE8F0830A4E3846B04702464046094E0121B0472246084C28464946A04744
:2082A00008B1BDE8F0830020BDE8F08375CF008071410080F1C6008089210380B9CD008055
:2082C0002DE9F04786460B9C002014F0010F884692461F46089EDDF824900A9D06D042466B
:2082E000DFF83C800F4853467146C04714F0020F05D020B932460C4E0A483946B04714F0DC
:20830000040F05D020B9094C064849462A46A047002808BFBDE8F087FF20BDE8F087C046C7
:2083200085040180FC2B0020D546008031E600802DE9F04105460C461746666800E0761E37
:2083400036B15FEA8600A168001F08580028F6D007B12EB928460E4C0021A047BDE8F0816C
:20836000DFF830802846711CC047804660B9DFF8288028462146C047804628B9AA68A16878
:20838000064C30467B1EA0474046BDE8F081C0464D660080BD70008035970080A16E018037
:2083A0002DE9F0410546069C0E461746984644B9144C28463146A0470028B8BFBDE8F0811C
:2083C00004463A46104F284631464346B8470028B8BFBDE8F08104440C4F28463146224662
:2083E000B8470028B8BFBDE8F081044428463146074D3022A8470028B8BFBDE8F08120181A
:20840000BDE8F08155550080756500801DD200807548008030B595B004466068112801D2CE
:20842000002029E062680120103A122A009003A80290A16888BF12220192104D40315FEAA7
:208440008202A8470E4D09216846A847A0B9A068002250F8401FC1F308010160112003E02B
:20846000A16841F82020401C61688842F8D320462146044C6A46A04715B030BDCD210380E9
:20848000B99C008035B600802DE9F04F86460D9C002014F0010F884693461F46099EDDF816
:2084A00028A0DDF82C900C9D06D04246DFF83C800F485B467146C04714F0020F05D020B950
:2084C00032460C4E0A483946B04714F0040F06D028B9094C064851464A462B46A0470028EA
:2084E00008BFBDE8F08FFF20BDE8F08F11E00080FC2B0020ED46008059A400802DE9F04F11
:208500004DF80C0D002902928A462AD05FF000088346BAF10100019083440298124CBAEBB5
:2085200000004146A047009C0746651CBAF1010F0BD0019E2178DFF83490384615F8012B43
:20854000C847761E04F8010BF4D19BF800103846064C0022A04708F10108D0458BF8000095
:20856000DBD303B0BDE8F08F59410080B14C00802DE9F04F83460D464DF8042D1046046836
:208580009A460F2C0A9FDDF82C800C9E20D96FF0200022E06D1E8CB9584652463B46DFF814
:2085A00040900121C8470AF10F0010210278521CD3B2027013B9401E491EF7D13946095D62
:2085C00018F8010B641C484006F8010B14F00F04002DDFD100980460002001B0BDE8F08F88
:2085E000154B00802DE9F041ADF5007D044615461E46684600278022521E40F8047BFBD1C2
:208600001248076008463946DFF844806A46C047A8B9DFF840802046C0472046DFF8388020
:2086200010226946C04704F191011020401E15F8012B01F8012BF9D184F8A16000E007278A
:2086400038460DF5007DBDE8F081C046182500207974002029440080354A0080F0B50646BA
:208660000D4617461046164C0021A0470028BCBF6FF00900F0BD31462A463B46114C0020ED
:20868000A04704E0104C3A4630463146A047050013D130460A4C0021A0470028F2DB06E0C7
:2086A0000A4C3A4630463146A047054628B9084C30463946A0470028F2DA2846F0BDC0469F
:2086C0007D5C0080B146018015750080D1770080759A00802DE9F041ADF5007D044615465D
:2086E0001E46684600278022521E40F8047BFBD1124A17600846DFF848806A460121C04713
:20870000A8B9DFF840802046C0472046DFF8388010226946C04704F191011020401E15F8F5
:20872000012B01F8012BF9D184F8A16000E0072738460DF5007DBDE8F081C046182500201D
:208740007974002029440080354A0080F0B55FEAD004641C184D06460F4608462146A84734
:20876000002818BFF0BDD6EBC401144C3846491EA047002818BFF0BD38463146104C01227B
:20878000A047002818BFF0BD00220D4C38461146A047002818BFF0BD3846094C002201214C
:2087A000A04700280CBFFE2EF0BD3846044C00220221A047F0BDC04601630080B99C0080A0
:2087C000018100802DE9F04F8CB006468B4617469946DDF854A0DDF85880179C124D03A87A
:2087E000A847CDF800A0CDF80480029430464A463B460E4C03A9A047044668B90C4C03A864
:20880000A04720B14BF28004CFF6FF7404E05846084C03A9A0470446074D03A8A8472046A0
:208820000CB0BDE8F08FC046314C0080019B00800D48008035970080D14F008030B500286B
:20884000054608BF30BD1A4C05F18C00A047184C05F19800A047164C05F16800A047144C6A
:2088600005F12000A047124C05F13800A047104C05F12C00A0470E4C05F11400A0470C4C80
:2088800005F10800A0470A4C05F18000A047084C05F17400A047064C05F15C00A047044CC0
:2088A00005F15000A047024C05F14400A04730BD855500802DE9F04184B080460846866957
:2088C000076841688268C3680469C56940695FF0FF0EF6B210B1012806D010E0009101924F
:2088E000029303950F4D04E000910192029303950D4D4046214632463B46A847864604F1CA
:20890000100034F00F0450F00F004AF21011CEF2080101E00C6010348442FBD3704604B00C
:20892000BDE8F081118C0080098D00802DE9F04184B0804608468669076841688268C36843
:208940000469C56940695FF0FF0EF6B210B1012806D010E000910192029303950F4D04E08E
:2089600000910192029303950D4D4046214632463B46A847864604F1100034F00F0450F02F
:208980000F004AF21011CEF2080101E00C6010348442FBD3704604B0BDE8F0818D8C008064
:2089A000858D00802DE9F04784B005468A46A96D91461F460C9E0D9B0E9821B94BF28000A8
:2089C000CFF6FF7023E0009005F18808114C424605F17C012846A047C8B928463A463346B5
:2089E0000D4C02A9A04790B902980C4C0744361A00970196284641464A4603ABA04700B1BD
:208A000005E0029803990844CAF80000002004B0BDE8F0876547008045630080C15F008049
:208A200010B500282DD040686FF002042044072827D8DFE810F0080026000D001300260072
:208A4000190026002000084611461A460F4C16E0084611461A460E4C01230AE0084611464F
:208A60001A460B4C002304E0084611461A46094C0023A04710BD084611461A46064CA047C9
:208A800010BD4AF60070CFF6FF7010BD9D640080D1690080B16F0080E564008070B4034647
:208AA0000E46144612B96FF00B0033E0002C02DA6FF009002EE0012C01D1002028E0022CED
:208AC00004D1B068006810F0010021E07568002017E0B2685FEA8501091F51585FEA004008
:208AE00050EA1140B0FBF4F202FB14005FEA01415FEA004050EA1140B0FBF4F101FB14000A
:208B00006D1E002DE5D13168002901DA00B1201A1860002070BC7047F0B5044642F2107041
:208B2000814217D86068884203D82046144CA047F0BD03E0A26852F820200AB9401EF9D15A
:208B4000461C8E420F4D38BF0E4630460421A847074610B96FF00F00F0BDA16859B10A4D17
:208B600038465FEA8602A847A0686168074DA847A068074DA8476660A7600020F0BDC046B8
:208B8000BD700080E5210380CD210380F9430080592303802DE9F04F8DB0064692469846DF
:208BA000DDF85CB0189D199FDDF86890144C07A8A047134C0AA8A047CDF800A0CDF80480FE
:208BC0000295039704950597CDF8189006F17C0330460C4C0AAA07A9A047044630B9169A50
:208BE0005B46094C0AA907A8A0470446074D07A8A847064D0AA8A84720460DB0BDE8F08FBF
:208C000059440080991D018085920080855500802DE9F04781B000240C9D8E4615F0010FDB
:208C200092461E46DDF82490DDF828800B9F09D00146124C124853467246A04708B9002453
:208C400000E0FF2415F0020F09D044B9009731460C4E0B484A464346B04700B1FF2415F081
:208C6000040F07D034B9084D054841463A46A84700B1FF24204601B0BDE8F087E585008094
:208C80008C2700204DE80080E5BB00802DE9F04781B000240C9D8E4615F0010F92461E46BC
:208CA000DDF82490DDF828800B9F09D00146124C124853467246A04708B9002400E0FF240C
:208CC00015F0020F09D044B9009731460C4E0B484A464346B04700B1FF2415F0040F07D01A
:208CE00034B9084D054841463A46A84700B1FF24204601B0BDE8F087D58600808C2700203A
:208D0000E5B60080E55500802DE9F04781B000240C9D8E4615F0010F92461E46DDF8249085
:208D2000DDF828800B9F09D00146124C124853467246A04708B9002400E0FF2415F0020FFE
:208D400009D044B9009731460C4E0B484A464346B04700B1FF2415F0040F07D034B9084D6D
:208D6000054841463A46A84700B1FF24204601B0BDE8F087C9C70080CC26002005540080AE
:208D8000DD6600802DE9F04781B000240C9D8E4615F0010F92461E46DDF82490DDF828809A
:208DA0000B9F09D00146124C124853467246A04708B9002400E0FF2415F0020F09D044B925
:208DC000009731460C4E0B484A464346B04700B1FF2415F0040F07D034B9084D05484146EF
:208DE0003A46A84700B1FF24204601B0BDE8F08719C60080CC260020355400802567008077
:208E00002DE9F043002A04460E46154631D0206810F03F074119D7F14009A942216002D26C
:208E20006168491C616010F03F0F19D04D4517D304F1280808EB07000F4F31464A46B8470D
:208E40000E4F20464146B8474E44B5EB0905002706E0DFF8288020463146C0474036403D26
:208E6000402DF6D22DB12834E019034C31462A46A0470020BDE8F083CD210380E1760180EC
:208E80002DE9F0430F461949054609780020012916469946079C25D014F0010F03D0DFF82B
:208EA00050801448C04714F0020F08D038B92DB12946114D0F483A46A84700E0FF2014F02D
:208EC000040F08D038B92EB10C4C0A4831464A46A04700E0FF20002808BFBDE8F083FF201A
:208EE000BDE8F0839020BDE8F083C046AD550020155200808026002021BE0080016D008070
:208F0000F0B5054668685FEA800E96450AD277468C18B4EB0E04B2EB0E020846174E002170
:208F2000B04715E017460C4610E0A86832F0030112F0030340585FEAC30330FA03F010F0A4
:208F4000FF0F1CBF6FF00700F0BD521C7245ECD300260EE0AA6836F00303D25816F0030E9E
:208F6000B81B5FEACE0E32FA0EF22146401E0A54761CBE42EED30020F0BDC0468921038057
:208F80002DE9F04788B005460F4690469946DDF840A0164C202200216846A04705F12006CC
:208FA000134C3046A047C5F83871C5F83C81A86908B93020A8612C69002C00DB03E0A8695A
:208FC0000C4CA047044630460B4E5FF480726946B04740B92346094C284649465246A0471B
:208FE00000B100E0002008B0BDE8F08789210380ED45008089440080BD12018061BD0080D2
:2090000070B581B005461E4613461C4C6A46A04700B131E00098D8B12868007810F0800F79
:2090200016D105E02868401C28600098401E0090009818B1286800780028F3D00098042852
:2090400006D8042807D12868007810F0800F02D06FF0630010E00020306007E02868316853
:2090600010F8012B52EA0122326028600098411E00280091F2D1002001B070BD9151008070
:209080002DE9F043002A04460E46154631D0206810F03F074119D7F14009A942216002D2EA
:2090A0006168491C616010F03F0F19D04D4517D304F1180808EB07000F4F31464A46B8479B
:2090C0000E4F20464146B8474E44B5EB0905002706E0DFF8288020463146C0474036403DA4
:2090E000402DF6D22DB11834E019034C31462A46A0470020BDE8F083CD21038095910180AB
:2091000070B50028054608BF70BD286E012812D0164C281DA047154C05F11000A047134CE7
:2091200005F11C00A047124C05F12800A0470F4C05F14C00A0470F4C2846A04780B9686F8F
:2091400070B1002406E0686F2421094E04FB0100B047641CA86F8442F5D3686F064CA04745
:209160002846064C7C21A04770BDC04685550080D14F008019440080592303809547008046
:209180002DE9F04104460D461F4600262068411B01290FDB761C411E216000F8012C5FEA88
:2091A0002222F3DC2068017811F0800F0CD0411B012903DA6FF06B00BDE8F081411E21600C
:2091C000002100F8011C761CDFF82C80204629463246C0470028B8BFBDE8F081064420468B
:2091E000064C29463A46A0470028B8BFBDE8F0813018BDE8F081C0461DD200807548008082
:209200002DE9F04191B0402B054688461E4617460AD910461946174C002301AAA0470028A9
:2092200004461ED101AF402628688DF800808DF8016030B905F108000F4C0021A0470446D0
:2092400078B9012045F8080B28460C4C02226946A047044628B9094C284639463246A04720
:209260000446074D402101A8A847204611B0BDE8F081C046B16F0080B9B9008031A0008031
:2092800095470080F0B5A4B0044615461E466A46002023235B1E42F8040BFBD10DF18B0043
:2092A00023900A46144F694623A8B847002820DB07462246104C694623A8A047002818DB1F
:2092C00007443A460D4C694623A8A047002810DB07440B4C3022694623A8A047002800DA9F
:2092E00007E00744074C239928463A46A0473760002024B0F0BDC0469DA800801DD20080E6
:2093000075480080CD2103802DE9F0410546084669685FEA8106964201D2374617E01746A2
:20932000114612E0AB6831F0030E11F0030453F80E305FEAC40433FA04F313F0FF0F1CBFED
:209340006FF00700BDE8F081491CB142EAD3002480460CE0A96834F00303C95814F0030E35
:209360005FEACE0E31FA0EF108F8011B641CBC42F0D3964204D23044921B034C0021A0471B
:209380000020BDE8F081C046892103802DE9F04385B081460846C369FF22032BD0F800E0AE
:2093A000476805694169D0F81880046A466A806A24D8DFE813F004000D000D0016000091F3
:2093C000CDF80480029071463A460E4C2B4612E00091CDF804800290039371463A460A4C2F
:2093E000F4E7009701950291CDF80C800490214632467346054C4846A0470246104605B03C
:20940000BDE8F083757E008071810080898400802DE9F04783B004460D4616469846DDF896
:209420002C90DDF830A020B94AF60070CFF6FF7020E0124F6846B8472146114C012268466B
:20944000A047044690B9294632460E4C6846A047044658B941464A460B4C6846A047044614
:2094600020B95146094C6846A0470446084D6846A847204603B0BDE8F087C046394300801F
:2094800075CF0080F1C60080D14B00809D780080AD9600802DE9F04183B005461A4CA047CB
:2094A000002827D10122194C28461146A04708BB05F11400009000200190029005F12C0690
:2094C00005F1380705F12008114C05F1080031463A464346A04768B905F15000009005F18A
:2094E0005C0001900B4C304605F1440339464246A04720B14BF60060CFF6FF7000E00020E1
:2095000003B0BDE8F081C0461971008071C00080BD1B018019F7008002680023934202D0A4
:209520005268022A04D049F60070CFF6FF70704704291AD8DFE811F0050009000D001100C4
:2095400015000D49C1600D490DE00D49C1600D4909E00D49C1600D4905E00D49C1600D4907
:2095600001E0C3600C49016104E049F68070CFF6FF7070471846704715460080597C0080ED
:20958000514B00803D7A0080314D0080E17E008099440080B5670080AD4800802DE9F041E6
:2095A00084B080460F4615461C46194E01A8B047009408F104022B46164C022101A8A0477F
:2095C0000446B8B938463946134C01AAA04718B9124C38464146A047044658B9183738469F
:2095E00039460D4C01AAA04718B90C4C38464146A04704460A4D01A8A84714F10E0F04BFCE
:209600004BF20034CFF6FF74204604B0BDE8F0815944008015E300801DE4008091AD00809D
:20962000855500802DE9F0470746894616461D46089CDDF824A039B1DFF8688007F10800C2
:209640004946C04700281DD12EB13146154E07F12C00B047B0B92DB12946124D07F1380045
:20966000A84778B92CB121460E4C07F12000A04740B9BAF1000F09D00A4C07F114005146A8
:20968000A04718B1B0F58140BDE8F087B9F1000F04D0054C07F10800A04778600020BDE836
:2096A000F087C046359700806145008030B50028044608BF30BD2168002908BF30BD606882
:2096C000D8B149686FF002021144072912D8DFE811F00A0011000D000D0011000F00110050
:2096E00008000E4DA84760680D4D02E00D4D00E00D4DA84760680D4DA847A06840B12168FE
:209700000B4D497A5FEA4101A847A068074DA8472046074C0C21A04730BDC04639450080AB
:2097200011450080254500804D45008059230380954700802DE9F0410025884204460E4628
:209740000CD0706868B9606840B101202060294660685FEA8002A068154CA0472846BDE875
:20976000F08103E0B16851F8201009B9401EF9D13168471C21606168B94206D20D4D204640
:209780003946A847054680B909E0A068C91BDFF8208000EB87005FEA81020021C047B1680C
:2097A000A068054C5FEA8702A0472846BDE8F08189210380BD700080CD2103802DE9F0437F
:2097C00082B006469146B26D1F460C4609980A9992B10090019106F1D008154D414606F106
:2097E000AC0206F17C033046A84700B11DE0114D4046A847B84204D94BF28000CFF6FF7097
:2098000013E0B16D5FEAD10011F0070118BF401C20603046084DA847022807BF2268074CDA
:209820002268074C40464946A04702B0BDE8F083A9490080614500805D46008009930080AE
:20984000018F00802DE9F041A1B08046D8F8D80000256FF03B0610B96FF03F0030E02C4644
:20986000474621E0D7F8EC00012808BF012500202090D7F8E000D7F8DC6020AB80226946E3
:20988000B0470646B8B9209B63B1E1B240460E4E6A46B047064690B9D7F8E40020990844DC
:2098A000C7F8E4001437641CD8F8D8008442D9DB0DB96FF03C06054C80216846A0473046B4
:2098C00021B0BDE8F081C04601920080954700802DE9F04FC8B089469DF84811539C009122
:2098E00005A90191184D11469B46234606AA07469DF844A1DDF85081559EA847002820D10A
:2099000006A800905698CDF808800396019404900E4C384649465A465346A04788B90C4CEC
:209920009DF8142038464946A04750B9094C3846494642463346A04718B9074C38464946E6
:20994000A04748B0BDE8F08F25B4008071BA0080B574008039D10080A1C800802DE9F04F8F
:2099600090B082468B465FF000084646684642461021491E40F8042BFBD1DAF8000001282F
:2099800002D05FF0FF3026E00DEB880502242F4610353846DFF844901021C8477028F8D043
:2099A000641E08F10408F2D1761C0D4C08216846A04720B9DAF80C000099814201D30A2E95
:2099C000E2DB0A2E06DA5846064C20226946A047002000E0012010B0BDE8F08FE97B0280FF
:2099E000714B0080CD2103802DE9F04F9BB005460E4617469846DDF890A0DDF89490DDF86D
:209A000098B0154C01A8A047144C28460094144D31463A464346A8470546A8B9114D01A828
:209A2000A8472146104C202201A8A047054658B951464A460C4C01A8A047054620B9594674
:209A40000A4C01A8A0470546094C01A8A04728461BB0BDE8F08FC046D9430080E0250020CC
:209A600059F80080E5720080F5A40080F10B01803945008070B404460D46636806E05FEAEF
:209A80008300A168001F085810B95B1E002BF6D1696806E05FEA8100AA68001F105810B9A4
:209AA000491E0029F6D10BB9002926D08B421BD899422A6801D9504220E02068002803DD43
:209AC000002A01DA012019E0002A14DD002812DA5FF0FF3012E05FEA8301AA68091F565813
:209AE000A2685158B14201D9206807E0B14201D2404203E05B1E002BEDD1002070BC7047E7
:209B00002DE9F04F83B006468B46924698460C9F0D9C1146194DA847002805462AD1184D17
:209B200030464146A8470028054623D1154D3046A84702284BF28005CFF6FF7509D1009775
:209B40000194114D3046594652464346A847054680B9DFF830903046C84701280AD10E98A3
:209B6000009701940290094C3046594652464346A0470546284603B0BDE8F08F9D9F008069
:209B8000D17100805D460080890D0180F5FE00802DE9F04F04460F4691461D46DDF824B07F
:209BA000DDF828A01A4E0122B047002818BFBDE8F08F184E3846B047074604F10C08164ECE
:209BC000204641463A46B047002818BFBDE8F08F40463A46114E0121B047C4F85C9025664D
:209BE000206D40B9142F01D8102003E018201C2F88BF08302065204659465246084C012314
:209C0000A04708B1BDE8F08F0020BDE8F08FC04675CF008071410080F1C6008089210380DC
:209C200029BB00802DE9F04F82B004460F46934699469DF82C2000929DF830A00D9D1C4EF6
:209C4000302301AAB04700282ED1206801990844B84225D06FF0650026E0206810F8016BC5
:209C6000206016EA0B00484502D06FF061001BE020463946DFF83C8001AAC047A0B9009824
:209C800016EA0000504507D135B122680E98019B3146A84700B107E02068019908442060B9
:209CA0002068B842D9D3002002B0BDE8F08FC04691510080C5B00080F0B5044660680B461B
:209CC0005FEA5117002511F01F01874204D8874207D113F01F0F04D020461B4C2946A0471F
:209CE000F0BDB7B1C01B2E4610D0A068F21950F8222040F82620761C6068C01B8642F4D341
:209D000004E0A068002240F82620761C60688642F7D313F01F0F14D0676810E05FEA870225
:209D2000A068121F83587F1E33FA01F68650A06886582E438650D1F1200013FA00F5002F38
:209D4000ECD10020F0BDC0464D6600802DE9F0410446D81D96465FEAD002D3EBC2052368B3
:209D60000F468B4203D3561CD81BB04203D26FF06B00BDE8F08192B1581E2060521E012015
:209D800010FA05F0401E1EF80210814303F8011C2068801A20607146DFF83880C0472068EB
:209DA0003946401E206005700B4D20463246A8470028B8BFBDE8F081064420463946074C75
:209DC0000322A0470028B8BFBDE8F0813018BDE8F081C046CD2103801DD200807548008041
:209DE0002DE9F04F01265FEA92020446DDF824A0DDF828800B9DDDF830B0DDF83490DDF8DF
:209E00003CE0109F40F8046F4260816023B126615FEA9A016161A361E6615FEA950121629B
:209E2000C4F82480254645F84C6F11995FEA91016960AF605FEA9901A662E162C4F830B038
:209E400066635FEA9E01A1630E99084FE163266407496664A164B847A0652846034DA847B1
:209E6000E06526660020BDE8F08FC046A5530080602000202DE9F04791B000280C461E4643
:209E80000546174618BF002CDDF864A0DDF8688018BF002E02D0B8F1000F04D149F600706E
:209EA000CFF6FF7020E0DFF848906846C8472946104D6846A847054690B921463A460E4CC4
:209EC0006846A047054658B9314652460B4C6846A047054620B94146094C6846A0470546B6
:209EE000084C6846A047284611B0BDE8F087C046B94300800566008041760080B5D5008080
:209F000051CA0080DD5E00802DE9F04F9A46DAF8006083460F2E1446099FDDF82890DDF81A
:209F20002C8084BF6FF02000BDE8F08F00292CD114E0641E2EB958463A463B46164D0121E8
:209F4000A8473946895D19F8010B3A4690EA010108F8011B9055761C16F00F06002CE8D101
:209F600015E0641E2EB958463A463B460A4D0121A8473846805D19F8012B3946504008F8D5
:209F8000010B8855761C16F00F06002CE9D1CAF800600020BDE8F08F154B008070B51F4C6F
:209FA00005460E46A04702281AD130461C4C0021A047002826D13046194C0121A0470028F5
:209FC00020D1184C3046A047E96D401E884219D1FE291CD13046124C0221A047B8B111E01B
:209FE0000E4C2846A047012813D130460E4C0121A047002806DB0D4C05F14C013046A047CA
:20A00000002804DB4BF28030CFF6FF7070BD002070BD4BF28000CFF6FF7070BD5D4600805D
:20A02000094F0080A55300807D5C0080759A00802DE9F043002A05460E4614463CD0D5E9B2
:20A04000001011F07F07D7F1800909194FF000025041C5E90010D5E90001914208BFA0422B
:20A0600006D2D5E90201401C41F10001C5E90201CFB14C4517D305F1500808EB0700104F65
:20A0800031464A46B8470F4F28464146B8474E44B4EB0904002706E0DFF8288028463146B9
:20A0A000C0478036803C802CF6D22CB122465035034CE8193146A0470020BDE8F083C046FD
:20A0C000CD2103809D9C0180F0B5ADF5017D04460E46694600228020401E41F8042BFBD1EF
:20A0E0001746809230461C4D6A4680A9A84770B98098B0F5007F0AD86846224604E010F801
:20A10000011B7F1C02F8011B80998F42F7D3701C114D6A4680A9A847054698B98098B0F5B3
:20A12000007F0FD8C4F824060020694604F5017304E011F8012B401C03F8012B809A90420F
:20A14000F7D300E0112504F5C560044CA04755EA00000DF5017DF0BD2969002015520080C5
:20A160002DE9F04706461D48002400788A4601289146089D27462DD015F0010F09D0DFF8A1
:20A180006080184F4046B847174F40462146B847074615F0020F08D036B13146134E10484F
:20A1A0005246B047074300E0FF2415F0040F0ED06CB9B9F1000F0A4D05D00D4E284649466B
:20A1C000B047074300E0FF2428460A4DA84717B1FF2400E090242046BDE8F087AD55002064
:20A1E0004824002029430080B9B9008031A00080195501804D4500802DE9F04F06464DF8BD
:20A20000081D9246DAF8005099461D4400274F4502D36FF007002FE0CDF804803146009A80
:20A22000174C01A8A04700288346DDF8048022D130463246009B134C0021A0478346D0B9AC
:20A240006D1EB8F10A0F34BF08F1300008F1370028707F1C30460C4C0021A0470028D6D18D
:20A26000DAF80000094C29463A46A047DAF800003844CAF80000584602B0BDE8F08FC04657
:20A280009D8A0080455B00807D5C0080752203802DE9F04182B015461F46089E009000EB2A
:20A2A000010841461C4C302301AA6846A0470028044625D1009801990844404504D04BF297
:20A2C0008000CFF6FF7023E041462A46134C6846A0470446A0B905F10C0241460F4C6846A5
:20A2E000A047044660B9414632460D4C6846A047044628B941463A46094E6846B04710B138
:20A30000B4F59F4004E005F11800064C0121A04702B0BDE8F081C04691510080D553008090
:20A32000955400804D6600802DE9F04783B005460E4690461F46DDF82C90DDF830A01B4C8A
:20A340006846A0474FF0000477B12946184C01226846A0470028044620D138464146154CA9
:20A360006A46A0470446C8B9B9F1000F0DD031460F4C01226846A047044678B948464146CB
:20A380000C4C6A46A047044640B9BAF1000F05D0094C504631462A46A0470446074D6846F7
:20A3A000A847204603B0BDE8F087C04659440080AD5B00805D8600802D3A01808555008029
:20A3C0002DE9F04706461D48002400788A4601289146089D27462CD015F0010F08D0DFF841
:20A3E0006080184F4046B847174F4046B847074615F0020F08D036B13146144E10485246BB
:20A40000B047074300E0FF2415F0040F0ED06CB9B9F1000F0A4D05D00D4E28464946B047A9
:20A42000074300E0FF2428460A4DA84717B1FF2400E090242046BDE8F087C046AD550020F2
:20A4400024270020D9430080E5720080F5A40080F10B0180394500802DE9F0478AB00546B8
:20A460000C4616469A465FF0FF0802A900220820401E41F8042BFBD105F5AA794846164F61
:20A4800002A9B84780B90094019605F1A80005F59873124C202202A9A047002818BF0120B9
:20A4A000CAF800005FF000080D4C4846A0470D4C05F1A800A0470C4C05F59270A0470B4C45
:20A4C00005F59870A0472846094CA5220021A04740460AB0BDE8F087F10B0180194A008045
:20A4E000394500800191008085550080D14F0080892103802DE9F043002A05460E461446B9
:20A500003FD0286810F03F070119D7F14009A142296002D26968491C696010F03F0F19D0B5
:20A520004C4517D305F1280808EB0700164F31464A46B847154F28464146B8474E44B4EB8C
:20A540000904002706E0DFF8448028463146C0474036403C402CF6D22CB12835E8190A4DA2
:20A5600031462246A847301936F00F0650F00F004AF21011CEF2080101E00E6010368642B7
:20A58000FBD30020BDE8F083CD2103809DC300802DE9F047884206460C4604BF0020BDE827
:20A5A000F0875042C0B2024361681E4F3046C2F3C019D9F10005B847002882462ED171680B
:20A5C000184F2046B8470028824627D1D6F800802168154F40464A46B8473060124F4146FF
:20A5E0004A462068B8472060002314E0B068A26850F8237052F8232037EA05012A4011433E
:20A6000040F823102F40A06850F82310A943394340F823105B1C70688342E7D35046BDE801
:20A62000F087C046BD7000803D4800802DE9F04381B015460746686888460C46A0B1A86878
:20A64000282100781D4CB0FBF1F301FB03F1401A00901B4A38464146A04700281EDB404570
:20A660001CD2B8EB00040744002301261DE033F07E40984212D1A868805D10F07F0110F0A8
:20A68000800F01EBC3130FD1DFF830900D4A38462146C847002801DBA04202D36FF00A0083
:20A6A00008E0241A07440023761C68688642DED3B8EB040001B0BDE8F083C04615230380FA
:20A6C000A0CB018024CB01802DE9F04189B004460D46164601A900200822521E41F8040BF9
:20A6E000FBD104F1800004F160073946DFF868802022C047804601AB0822F878B97850EABF
:20A700000120797850EA014017F8041B50EA0160521E43F8040BF0D1B8F1000F12D1306835
:20A7200040280AD301A8009005F1200204F1400329460A4D0120A84710B15FF0FF0801E07D
:20A74000402030602046064CCC220021A047404609B0BDE8F081C046016D008075710080AC
:20A76000892103802DE9F04F83B006460F46904699460C9DDDF834B0DDF838A01A4C6846AB
:20A78000A0473146194C00226846A04720B14AF68074CFF6FF741FE0154C6846A0470028E5
:20A7A000044619D139464246124C6846A047044690B949462A460F4C6846A047044658B98E
:20A7C000594652460B4C6846A047044620B90F99094C6846A0470446084D6846A8472046FF
:20A7E00003B0BDE8F08FC0463943008075CF0080E18100809D73008089720080AD9600800C
:20A800002DE9F04383B006460D4617469846DDF8289010461C4C0021A04718B91B4C2846E9
:20A82000A0472CE03846184C0121A04720B9184C28464146A04722E03846134C5FF0FF31C3
:20A84000A04788B9124C28464146A0470746B8B90C3528460C4C0021A04788B10D4C311DE9
:20A8600028462A46A0470AE00020CDF8089000900190094C304629463A464346A047074614
:20A88000384603B0BDE8F0837D5C0080C5540080495C0080D1770080019B00802DE9F0412D
