:0200000480007A
:204000000020002075CF028075CF028075CF028075CF028075CF028075CF028075CF0280F6
:2040200075CF028075CF028075CF028075CF028075CF028075CF028075CF028075CF028050
:2040400075CF028075CF028075CF028075CF028075CF028075CF028075CF028001000000F5
:204060000100000001000000C911000001000000931A000001000000D103000001000000E0
:20408000800000000000000000000000000000008430ECDF3900826D3A4C437D9AC87E557E
:2040A000C2E1C44D8E82D3D53751F33E59E0BF856A640ADCA19D4AD2FF7BEAC8AEAD5C4A23
:2040C000FA8983D33D67F8AA2F1B77043066D3A386D351DCCDBA156AF9963DE39DA9FC92E1
:2040E00009EFE6A77509E734167FC2597F8AC8140101000000000000020000000200000007
:2041000001657047406870474068704741617047416570478161704781657047C1617047FF
:0741200058222EF0A1BC03A0
:064128004FF0010070479A
:0641300068222EF099BC8C
:064138006C222EF089BC90
:06414000D0222EF091BC1C
:1A4148000048704730D601800048704750ED0180A1EB00014FEAD17070475C
:0A41640008B900207047006870479A
:0A41700008B900207047007A70477C
:0A417C0008B9002070474068704742
:0A418800C0F8A410C0F8A82070478A
:2041940010B5014CA04710BD5D61018010B5014CA04710BD316A018010B5014CA04710BD5E
:2041B40075B3008010B5014CA04710BDE176018010B5014CA04710BD018E008010B5014CBE
:2041D400A04710BDF105018010B5014CA04710BDD169008010B5014CA04710BDB9B9008068
:2041F40010B5014CA04710BD9D9C018010B5014CA04710BD31A0008010B5014CA04710BD4E
:204214001955018010B5014CA04710BDB16F008010B5014CA04710BD415A008010B5014C42
:20423400A04710BD9591018010B5014CA04710BD8190008010B5014CA04710BD25E5008068
:2042540010B5014CA04710BD9D64008010B5014CA04710BD154B008010B5014CA04710BD97
:2042740019DF008010B5014CA04710BDBD12018010B5014CA04710BD1164008010B5014CCF
:20429400A04710BD6D67008010B5014CA04710BD5549008010B5014CA04710BD45980080FB
:2042B40010B5014CA04710BDB9CD008010B5014CA04710BDC545008010B5014CA04710BD08
:1242D400C1500080C06D0421042898BF0221084670474A
:0E42E80008210022491E40F8042BFBD170472C
:0E42F80009281EBF0D280120704700207047C6
:20430800082251F8043B521E40F8043BF9D1704710B50968014CA04710BDC0461D4A018056
:2043280010B5024CD0220021A04710BD8921038010B5024C0C220021A04710BD892103802B
:2043480010B5024C0223A04710BDC0468191008010B5024C0023A04710BDC04661BD008043
:2043680010B5024C0023A04710BDC04629BB008010B5024C0122A04710BDC04675CF00802D
:2043880010B5024C0A23A04710BDC0468191008010B5024C00F5C560A04710BD21BE008049
:2043A80010B5024C00F5C560A04710BD21BE008010B5024C44220021A04710BD892103803A
:2043C80010B5024C58220021A04710BD8921038010B5024C68220021A04710BD89210380A7
:2043E80010B5024C6C220021A04710BD8921038010B5024C5FEA8101A04710BD9547008024
:20440800024800680028FBD17047C04664200020426F002112B1806F00B901210846704729
:2044280010B5024C80220021A04710BD8921038010B5024C8030A04710BDC04621BE0080E1
:2044480010B5024C8030A04710BDC04621BE00804FF001014FF0000280E8060082607047EF
:2044680010B51346014C0A22A04710BD0190008010B51346014C0222A04710BD0190008084
:20448800302824BF00207047401C5FEA500070471044002302E000F8013B521C8A42FAD3C2
:0244A80070475B
:1244AC00C0F1000140EA01004FEAD070C0F10000704740
:1244C0001C310822521E50F8043B41F80439F9D1704785
:1244D4001C310822521E50F8043B41F80439F9D1704771
:1244E8001C310822521E51F8043940F8043BF9D170475D
:2044FC0010B5002808BF10BD014C8021A04710BD9547008010B5002808BF10BD014C5821DA
:20451C00A04710BD9547008010B5002808BF10BD014C6C21A04710BD9547008010B5002817
:20453C0008BF10BD014C6821A04710BD9547008010B5002808BF10BD014CD021A04710BD72
:20455C009547008010B5034CA047C01D5FEAD00010BDC046A553008010B513460A46024CEB
:20457C002821A04710BDC046C57C008010B5002808BF10BD014CA04710BDC046A556008058
:20459C0010B513460A46024C1421A04710BDC0460192008010B500234DF8043D014CA0479F
:2045BC0001B010BD0DE1008010B500234DF8043D014CA04701B010BD55D00080024A108052
:2045DC00024801707047C0469C550020A155002010B5034C5FF48C720021A04710BDC046E0
:2045FC008921038020B94BF28000CFF6FF707047806D5FEAD0007047891A0023104403E037
:0E461C0000F8011B5B1CDBB28B42F9D3704728
:16462C00016821B949F60070CFF6FF7070470021416208467047D2
:1646440080EA0100C0F1000140EA01004FEAD07080F00100704777
:16465C00016B09B900207047C06BD0F1010038BF0020401C70472C
:2046740030B5034C0546A047024C2846A04730BD054700805923038030B50446034D642260
:204694000021A84742F21070A06530BD8921038030B5044C0546A047024C05F58C70A04791
:2046B40030BDC046ED4500800022082100E0012250F8043B002BFAD1491EF9D11046704738
:2046D40010B5044C00F5AA70A04708B9002010BDFF2010BDF5A4008010B5044C00F5AA70E4
:2046F400A04708B9002010BDFF2010BDF5A4008010B5002808BF10BD024C5FF48C71A04706
:2047140010BDC0469547008010B5B2F5C07F034C88BF4FF4C072A04710BDC046855F008082
:2047340010B582B0049C0094059C0194014CA04702B010BDD5B4008010B582B0049C00941D
:20475400059C0194014CA04702B010BD596F008010B582B0049C009400240194014CA047FC
:2047740002B010BDBD62008010B582B0049C009400240194014CA04702B010BD01B9008036
:2047940010B500290A4608BF10BD02490C680021A04710BD08CB018010B54DF8043D1346A7
:2047B400024C1622A04701B010BDC046056C008010B54DF8043D1346024C1322A04701B044
:2047D40010BDC046056C008010B54DF8043D1346024C0C22A04701B010BDC046056C008085
:2047F40030B50446034DE8220021A8470020A060207030BD8921038010B51830034C0021C5
:20481400A047D0F1010038BF002010BD7D5C008010B50C46236800F1AC01D31A2246014CBC
:20483400A04710BDA55E008000F1010020EA420001F1010101EA420140EA0100A0F1010010
:024854007047AB
:1A48580080EA0102A0EB010020EA020001EA020140EA01004FEAD0707047F8
:1A4874000368591A0129BCBF6FF06B007047591E016003F8012C012070474E
:1A4890005FF00042002110EA020304D15FEA5202491C2029F7D3084670476E
:1A48AC000023834201D0934204D149F60070CFF6FF7070471160184670476F
:2048C80030B407E011F8014B12F8015B5B1E6C4000F8014B002BF5D130BC704710B5054C37
:2048E800A04720B14BF28010CFF6FF7010BD002010BDC0461D4A018030B5054D0C46A847D7
:2049080010B96FF02D0030BDC0682060002030BD0959008030B5054D0C46A84710B96FF016
:204928002D0030BDC0682060002030BD3D59008030B5054D0C46A84710B96FF02D0030BDD0
:20494800C0682060002030BD715900804DF8040D00206A46042112F8013B5FEA00201843FB
:20496800491EF8D101B0704710B583B0059C0094069C0194079C0294014CA04703B010BD46
:20498800099F008010B583B0059C0094069C0194079C0294014CA04703B010BD7185008020
:2049A80010B583B0059C0094069C019400240294014CA04703B010BDC587008010B583B059
:2049C800059C0094069C019400240294014CA04703B010BD019B008010B583B0059C0094AC
:2049E800069C019400240294014CA04703B010BD39A9008010B583B0059C0094069C019444
:204A080000240294014CA04703B010BD710A018010B583B0059C0094069C01940024029406
:204A2800014CA04703B010BD99FD008010B5102A03461CBF6FF0430010BD024C0846194617
:204A4800A04710BD7DEB008030B5054D0C46A84710B96FF02D0030BD00692060002030BD02
:204A68009D57008030B5054D0C46A84710B96FF02D0030BD00692060002030BDD157008062
:204A880030B5054D0C46A84710B96FF02D0030BD00692060002030BD0558008030B5054D4A
:204AA8000C46A84710B96FF02D0030BD00692060002030BD3958008030B5054D0C46A847EC
:204AC80010B96FF02D0030BD00692060002030BD6D58008030B5054D0C46A84710B96FF0B1
:204AE8002D0030BD00692060002030BDA158008030B5054D0C46A84710B96FF02D0030BD6B
:204B080000692060002030BDD558008010B501290CBF034C034C11461A46A04710BDC04621
:204B28005D610180316A0180D0F8382112B16FF033007047B1F5C07F02D8016100207047ED
:064B48006FF0370070471A
:1E4B5000891A1044802200F8012B0122002303E000F8013B521CD2B28A42F9D37047EC
:1E4B7000012250B1002908DB05E003680BB1002203E0001D491E0029F7DC1046704759
:1E4B900030B4002306E010F8014B521E11F8015B6C402343002AF6D1184630BC7047ED
:204BB00010B58368012B03D1044C0C30A04710BD4BF28000CFF6FF7010BDC046D95900807F
:204BD00010B518B103680BB1836823B94AF60070CFF6FF7010BD014CA04710BD9D73008007
:204BF00030B50028054608BF30BD044C2846A047024C05F58C70A04730BDC046054700800A
:204C100010B584B0069C0094079C0194089C029400240394014CA04704B010BD710701807A
:204C300030B5064C0546A047044C05F10C00A047024C05F11800A04730BDC046594400806F
:204C500010B408E003780C78A34201D0012005E0491C401C521E002AF4DC002010BC70470F
:204C700010B5012986460CBF034C044C104619467246A04710BDC046898801807D7F0180C9
:204C900030B50028054608BF30BD034C2846A047024C2846A04730BDF14B00805923038009
:204CB00070B5064E0D461446B04710EA05016FEA0000204051EA000070BDC046AD4400802F
:204CD00030B50446054D5FF4A0720021A8475FF0FF30206142F21070E06130BD89210380C0
:204CF00006494A6842B10A68824204BF4868704708314A68002AF6D100207047C0EC018070
:204D100030B45B4208E00D6852F8044B9D431C402C4341F8044B401E0028F4D130BC7047EB
:204D300070B48C1A0123002604E0D5186D1E46555B1CDBB2A342F8D3084400F8014C70BCE7
:024D50007047AA
:204D540000F0FF014FEA016100F47F4241EA02214FEA102202F47F4241EA020141EA1060C6
:024D7400704786
:204D780030B5064C0546B830A047044C05F18800A047034C05F19400A04730BD855500800E
:204D9800D14F008010B582B08E46144604990093019100F1280172462346024CA04702B052
:204DB80010BDC0467560008010B585B0079C0094089C0194099C02940A9C03940024049415
:204DD800014CA04705B010BD958B008030B5064C5FF40C710120A047054610B1034C28468D
:204DF800A047284630BDC046E5210380A546008030B581B00546054C6846A04700B103E084
:204E1800034C00992846A04701B030BD016800801D4A0180F0B504460D461746044EAC220F
:204E38000021B0472046034C29463A46A047F0BD892103808941008030B5074C0546A04729
:204E580004E00168A94208BF30BD0C3001680029F7D1002030BDC0465141008030B5074C5B
:204E78000546A04704E08188A94208BF30BD0C3001680029F7D1002030BDC04651410080A1
:204E9800F0B585B00A9C0B9D0C9E0D9F00930194029503960497024C0123A04705B0F0BDCE
:204EB8005D21018070B5074E0C461546B04710B96FF02D0070BD01692160406928600020FF
:204ED80070BDC0467159008030B401230AE00C680568A54201D2002306E0A54204D1091DC5
:0E4EF800001D521E002AF2DC184630BC704726
:204F080042685FEA42128A429CBF0020704780685FEA511250F8220011F01F0130FA01F00A
:064F280010F001007047CB
:204F300030B587B00A9C0D9D00940B9C039501940C9C05950294049400240694014CA0472B
:204F500007B030BD991D018030B50028044608BF30BDA068044DA8476069034DA8472046A5
:204F7000024C2021A04730BD592303809547008030B585B00B9C089D0095099D01950A9D85
:204F900002955FF0FF3503950494024CA04705B030BDC0465D21018010B509680E2905D198
:204FB000054C0649B8301022A04710BD4BF28010CFF6FF7010BDC046216A008080200020D4
:204FD00030B50028054608BF30BD064C2846A047044C05F10C00A047024C05F11800A04792
:204FF00030BDC0468555008010B4054C208005480170054802700548037010BC7047C046D9
:205010009A5500209E5500209F550020A055002010B585B09646012201920292039201AAD5
:20503000049200930A467346024C02A9A04705B010BDC04679C9008030B5074C5FF48C717C
:205050000120A047054608B9002030BD034C2846A047284630BDC046E5210380ED450080DF
:2050700030B50028044608BF30BDA068012803D1044D04F10C00A84700202070A06060605F
:2050900030BDC046355E008070B5044608E0E5682046054E1021B0472046044CA0472C4666
:2050B000002CF4D170BDC046954700805923038030B5064C0546A047054C05F17C00A0474E
:2050D000044C05F18800A04730BDC0469968008059440080314C008030B50028044608BF5F
:2050F00030BD054D2046A8472046044D6421A84742F21070A06530BDAD960080954700801C
:2051100070B5054607E0A06928602046044EB0472046044CA0472C68002CF4D170BDC04693
:20513000594F00805923038070B40024C6180DE09C4201D2157805E09C4202D18025357007
:2051500001E000250570401C521C641C8C42EFD370BC704770B500220270012282604160A8
:2051700000F10C06044D30460C46A8472146034C3046A04770BDC046FD5D0080E548008047
:2051900030B504680D1B012DBCBF6FF05F0030BD25789D421CBF6FF0610030BD641C04604A
:2051B000014CA04730BDC046C5B0008010B5864614464DF8043D084672462346054C012170
:2051D000A04710F10E0F04BF4BF20030CFF6FF7001B010BD15E3008030B51C4603688B42E1
:2051F00002D3591AA14202D26FF06B0030BD1B1B0360034D114622461846A847204630BDA1
:20521000CD21038030B504460C30074D40220021A8470025256065602046044CA04708B90F
:20523000284630BDFF2030BD89210380E16C028070B587B00B9E0C9C00960E9E0D9D0196CB
:205250000F9E04940296109E0024039605950694014CA04707B070BD1118018010B4094BE8
:205270001C69844205D11868086058681060002005E053F8144F002CF2D16FF02D0010BCEB
:205290007047C046F8E7018010B4094B1C69844205D11868086058681060002005E053F840
:2052B000144F002CF2D16FF02D0010BC7047C046F8ED018010B4094B1C69844205D1186858
:2052D000086058681060002005E053F8144F002CF2D16FF02D0010BC7047C046ACE801805A
:2052F00070B505460024C5F8D84005F1DC002146044E5FF4C872B047284640F8084B024CDF
:20531000A04770BD8921038029430080F0B504460D46164609E06068B04205D1A068054FDD
:2053300029463246B84710B1A469002CF3D12046F0BDC04605220380F0B504460D46164658
:2053500009E06068B04205D1A068054F29463246B84710B1A469002CF3D12046F0BDC046AB
:205370000522038070B45FEA5106B1F5807F039C049D18BFB1F5007F02D06FF01F0006E098
:125390001E602E60106000EBD6002060002070BC70474B
:2053A40030B544680CB9002030BD03E0816851F8241009B9641EF9D18068044D50F824008A
:2053C400A847D0F1200000EB441030BD9148008070B581B006461546074C02236A46A04768
:2053E40040B93168054C009A2846A0473168009A1144316001B070BD91510080216A008073
:2054040070B581B0084E059C356800942B44074DA84700284FF0070004D1306821680844A8
:205424003060002001B070BD1C2500205531018070B581B0084E059C356800942B44074D31
:20544400A84700284FF0070004D13068216808443060002001B070BD1C25002055310180B3
:2054640030B582B0059C069D41B1012904D049F60070CFF6FF7006E0012100E0002100945D
:205484000195024CA04702B030BDC04699F4008070B505461646121D084C0423A047002806
:2054A40018BF70BD716811B96FF05F0070BD2968B160296872681144296070BD91510080DC
:2054C40030B50546094C0121A047002818BF30BD05F10C00054C0121A047002818BF30BD06
:2054E40005F11800014C0021A04730BD4D66008070B583B004460E460146084D0C226846B7
:20550400A84720463146054C0C22A0473046034C0C226946A04703B070BDC046CD21038075
:20552400F0B581B0044616461D46074FB84700B108E0009504F17C0104F188022046034C5F
:205544003346A04701B0F0BD1D4A01809D4D008070B504460E46084D0022A8470028B8BF6F
:2055640070BD054620463146044C0522A0470028B8BF70BD281870BD1DD20080754800808F
:2055840030B50028044608BF30BDA06828B16168054DA847A068054DA8470120002184E81A
:2055A4000300A16030BDC046F94300805923038030B40A4C6569854208D125698D4205D15A
:2055C4002068106060681860002005E054F8185F002DEFD16FF02D0030BC7047E4F6018050
:2055E40010B590F8A100002302280CD1074800685FEA101E06D0441E095D102902DC401A52
:20560400106000E00723184610BDC04618250020F0B400240FE052F8046B53F8047B351BF4
:20562400A64234BF01240024BD4238BF641CED1B41F8045B401E0028EDD12046F0BC70471F
:2056440070B5054670B1084CA047044607E0A068064E2946B04708B9204670BD0C3420686B
:205664000028F4D1002070BD51410080B521038010B48968202309688A1C12F0040201EB7E
:20568400420202245FEA5303082B01FB124402FB04F2F6D26FEA0201491C016010BC704718
:2056A40030B50028054608BF30BD064C2846A047054C05F17C00A047044C05F18800A047D4
:2056C40030BDC0460191008085550080D14F008070B506461446094D0323A84700B170BDB3
:2056E400206820B1401E20603068017811B16FF0670070BD401C3060002070BD915100800E
:2057040070B583B08668079C012E089D07D100940195002402940C30044CA04703E04BF279
:205724008000CFF6FF7003B070BDC046BD97008070B50021814206460ED0084D686858B196
:205744006868074CC0683146A04708B9686870BD083568680028F3D1002070BDC0EC01806B
:20576400B52103800948016871B90949094A0B6833B151F8083B42F8043B0B68002BF8D180
:2057840000211160012101600248704724250020C0EC01803826002070B50546094C70B1F5
:2057A4006A686068904206D12068A968064EB04708B9204670BD54F8140F0028F0D10020F2
:2057C40070BDC046ECF701800522038070B50546094C70B16A686068904206D12068A968C2
:2057E400064EB04708B9204670BD54F8140F0028F0D1002070BDC04634EC01800522038010
:2058040070B50546094C70B16A686068904206D12068A968064EB04708B9204670BD54F8D7
:20582400140F0028F0D1002070BDC046F8E701800522038070B50546094C70B16A6860687B
:20584400904206D12068A968064EB04708B9204670BD54F8140F0028F0D1002070BDC046B8
:20586400F8ED01800522038070B50546094C70B16A686068904206D12068A968064EB04707
:2058840008B9204670BD54F8140F0028F0D1002070BDC046DCE301800522038070B50546AB
:2058A400094C70B16A686068904206D12068A968064EB04708B9204670BD54F8140F00285C
:2058C400F0D1002070BDC046ACE801800522038070B50546094C70B16A686068904206D1C8
:2058E4002068A968064EB04708B9204670BD54F8140F0028F0D1002070BDC04648E8018010
:205904000522038070B50546094C70B16A686068904206D12068A968064EB04708B92046A5
:2059240070BD54F8100F0028F0D1002070BDC04624E901800522038070B50546094C70B171
:205944006A686068904206D12068A968064EB04708B9204670BD54F8100F0028F0D1002054
:2059640070BDC04628DB01800522038070B50546094C70B16A686068904206D12068A96800
:20598400064EB04708B9204670BD54F8180F0028F0D1002070BDC046E4F6018005220380B0
:2059A400F0B5D0F8D8600025142E059C02DB6FF03D050DE000F1DC0E142706FB07E6316036
:2059C4007260F3603461D0F8D810491CC0F8D8102846F0BD70B50C4615464DF8041D00F110
:2059E400AC011346074E6A46B04700B108E00098001BA8421ABF4BF28000CFF6FF70002081
:205A040001B070BDA55E0080F0B5002908BFF0BD05465FEA8101091F44180AE02868064E77
:205A2400B04706462068044FB84745F8040B44F80469AC42F2D2F0BD9D4200804FF0000152
:205A44000160416042F20132C6F2457282604AF68932CEF6CD72C2604DF6FE42C9F6BA026A
:205A6400026145F27642C1F2320242610846704730B50028044608BF30BD084D04F12000CC
:205A8400A8472046064D5FF4A071A84742F21070E0615FF0FF30206130BDC0460547008054
:205AA4009547008030B400210A4644680FE00023856855F8225035FA03F515F0010F01D0BA
:205AC400084607E05B1C491C202BF1D3521CA242EDD3002030BC7047F0B588B00D9C0E9D9C
:205AE4000F9F109E0096DDF844E0CDF804E00296CDF80CE004940595069700240794024CE9
:205B0400A04708B0F0BDC046412F018070B518B1016809B1046C24B949F60070CFF6FF70FD
:205B240070BD0025256204F11000044E1021B0472046024C1021A047284670BD9547008046
:205B440010B584B01C46002BB8BF5C4203945FEAD37393F001035FEA43035B1E009301233A
:205B6400019303AB0293024C6B46A04704B010BDB146018010B584B01346002AB8BF5342E3
:205B840003935FEAD27292F001025FEA4202521E00920122019203AA0292024C6A46A047EE
:205BA40004B010BD1575008010B584B01346002AB8BF534203935FEAD27292F001025FEADD
:205BC4004202521E00920122019203AA0292024C6A46A04704B010BDD1770080F0B581B080
:205BE4000D4614461E46084F04216846B847042C2846064D694688BF04242246A84734606D
:205C0400002001B0F0BDC046E97B0280CD21038030B40B4B5C6884B15C68E5692D68854204
:205C240007D1A5688D4204D16568954201D1204604E008335C68002CEED1002030BC70476A
:205C4400C0EC018070B50B4D04460E46A847002818BF70BD074D04F10C0006F10C01A84795
:205C6400002818BF70BD04F11800024C06F11801A04770BD3597008010B584B00A460029B7
:205C8400B8BF4A4203925FEAD17191F001015FEA4101491E00910121019103A90291024C96
:205CA4006946A04704B010BD759A008030B50A4C05467C30A047084C05F18800A047064C16
:205CC40005F1B800A047054C05F19400A047034C05F1C400A04730BD59440080314C008072
:205CE400FF230360B2F13003092B98BF0360B2F14103052B9CBFA2F137030360B2F16103AE
:205D0400052B9CBF573A02600068884224BF6FF00500704700207047F0B50B4E04460D465F
:205D24001F46B047002818BFF0BD2946064D04F10C003A46A847002818BFF0BD04F118006C
:205D4400024C0121A047F0BD41FC00804D660080F0B586B0D0F8A8700B9C0C9D0D9EDDF8C0
:205D640038E007B100E0274600940195029603975FF0FF340494CDF814E0024CA04706B0E8
:205D8400F0BDC0462927018030B584B085689646012D079A089C0AD100930192029400226D
:205DA400039210F80C2B7346044CA04703E04BF28000CFF6FF7004B030BDC046A5890080F2
:205DC40030B584B085689646012D079A089C0AD10093019202940022039210F80C2B734624
:205DE400044CA04703E04BF28000CFF6FF7004B030BDC0466170008030B50A4C0546A0472F
:205E0400094C05F17C00A047084C05F18800A047064C05F1AC00A047034C05F1D000A04740
:205E240030BDC0469968008059440080314C008030B50A4C0546A047094C05F17C00A047B5
:205E4400084C05F18800A047064C05F1AC00A047034C05F1D000A04730BDC04601910080A9
:205E640085550080D14F008070B5044618B1206808B1A56825B94AF60070CFF6FF7070BDAF
:205E8400054E2046B04700B170BD20682946427A2046024CA04770BDE18100809D73008083
:205EA40070B5022B1D4608D31468264616F8013B166013B16D1EAB4204D94BF28000CFF60B
:205EC400FF7070BD641CE51815602246014CA04770BDC0460DE2008030B50028054608BFD3
:205EE40030BD286C28B1084C2421A047286C074CA047E86B18B12968C9698C6AA0472846CC
:205F0400014C4421A04730BD954700805923038030B505462868B0F1FF3F08BF30BD084CF5
:205F240005F10800A0470020C5F8D80005F1DC00044C5FF4C871A0475FF0FF30286030BD3B
:205F44004D45008095470080F0B581B086460C4616461D4608467146074FB84700B108E029
:205F6400009504F17C0104F188022046034C3346A04701B0F0BDC0461D4A01809D4D0080CC
:205F840030B58CB005460AB900200EE0084C6846A047044620B92846064C6946A047044614
:205FA400054D30216846A84720460CB030BDC0461D030180B1AB00809547008070B582B058
:205FC4001C46069E079B23B94BF28000CFF6FF700EE0751C00955B1E01932346054DA8477D
:205FE40000B105E0206830702068401C2060002002B070BD21DE008070B581B00546164600
:206004000B4C01236A46A04700B10EE00098012802D06FF0630008E0286810F8011B0029B1
:2060240018BF012131602860002001B070BDC0469151008070B50D4D04460E46A84778B9A7
:206044000A4D04F10C0006F10C01A84740B904F11800064C06F11801A04708B9002070BD94
:206064004BF28000CFF6FF7070BDC046759A00802DE9F04782B00B4D0A9E0B9C8A461F460E
:2060840023469046114632468146A84738B900960194054C4846394642465346A04702B004
:2060A400BDE8F087FD6D0080C549008070B503F1070E5FEADE0ED3EBCE0593B102EB0E0411
:2060C40014F8016D56FA05F515F0010E4FEA550507D15B1E05D013F0070FF5D114F8015DE2
:2060E400F2E7014CA04770BD4D9D008030B50C4D286890B90B4CA0470B4900220B4604E0F8
:2061040050F80C4B521C43F8044B0468002CF7D1002041F8220001202860034830BDC04622
:206124002825002051410080002600202DE9F043814615461F46002688460A4C3046394687
:20614400A047094C414602464846A047002818BFBDE8F083761CAE4208F10C08EDD3BDE8B0
:20616400F083C04645460080A5760080F0B50446D4F828010B4E0D461746B04787421CBF74
:206184006FF4A040F0BD04F5B770074C29463A46A04720B14AF6FE70CFF6FF70F0BD002042
:2061A400F0BDC04671410080052203802DE9F04305466C688946A06817461E4658B1DFF86C
:2061C400288010210120C047E060040004BF6FF06900BDE8F083A7606660C4F800906C60EE
:2061E4000020BDE8F083C046E5210380F0B583B004460D4617460C4E0C2200216846B047B4
:20620400204629463A46094C6B46A04700B109E00098052800D008B9019810B16FF0670028
:2062240000E0002003B0F0BD892103801DB00080F0B585B0D0F8A4700A9C0B9D0C9E37B1EA
:20624400012F09D04BF60070CFF6FF700CE0009401950296054C06E000270097019702947B
:2062640003950496024CA04705B0F0BD95CE0080EDFA008070B50D4C054608460E46A047B5
:20628400E96DC91DB0EBD10F05D83046084C0021A047002804DA4BF28030CFF6FF7070BD40
:2062A4002A68044C3046291DA04770BD614500807D5C0080C9B200802DE9F04783B00D4DD4
:2062C4000B9C17461E461A46234680468A46DDF83090A84750B90096CDF808900194064C8C
:2062E4003946524608F128034046A04703B0BDE8F087C046FD6D0080019B00802DE9F041D0
:206304000C465FEA9101164614F003020A4F0546984618BF491CB847002818BFBDE8F08115
:2063240014B90020BDE8F0812146044C284632464346A047BDE8F08195660080ED7B0080D0
:20634400F0B500680E4F0C4616461D46B84720B94BF28000CFF6FF70F0BD0321032D216073
:2063640004D24BF20010CFF6FF70F0BD06F8011B81885FEA11213170808870700020F0BD21
:20638400514E0080F0B584B0D0F8A4E0099CBEF1000F0A9D0B9E0C9F07D0BEF1010F07D0EA
:2063A4004BF60070CFF6FF7008E00094044C01E00094044C019502960397A04704B0F0BD53
:2063C40089D70080814F0080F0B584B0D0F8A4E0099CBEF1000F0A9D0B9E0C9F07D0BEF180
:2063E400010F07D04BF60070CFF6FF7008E00094044C01E00094044C019502960397A0478D
:2064040004B0F0BDCDD40080555D008030B586B0044603A8009005A80190084611460A4DEA
:2064240004AB02AAA84760B9084D059A039904F58C70A84700B104E02046044C049A0299FD
:20644400A04706B030BDC04675530080BD12018070B50D4C06460D46A047044678B90B4C3A
:2064640006F17C0005F17C01A047044638B9084C06F1880005F18801A047044610B1054D7A
:206484003046A847204670BD1943008035970080495C008089450080F0B596B004460E46DC
:2064A40017460A4D6846A847094D6846A84721463246084C6846A0473946074C6846A04765
:2064C400064C6846A047002016B0F0BDC9430080415A00808190008025E5008011450080A6
:2064E400F0B59AB004460E4617460A4D6846A847094D6846A84721463246084C6846A047FF
:206504003946074C6846A047064C6846A04700201AB0F0BDD9430080E5720080F5A4008006
:20652400F10B01803945008070B50446206878B1102A04D949F68070CFF6FF7070BD436969
:2065440013F0010F01D0154607E00569954204D949F60070CFF6FF7070BD2DB1034E04F1BB
:2065640028002A46B047A563002070BDCD210380F0B50E4C06460F46A0470028024610DBE0
:206584000B4D304639461446A8470028024608DB144430463946074D0622A84700280246E6
:2065A40001DA1046F0BDA018F0BDC046E95100801DD2008075480080F0B50E4C06460F4688
:2065C400A0470028024610DB0B4D304639461446A8470028024608DB144430463946074DEB
:2065E4000422A8470028024601DA1046F0BDA018F0BDC046E95100801DD200807548008063
:2066040070B505460E4621B949F60070CFF6FF7070BD28460A4C44220021A047F069446A8F
:20662400A04700218142E86304D149F68060CFF6FF7070BD2E602846024CA047002070BD6D
:206644008921038019950080F0B505460E460E4C0121A0470746A0B968680C4C5FEA80029B
:20666400A8680021A047002E3046A968B8BF704208605FEAD67090F001005FEA4000401EC1
:2066840028603846F0BDC046BD7000808921038070B505460C4619B90C4C2846A0470AE038
:2066A4006868A04209D15FEA8402A868084C0021A04701202860002070BD044E2846B04762
:2066C4002146044C2846A04770BDC0468555008089210380BD7000802DE9F0410026174679
:2066E40005464DF8046D0B4CDFF82C80226811446A46C0474FF0070820B920680099B046E7
:2067040008443860054C2846A047404601B0BDE8F081C0461C25002029DD0080DD5E0080F6
:206724002DE9F0410026174605464DF8046D0B4CDFF82C80226811446A46C0474FF00708CC
:2067440020B920680099B04608443860054C2846A047404601B0BDE8F081C0461C25002007
:2067640029DD0080DD5E008030B586B0044603A8009005A80190084611460A4D04AB02AA9F
:20678400A84760B9084D059A039904F58C70A84700B104E02046054C049A0299A04706B057
:2067A40030BDC04675530080BD12018019DF008030B4002484420B46154601D0AC4204D1C4
:2067C40049F60070CFF6FF7016E02C60591E08440FE010F801192246002918BF01210C43A3
:2067E40094422A6808BF002103FB01F10A432A605B1E002BEDD1002030BC704730B5032A47
:20680400044606D30A68104610F8013B032B086004D04BF28000CFF6FF7030BD5378921C84
:206824000A60084D12F8010B0A6050EA0320A84720B94BF28010CFF6FF7030BD006820601A
:20684400002030BD754E008070B50F4D04460E46A84788B90D4D3046A84768B90C4D04F167
:20686400080006F10801A84730B904F11400084C06F11401A04720B14BF60060CFF6FF703E
:2068840070BD002070BDC0461971008095940080759A008070B50646002540F8045B0E4CAB
:2068A400A0470D4C06F11000A0470B4C06F11C00A0470A4C06F12800A047074C06F14C0063
:2068C400A047B565F56535667566B566F56635677567B56770BDC04659440080314C00808C
:2068E4006FF002010844072813D8DFE810F0080012000A000C0012000E0012001000064845
:2069040070470648704706487047064870470648704700207047C046E8CF0180F4CF01804F
:2069240000D0018018D001800CD0018010B5C8B10268BAB152686FF002031A44052A11D895
:20694400DFE812F0060010000900090010000C004068074C04E04068064C01E04068064C72
:20696400A04710BD4AF60070CFF6FF7010BDC04695910180E17601809D9C0180F0B50E4676
:206984005FEA9201174612F003020F4C054618BF491CA0470346A0B9002210E0AC6812F020
:2069A400030116F8010B5FEAC10132F0030E10FA01F154F80E00521C084344F80E00BA4222
:2069C400ECD31846F0BDC046956600802DE9F0419BB006460F4690461D460B4C6846A04710
:2069E40029460A4C6846A04731463A46084C6846A0474146074C6846A047074C6846A04702
:206A040000201BB0BDE8F081E943008075B30080018E0080F1050180254500802DE9F04364
:206A24005FEA9205894612F003010D4C0746904618BF6D1C2946D2EB8506A047044660B9C0
:206A4400B8F1000F09D0B86849463044054E4246B047B8682946044DA8472046BDE8F0835F
:206A640095660080CD2103800D5A008010B587B00468012C10D10A4C03910094094C049062
:206A840001940124029405920693074C074B084A08490948A04701E041F2020007B010BD58
:206AA40048DD0180A8DC01804123018048DE018088E00180E8DA018068DC0180F0B586B0CF
:206AC40004460E480D46D0E900010D4FCDE90401049305921046002110221E46B847002094
:206AE400009001900748F3B2029004A803902046054C2946FF22A04706B0F0BD38CC018096
:206B040089210380B1610080259C0080F0B581B005460E4617463068121A31460C4C68465E
:206B2400A04798B90B4C00992846A04700B10DE0A868012806D1084C05F10C0031463A46D9
:206B4400A04703E04BF28000CFF6FF7001B0F0BD016800806551008025480080F0B501F175
:206B640018070E4D0E460446021D38463946A847002818BFF0BD0A4D3A4630463146A8478F
:206B840018B92146074C3046A047002818BFF0BD3846054C0121A047F0BDC0462D3A0180EA
:206BA4001DE4008091AD00804D6600802DE9F04192B004461E46189D199F02A85FF0000EB4
:206BC40010235B1E40F804EBFBD161B922B9DFF828802046C04720B94AF28000CFF6FF7068
:206BE40007E002A902460095019720463346034CA04712B0BDE8F081714100801194008046
:206C04002DE9F04190461A460F4C069B05460E46A0470028024611DB0C4F2846314614467B
:206C2400B8470028024609DB2846094D314614445FFA88F2A8470028024602DA1046BDE861
:206C4400F081A018BDE8F081E95100801DD200807548008030B504460D4600205FEA521E30
:206C6400A16851F82020D2F1FF3241F82020401C7045F5D90020A1685FEA800251F82030A5
:206C84005B1C41F82030401CA168895809B97045F1D95FF0FF302060A0686D4250F82E102E
:206CA400294440F82E1030BDF0B504460F461646114D0323A84700B1F0BD306810B96FF0CF
:206CC4005F00F0BD401E306020680078307130790728C4BF6FF06300F0BD2068401C2060E7
:206CE400B060316820680844B84220601CBF6FF06500F0BD0020F0BD91510080F0B504462F
:206D040020686368104E1844206020460D461746B0474FF0FF0600B90026E81935F00F0578
:206D240050F00F004AF21011CEF2080101E00D6010358542FBD304F10C00044C40220021DE
:206D4400A0473046F0BDC046F59C02808921038070B5012A04460D4606D104F1AC000F4C1F
:206D640005F18801A04770BD22B14BF28000CFF6FF7070BD094E04F1880005F18801B04741
:206D8400002818BF70BD04F17C00054C05F17C01A04700B170BD002070BDC046495C008051
:206DA4003597008070B5044620680D46411A0129BCBF6FF06B0070BD411E21600AB1FF2187
:206DC40000E0002100F8011C20462946084E0122B0470028B8BF70BD461C20462946054C00
:206DE4000122A0470028B8BF70BD301870BDC0461DD20080754800802DE9F041104C0546A4
:206E04000E4617469846A047022805D1E86D31463A4643460B4C0AE0094C2846A04701280F
:206E240008D105F14C0031463A464346064CA047BDE8F0814BF28000CFF6FF70BDE8F0815D
:206E44005D4600804D870080BD5100802DE9F041114C0E46376805469046A04730B90F4C46
:206E640028463946A04730B1BDE8F0810A4C2846A047B8420AD1A868012807D1084C05F168
:206E84000C0031464246A047BDE8F0814BF28000CFF6FF70BDE8F0810941008065510080DF
:206EA400556D0080F0B586B0D0F8A4E00B9CBEF1000F0C9D0D9E0E9F07D0BEF1010F0AD08F
:206EC4004BF60070CFF6FF7011E00094019502960397084C0AE05FF0000ECDF800E0CDF877
:206EE40004E00294039504960597034CA04706B0F0BDC0467D140180E119018010B4019CB9
:206F040050EA012050EA024043F60041CEF60001086054F0005454F4806454EAC37443F67D
:206F24000440CEF600000460012043F60841CEF60001086043F60C40CEF60000016811F45A
:206F4400803FFBD1006810B141F2030000E0002010BC70472DE9F04F9346DBF800408246B7
:206F64000F2C0D469846099F0A9E16D96FF02000BDE8F08F6D1E34B9504642464346DFF8C9
:206F840028900121C8474146095D17F8010B641C484006F8010B14F00F04002DEAD1CBF828
:206FA40000400020BDE8F08F154B00802DE9F041B4B006460F4690461D460D4C6846A047F6
:206FC40029460C4C6846A047044648B931463A46094C6846A0474146084C6846A04704466B
:206FE400074D6846A847204634B0BDE8F081C04629430080B9B9008031A000801955018018
:207004004D450080F0B515461E464DF8080D47183946104C302301AA6846A047A8B90098D6
:2070240001990844B84204D04BF28000CFF6FF700DE039462A46084C6846A04728B9394682
:207044003246054C6846A04708B1B0F59F4002B0F0BDC04691510080D55300802DE9F047D5
:2070640082B005468A46A96D16461C46DDF828900B9B0C9821B94BF28000CFF6FF7013E056
:20708400009005F188080A4F424605F17C012846B84700B108E0CDF804900094054C2846D0
:2070A400414632465346A04702B0BDE8F087C04665470080C15F0080F0B5044642F210700A
:2070C40081420E4608D86068B04219D230460D4D0421A847074610B96FF00F00F0BDA168F2
:2070E40061B16068084D5FEA80023846A847A0686168064DA847A068054DA8476660A760FC
:207104000020F0BDE5210380CD210380F94300805923038070B50022114D11460446A847B4
:20712400B8B904F108060F4D3046A847802810D3143420460C4D0021A84750B1094D2046B7
:20714400A847022805D32046084C3146A047002804DB4BF60060CFF6FF7070BD002070BDCC
:2071640071C00080A5530080094F0080759A00802DE9F041ABB000291746319D0E4641F2FE
:2071840010041EBF002F002B002D15D00090002401941946DFF82880202213A8C0472946F4
:2071A40023462246074C6846A047044620B931463A46054D6846A84720462BB0BDE8F081B2
:2071C400CD210380716A008029CB008070B504460E4601F11800104D0121A84720B14BF222
:2071E4008030CFF6FF7070BD0C4D2046A847022803D1204631460A4C07E0084D2046A8470A
:20720400012804D120463146064CA04770BD4BF28000CFF6FF7070BD7D5C00805D4600808F
:207224007962008055000180F0B50023102A8E460646104601D1872708E0082801D11B27F5
:2072440004E049F60070CFF6FF70F0BD411E0EEB01027418157853EA450304F8013912F87D
:2072640001395FEAD313491EF4DA9EF80010401E5FEAE1114942C9B20F40315C794031540D
:207284000020F0BD10B5F0B10268E2B152686FF002031A44072A16D8DFE812F00B00150036
:2072A4000E000E0015001100150008004068084C07E04068074C04E04068074C01E0406825
:2072C400064CA04710BD4AF60070CFF6FF7010BDF10B018025E50080F10501801955018086
:2072E4004FF000010160416041F26F62C7F2803282604BF2B922C4F61412C26044F2D722AE
:20730400C1F22472026140F20062CDF68A22426143F2BC02CAF66F12826143F6AA02C1F268
:207324003162C2614EF64D62CEF28D32026240F64E62CBF2FB02426208467047F0B581B09E
:2073440006460020B168096811F0010F14D005460E4F15E057F825100D4C3046A04700283F
:2073640001DC012010E0314657F82520094C6846A04748B9009911B96FF00D0004E06D1CE9
:2073840057F825100029E5DC01B0F0BD7CFD01807D5C00809D8A008010B5F0B10368E3B1BE
:2073A4005B686FF002042344072B16D8DFE813F00B0015000E000E001500110015000800D1
:2073C4004068084C07E04068074C04E04068074C01E04068064CA04710BD4AF60070CFF6E8
:2073E400FF7010BDF5A4008081900080018E008031A000802DE9F04F8BB0124C159D0F464E
:207404002946834690469946149EDDF85CA0A047A8B903AC0097CDF80480029433460A4EBA
:20742400584629464A46B04748B91698CDF804A000902146054C58462B462022A0470BB061
:20744400BDE8F08FD1710080E9990080194A0080F0B586B005460E461746124C102101A84E
:20746400A047286801AB846905A8009028460E4D22461946A847054660B9304622460B4DA2
:2074840001A9A847054628B92246084C38463146A0470546034C102101A8A047284606B00C
:2074A400F0BDC04695470080553101802D720080F0B583B005460C461746104E6846B047BE
:2074C400291D0C3422460E4D6846A847054670B920460C4D0021A847002820460A4C6946EC
:2074E40014BF07F0010207F00002A0470546074C6846A047284603B0F0BDC04659440080B7
:20750400D17700807D5C0080A5760080855500802DE9F04104460D4617462E68386806FBD9
:2075240000F0002814DADFF8408028463946C047002802DB29460D4D0CE02A460B4D2046CE
:207544003946A847002818BFBDE8F081764208E02946074D20463A46A847002818BFBDE8C8
:20756400F0812660BDE8F0812580008001C2008035B600802DE9F04793B006461B9C0DF196
:207584000C08CDF8048000940F4CDDF870A0DDF874901E9D1F9FA047044668B90B4C304645
:2075A400A047CDF8009001950297094C5346414602463046A0470446064D40214046A847CF
:2075C400204613B0BDE8F087B16B0080714100803DF20080954700802DE9F04F4DF8040DDE
:2075E4000F469B469DF828A0CAF345090025144615E04D45DFF83C80384621460CBF012679
:2076040000263246C04790B932460A4E07F10C0004F10C01B04750B924346D1CEDB25D4580
:20762400E7DB0098044C39465FEADA12A04701B0BDE8F08FA5760080B574008030B50546B8
:2076440090B12868002818BF00290DD02846114C0123A04700B130BD2868006802281EBFDD
:2076640003280428242804D049F60070CFF6FF7030BD094C24210120A04720B949F6806025
:20768400CFF6FF7030BD2864044C1021A047002030BDC046A97A0080E52103809547008036
:2076A4002DE9F0430D465142C9B20A436968DFF84880C2F3C0177E420446C0478146C0B982
:2076C40020682968DFF834803A46C04720603B460B4FA1686868AA68B847686806E0A16877
:2076E40051F82020B24341F82020401C61688842F5D34846BDE8F083BD7000803D48008080
:20770400114D00802DE9F0438646089C002014F0010F0D4616469846DDF81C9003D00E4F5C
:207724000E487146B84714F0020F05D020B929460B4D0A483246A84714F0040F05D020B931
:20774400084C064841464A46A047002808BFBDE8F083FF20BDE8F0839D7D00803028002035
:2077640039440080C9A600802DE9F04382B005461F46DDF82490DDF828800B9E0F4CA047FD
:20778400C8B90F4C2846A047A8B900960D4C284639464A464346A04768B930680A4C08EB75
:2077A4000001284601AAA04700B104E03068019908443060002002B0BDE8F0832D65008025
:2077C4002D4600805531018029DD00802DE9F04104460D4617462E68386806FB00F0002895
:2077E40014DDDFF8408028463946C047002802DB29460D4D0CE02A460B4D20463946A847B3
:20780400002818BFBDE8F081764208E02946074D20463A46A847002818BFBDE8F08126607C
:20782400BDE8F0812580008001C2008035B600802DE9F04191B006460F461546114CA04793
:207844000068114CA047422D804604D94BF20034CFF6FF740DE038462A460C4C6946A047F4
:20786400044630B9304641462B46094C6A46A04704462946074D6846A847204611B0BDE801
:20788400F081C04649410080E5680080018F00805182008095470080F0B590B004460E4654
:2078A40018B1206808B1A16821B94AF60070CFF6FF701DE0407A0F4D0F1820466946A847B5
:2078C400B0B90D4D2046A84790B920680B4D427A20463946A84758B92168084D0A7A2046FA
:2078E4006946A84700B103E02046024C3146A04710B0F0BD89720080E18100809D730080E6
:2079040030B500218142044620D0114D11482146A84710B9104C032016E00D4D0F482146FD
:20792400A84710B90C4C05200EE0094D0C482146A84710B9084C062006E02146044C0948EF
:20794400A04718B9044C0820A04730BD002030BDB521038028CB0180E568008000CC01802B
:2079640008CC018010CC018010B5002823D00368002B18BF00291ED00A68E2B193421AD128
:2079840052686FF002031A44052A14D8DFE812F0060013000A000A0013000E0040684968DC
:2079A400084C06E040684968074C02E040684968064CA04704E04AF60070CFF6FF7010BDD4
:2079C400002010BD2141008039410080414100802DE9F04184B0CC69FF25032C0F684A68AC
:2079E4008B68CE68D1F820E0D1F82480896A19D8DFE814F00400090009000E000096019129
:207A04000A4C39460CE0009601910294084CF8E70092019302960391714642463B46054C4D
:207A2400A0470546284604B0BDE8F08109770080317D0080C1820080F0B40026864203460C
:207A44000C46154601D0AE4204D149F60070CFF6FF7024E080222E60601E034413E0187880
:207A6400314600282F6818BF012006438E4208BF0020641E04FB00F10F432F6013F801195C
:207A840001FB00F14A40002CE9D1002A49F60061CFF6FF7114BF0120002000FB01F0F0BCDA
:027AA400704729
:207AA80030B5802A05461CBFC42AB2F5807F04D049F6E060CFF6FF7030BD286800281FD05A
:207AC800446914F0020F02D18068904218D1012B6A60AB6007D02A685068032818BF042816
:207AE80001D0052805D128686A68C069C469E86B04E02BB9D0696A68046AE86BA04730BD37
:0A7B080049F60070CFF6FF7030BDA3
:207B14002DE9F041ABB000291746319C329E0D4618BF002F41F210021EBF002B002C002E8C
:207B340019D00090012001901946DFF8348020221BA8C04721460A4C202223A8A0473146E8
:207B54002A463B46074C6846A047024618B9064C6846A047024610462BB0BDE8F081C046A3
:207B7400CD210380716A008091EC00802DE9F041164C05460F461646A04702284BF280189D
:207B9400CFF6FF7812D1286809280FD1202E05D24BF20010CFF6FF70BDE8F0810C4C05F107
:207BB4007C0039463246A047804658B9074C2846A047012806D1074C05F17C00394632461C
:207BD400A04780464046BDE8F081C0465D46008009930080018F00802DE9F0475FEA9106C6
:207BF400044611F003006068174699468A4618BF761CD1EB8608B0423CBF6FF00300BDE8A8
:207C1400F0874246A0680D4D0021A8476168A068891B0A4D00EB86005FEA81020021A847C6
:207C3400A168484641445246B847054618B9A068034C3146A0472846BDE8F08789210380F5
:207C54000D5A0080F0B40B46114600228242054601D08A4204D149F60070CFF6FF7025E052
:207C740028465A1E865C9F1B9E420F608CBF01200020D6F1010138BF0021084300210AE05C
:207C940015F8012B7240B9422CBF0124002402FB04F21043491C9942F2D3002849F60061A3
:207CB400CFF6FF7118BF012000FB01F0F0BC70472DE9F0410C46012615461F464DF80C6DF6
:207CD4004168806801910290DFF8448000216846C04720B131460E4E6846B04710B96FF0F9
:207CF4000D0012E00A4E02216846B04728B1094E6846B04718B1012807D1002005E0214646
:207D14002A463B46044C6846A04703B0BDE8F0817D5C008041730080FD1001802DE9F04748
:207D34008646099C002014F0010F0D4616469846DDF820A0DDF8289003D00F4F0F4871469C
:207D5400B84714F0020F05D020B929460C4D0B483246A84714F0040F06D028B9094C074859
:207D7400494642465346A047002808BFBDE8F087FF20BDE8F087C046F1EF0080B82D0020A7
:207D9400994300809DF9008070B5ADF5017D05466A4600238020401E42F8043BFBD11E4653
:207DB40080930846114C6A4680A9A047A0B98098B0F5007F10D81124684605F1400107E0B3
:207DD400027801F8012B027802B10024401C761C809A9642F4D300E0112405F18000044D1C
:207DF400A84754EA00000DF5017D70BD296900201552008070B5ADF5017D05466A46002399
:207E14008020401E42F8043BFBD11E4680930846114C6A4680A9A04798B98098B0F5007F9C
:207E34000FD811246846294607E0027801F8012B027802B10024401C761C809A9642F4D377
:207E540000E0112405F18000044DA84754EA00000DF5017D70BDC0462969002015520080B9
:207E74002DE9F04786460A9C002014F0010F0D4616469846DDF820A0DDF8249003D00F4F1F
:207E94000F487146B84714F0020F05D020B929460C4D0B483246A84714F0040F06D028B9AE
:207EB400094C0748414652464B46A047002808BFBDE8F087FF20BDE8F087C046097E008020
:207ED400302800204944008079AF008070B40B46114600228242044601D08A4204D149F6B4
:207EF4000070CFF6FF7025E020465D1E425D9E1A9A420E608CBF01200020D2F1010238BFFA
:207F1400002210430021012B0BD0B14214F8012B2CBF0123002302FB03F21043491CA942BE
:207F3400F3D3002849F60061CFF6FF7118BF012000FB01F070BC7047F0B50446E06D154F03
:207F5400C01DB3EBD00F4FEAD0000D4688BF0346084611461A461E46B8470746B8B9E06D54
:207F74005FEAC601814205D90B4E091A2846B047074660B94C34094E28462146B04700282A
:207F940005DB2246064C28462946A04707463846F0BDC046216A0080B99C0080759A008082
:207FB400D1770080F0B50446E06D154FC01DB3EBD00F4FEAD0000D4688BF0346084611465A
:207FD4001A461E46B8470746B8B9E06D5FEAC601814205D90B4E091A2846B047074660B9C7
:207FF4004C34094E28462146B047002805DB2246064C28462946A04707463846F0BDC046C6
:20801400216A0080B99C0080759A0080D177008030B405460B466C6806E05FEA8400A968FD
:20803400001F085810B9641E002CF6D1586806E05FEA80019A68091F515811B9401E0028DC
:20805400F6D104B9B8B184420BD8A0420DD810E05FEA84009968001F0A58A968085890422D
:2080740001D9012008E0904202D25FF0FF3003E0641E002CECD1002030BC70472DE9F04787
:2080940085B08246894614461F460D9EDDF8388022E0641E3946134D10226846A847504641
:2080B4003A463B46104D0121A847B9F1000F04BF30788DF81000387816F8011B4840B9F178
:2080D400010F08F8010B08BF8DF810003846054D10220DF10101A847002CDAD1002005B077
:2080F400BDE8F087CD210380154B00802DE9F041044600205FEA511611F01F07002A1546F2
:208114001EBF012D6FF00300BDE8F08162685FEA42128A420CD815B90020BDE8F081DFF8D6
:2081340038802046711CC047002818BFBDE8F081A168012212FA07F351F826209A4341F88D
:208154002620A16815FA07F351F826201A4341F82620BDE8F081C046BD7000802DE9F04F2A
:2081740081B086460C9C002014F0010F0D4616469846DDF828B0DDF82C90DDF834A003D0CB
:208194000E4F0F487146B84714F0020F05D020B929460C4D0A483246A84714F0040F08D02E
:2081B40038B9CDF80090084C0548514642465B46A04700B1FF2001B0BDE8F08FC9A000808F
:2081D400B82D0020A9430080DDCC008010B5002826D00168002923D049686FF00202114420
:2081F40007291DD8DFE811F00B001C000F0013001C0017001C00080040680C4C01E0406855
:208214000B4CA04710BD40680A4C012106E04068084C002102E04068074C0021A04710BD6A
:208234004AF60070CFF6FF7010BDC046E5720080415A008075B30080B9B900802DE9F0439E
:2082540005460F4691461C46134E0122B047002818BFBDE8F083114E3846B04705F10C08C1
:208274000F4E414602462846B047002818BFBDE8F0830A4E3846B04702464046094E01212E
:20829400B0472246084C28464946A04708B1BDE8F0830020BDE8F08375CF00807141008034
:2082B400F1C6008089210380B9CD00802DE9F04786460B9C002014F0010F884692461F4641
:2082D400089EDDF824900A9D06D04246DFF83C800F4853467146C04714F0020F05D020B952
:2082F40032460C4E0A483946B04714F0040F05D020B9094C064849462A46A047002808BF93
:20831400BDE8F087FF20BDE8F087C04685040180FC2B0020D546008031E600802DE9F04122
:2083340005460C461746666800E0761E36B15FEA8600A168001F08580028F6D007B12EB922
:2083540028460E4C0021A047BDE8F081DFF830802846711CC047804660B9DFF828802846CE
:208374002146C047804628B9AA68A168064C30467B1EA0474046BDE8F081C0464D6600809C
:20839400BD70008035970080A16E01802DE9F0410546069C0E461746984644B9144C2846B2
:2083B4003146A0470028B8BFBDE8F08104463A46104F284631464346B8470028B8BFBDE8BC
:2083D400F08104440C4F284631462246B8470028B8BFBDE8F081044428463146074D3022A1
:2083F400A8470028B8BFBDE8F0812018BDE8F08155550080756500801DD200807548008047
:2084140030B595B004466068112801D2002029E062680120103A122A009003A80290A16890
:2084340088BF12220192104D40315FEA8202A8470E4D09216846A847A0B9A068002250F8A3
:20845400401FC1F308010160112003E0A16841F82020401C61688842F8D320462146044C1E
:208474006A46A04715B030BDCD210380B99C008035B600802DE9F04F86460D9C002014F000
:20849400010F884693461F46099EDDF828A0DDF82C900C9D06D04246DFF83C800F485B4645
:2084B4007146C04714F0020F05D020B932460C4E0A483946B04714F0040F06D028B9094C6A
:2084D400064851464A462B46A047002808BFBDE8F08FFF20BDE8F08F11E00080FC2B0020AD
:2084F400ED46008059A400802DE9F04F4DF80C0D002902928A462AD05FF000088346BAF133
:208514000100019083440298124CBAEB00004146A047009C0746651CBAF1010F0BD0019E44
:208534002178DFF83490384615F8012BC847761E04F8010BF4D19BF800103846064C002237
:20855400A04708F10108D0458BF80000DBD303B0BDE8F08F59410080B14C00802DE9F04F15
:2085740083460D464DF8042D104604689A460F2C0A9FDDF82C800C9E20D96FF0200022E02A
:208594006D1E8CB9584652463B46DFF840900121C8470AF10F0010210278521CD3B202704E
:2085B40013B9401E491EF7D13946095D18F8010B641C484006F8010B14F00F04002DDFD147
:2085D40000980460002001B0BDE8F08F154B00802DE9F041ADF5007D044615461E46684699
:2085F40000278022521E40F8047BFBD11248076008463946DFF844806A46C047A8B9DFF893
:2086140040802046C0472046DFF8388010226946C04704F191011020401E15F8012B01F8F5
:20863400012BF9D184F8A16000E0072738460DF5007DBDE8F081C046182500207974002022
:2086540029440080354A0080F0B506460D4617461046164C0021A0470028BCBF6FF00900AE
:20867400F0BD31462A463B46114C0020A04704E0104C3A4630463146A047050013D130467A
:208694000A4C0021A0470028F2DB06E00A4C3A4630463146A047054628B9084C304639466E
:2086B400A0470028F2DA2846F0BDC0467D5C0080B146018015750080D1770080759A008078
:2086D4002DE9F041ADF5007D044615461E46684600278022521E40F8047BFBD1124A1760DA
:2086F4000846DFF848806A460121C047A8B9DFF840802046C0472046DFF838801022694665
:20871400C04704F191011020401E15F8012B01F8012BF9D184F8A16000E0072738460DF5F6
:20873400007DBDE8F081C046182500207974002029440080354A0080F0B55FEAD004641CF4
:20875400184D06460F4608462146A847002818BFF0BDD6EBC401144C3846491EA0470028D5
:2087740018BFF0BD38463146104C0122A047002818BFF0BD00220D4C38461146A0470028FB
:2087940018BFF0BD3846094C00220121A04700280CBFFE2EF0BD3846044C00220221A0477D
:2087B400F0BDC04601630080B99C0080018100802DE9F04F8CB006468B4617469946DDF878
:2087D40054A0DDF85880179C124D03A8A847CDF800A0CDF80480029430464A463B460E4C13
:2087F40003A9A047044668B90C4C03A8A04720B14BF28004CFF6FF7404E05846084C03A931
:20881400A0470446074D03A8A84720460CB0BDE8F08FC046314C0080019B00800D480080EB
:2088340035970080D14F008030B50028054608BF30BD1A4C05F18C00A047184C05F198006B
:20885400A047164C05F16800A047144C05F12000A047124C05F13800A047104C05F12C0028
:20887400A0470E4C05F11400A0470C4C05F10800A0470A4C05F18000A047084C05F1740004
:20889400A047064C05F15C00A047044C05F15000A047024C05F14400A04730BD855500801F
:2088B4002DE9F04184B0804608468669076841688268C3680469C56940695FF0FF0EF6B2B1
:2088D40010B1012806D010E000910192029303950F4D04E000910192029303950D4D404612
:2088F400214632463B46A847864604F1100034F00F0450F00F004AF21011CEF2080101E0B7
:208914000C6010348442FBD3704604B0BDE8F081118C0080098D00802DE9F04184B080460B
:2089340008468669076841688268C3680469C56940695FF0FF0EF6B210B1012806D010E0C1
:2089540000910192029303950F4D04E000910192029303950D4D4046214632463B46A847F2
:20897400864604F1100034F00F0450F00F004AF21011CEF2080101E00C6010348442FBD341
:20899400704604B0BDE8F0818D8C0080858D00802DE9F04784B005468A46A96D91461F462A
:2089B4000C9E0D9B0E9821B94BF28000CFF6FF7023E0009005F18808114C424605F17C016F
:2089D4002846A047C8B928463A4633460D4C02A9A04790B902980C4C0744361A0097019657
:2089F400284641464A4603ABA04700B105E0029803990844CAF80000002004B0BDE8F0877F
:208A14006547008045630080C15F008010B500282DD040686FF002042044072827D8DFE8FE
:208A340010F0080026000D0013002600190026002000084611461A460F4C16E00846114654
:208A54001A460E4C01230AE0084611461A460B4C002304E0084611461A46094C0023A04773
:208A740010BD084611461A46064CA04710BD4AF60070CFF6FF7010BD9D640080D16900801E
:208A9400B16F0080E564008070B403460E46144612B96FF00B0033E0002C02DA6FF0090086
:208AB4002EE0012C01D1002028E0022C04D1B068006810F0010021E07568002017E0B268DA
:208AD4005FEA8501091F51585FEA004050EA1140B0FBF4F202FB14005FEA01415FEA004018
:208AF40050EA1140B0FBF4F101FB14006D1E002DE5D13168002901DA00B1201A18600020A9
:208B140070BC7047F0B5044642F21070814217D86068884203D82046144CA047F0BD03E05F
:208B3400A26852F820200AB9401EF9D1461C8E420F4D38BF0E4630460421A847074610B929
:208B54006FF00F00F0BDA16859B10A4D38465FEA8602A847A0686168074DA847A068074DCE
:208B7400A8476660A7600020F0BDC046BD700080E5210380CD210380F943008059230380F0
:208B94002DE9F04F8DB0064692469846DDF85CB0189D199FDDF86890144C07A8A047134CBD
:208BB4000AA8A047CDF800A0CDF804800295039704950597CDF8189006F17C0330460C4C43
:208BD4000AAA07A9A047044630B9169A5B46094C0AA907A8A0470446074D07A8A847064D85
:208BF4000AA8A84720460DB0BDE8F08F59440080991D018085920080855500802DE9F047E7
:208C140081B000240C9D8E4615F0010F92461E46DDF82490DDF828800B9F09D00146124CEF
:208C3400124853467246A04708B9002400E0FF2415F0020F09D044B9009731460C4E0B48FF
:208C54004A464346B04700B1FF2415F0040F07D034B9084D054841463A46A84700B1FF24D4
:208C7400204601B0BDE8F087E58500808C2700204DE80080E5BB00802DE9F04781B0002479
:208C94000C9D8E4615F0010F92461E46DDF82490DDF828800B9F09D00146124C12485346D1
:208CB4007246A04708B9002400E0FF2415F0020F09D044B9009731460C4E0B484A46434659
:208CD400B04700B1FF2415F0040F07D034B9084D054841463A46A84700B1FF24204601B056
:208CF400BDE8F087D58600808C270020E5B60080E55500802DE9F04781B000240C9D8E46A2
:208D140015F0010F92461E46DDF82490DDF828800B9F09D00146124C124853467246A0472E
:208D340008B9002400E0FF2415F0020F09D044B9009731460C4E0B484A464346B04700B1CF
:208D5400FF2415F0040F07D034B9084D054841463A46A84700B1FF24204601B0BDE8F08761
:208D7400C9C70080CC26002005540080DD6600802DE9F04781B000240C9D8E4615F0010FED
:208D940092461E46DDF82490DDF828800B9F09D00146124C124853467246A04708B90024DE
:208DB40000E0FF2415F0020F09D044B9009731460C4E0B484A464346B04700B1FF2415F00C
:208DD400040F07D034B9084D054841463A46A84700B1FF24204601B0BDE8F08719C60080AA
:208DF400CC26002035540080256700802DE9F043002A04460E46154631D0206810F03F07FD
:208E14004119D7F14009A942216002D26168491C616010F03F0F19D04D4517D304F12808CC
:208E340008EB07000F4F31464A46B8470E4F20464146B8474E44B5EB0905002706E0DFF853
:208E5400288020463146C0474036403D402DF6D22DB12834E019034C31462A46A0470020DA
:208E7400BDE8F083CD210380E17601802DE9F0430F4619490546097800200129164699462C
:208E9400079C25D014F0010F03D0DFF850801448C04714F0020F08D038B92DB12946114DAC
:208EB4000F483A46A84700E0FF2014F0040F08D038B92EB10C4C0A4831464A46A04700E0A2
:208ED400FF20002808BFBDE8F083FF20BDE8F0839020BDE8F083C046AD550020155200804A
:208EF4008026002021BE0080016D0080F0B5054668685FEA800E96450AD277468C18B4EBFD
:208F14000E04B2EB0E020846174E0021B04715E017460C4610E0A86832F0030112F00303E1
:208F340040585FEAC30330FA03F010F0FF0F1CBF6FF00700F0BD521C7245ECD300260EE065
:208F5400AA6836F00303D25816F0030EB81B5FEACE0E32FA0EF22146401E0A54761CBE42A5
:208F7400EED30020F0BDC046892103802DE9F04788B005460F4690469946DDF840A0164C2B
:208F9400202200216846A04705F12006134C3046A047C5F83871C5F83C81A86908B93020EB
:208FB400A8612C69002C00DB03E0A8690C4CA047044630460B4E5FF480726946B04740B9C8
:208FD4002346094C284649465246A04700B100E0002008B0BDE8F08789210380ED450080DF
:208FF40089440080BD12018061BD008070B581B005461E4613461C4C6A46A04700B131E003
:209014000098D8B12868007810F0800F16D105E02868401C28600098401E0090009818B15D
:20903400286800780028F3D00098042806D8042807D12868007810F0800F02D06FF0630058
:2090540010E00020306007E02868316810F8012B52EA0122326028600098411E00280091EF
:20907400F2D1002001B070BD915100802DE9F043002A04460E46154631D0206810F03F077E
:209094004119D7F14009A942216002D26168491C616010F03F0F19D04D4517D304F118085A
:2090B40008EB07000F4F31464A46B8470E4F20464146B8474E44B5EB0905002706E0DFF8D1
:2090D400288020463146C0474036403D402DF6D22DB11834E019034C31462A46A047002068
:2090F400BDE8F083CD2103809591018070B50028054608BF70BD286E012812D0164C281D58
:20911400A047154C05F11000A047134C05F11C00A047124C05F12800A0470F4C05F14C00AE
:20913400A0470F4C2846A04780B9686F70B1002406E0686F2421094E04FB0100B047641C5F
:20915400A86F8442F5D3686F064CA0472846064C7C21A04770BDC04685550080D14F0080D5
:209174001944008059230380954700802DE9F04104460D461F4600262068411B01290FDB3C
:20919400761C411E216000F8012C5FEA2222F3DC2068017811F0800F0CD0411B012903DAF8
:2091B4006FF06B00BDE8F081411E2160002100F8011C761CDFF82C80204629463246C0473C
:2091D4000028B8BFBDE8F08106442046064C29463A46A0470028B8BFBDE8F0813018BDE84C
:2091F400F081C0461DD20080754800802DE9F04191B0402B054688461E4617460AD9104632
:209214001946174C002301AAA047002804461ED101AF402628688DF800808DF8016030B9E8
:2092340005F108000F4C0021A047044678B9012045F8080B28460C4C02226946A047044603
:2092540028B9094C284639463246A0470446074D402101A8A847204611B0BDE8F081C0469E
:20927400B16F0080B9B9008031A0008095470080F0B5A4B0044615461E466A460020232383
:209294005B1E42F8040BFBD10DF18B0023900A46144F694623A8B847002820DB07462246EC
:2092B400104C694623A8A047002818DB07443A460D4C694623A8A047002810DB07440B4C88
:2092D4003022694623A8A047002800DA07E00744074C239928463A46A0473760002024B024
:2092F400F0BDC0469DA800801DD2008075480080CD2103802DE9F0410546084669685FEACB
:209314008106964201D2374617E01746114612E0AB6831F0030E11F0030453F80E305FEACE
:20933400C40433FA04F313F0FF0F1CBF6FF00700BDE8F081491CB142EAD3002480460CE0DA
:20935400A96834F00303C95814F0030E5FEACE0E31FA0EF108F8011B641CBC42F0D3964204
:2093740004D23044921B034C0021A0470020BDE8F081C046892103802DE9F04385B08146DD
:209394000846C369FF22032BD0F800E0476805694169D0F81880046A466A806A24D8DFE856
:2093B40013F004000D000D0016000091CDF80480029071463A460E4C2B4612E00091CDF8AC
:2093D40004800290039371463A460A4CF4E7009701950291CDF80C80049021463246734628
:2093F400054C4846A0470246104605B0BDE8F083757E008071810080898400802DE9F04769
:2094140083B004460D4616469846DDF82C90DDF830A020B94AF60070CFF6FF7020E0124FDA
:209434006846B8472146114C01226846A047044690B9294632460E4C6846A047044658B92B
:2094540041464A460B4C6846A047044620B95146094C6846A0470446084D6846A8472046AF
:2094740003B0BDE8F087C0463943008075CF0080F1C60080D14B00809D780080AD96008018
:209494002DE9F04183B005461A4CA047002827D10122194C28461146A04708BB05F1140085
:2094B400009000200190029005F12C0605F1380705F12008114C05F1080031463A4643466F
:2094D400A04768B905F15000009005F15C0001900B4C304605F1440339464246A04720B1EE
:2094F4004BF60060CFF6FF7000E0002003B0BDE8F081C0461971008071C00080BD1B0180A0
:2095140019F7008002680023934202D05268022A04D049F60070CFF6FF70704704291AD800
:20953400DFE811F0050009000D00110015000D49C1600D490DE00D49C1600D4909E00D4948
:20955400C1600D4905E00D49C1600D4901E0C3600C49016104E049F68070CFF6FF70704715
:209574001846704715460080597C0080514B00803D7A0080314D0080E17E00809944008005
:20959400B5670080AD4800802DE9F04184B080460F4615461C46194E01A8B047009408F1BF
:2095B40004022B46164C022101A8A0470446B8B938463946134C01AAA04718B9124C3846B5
:2095D4004146A047044658B91837384639460D4C01AAA04718B90C4C38464146A047044618
:2095F4000A4D01A8A84714F10E0F04BF4BF20034CFF6FF74204604B0BDE8F081594400808D
:2096140015E300801DE4008091AD0080855500802DE9F0470746894616461D46089CDDF884
:2096340024A039B1DFF8688007F108004946C04700281DD12EB13146154E07F12C00B04729
:20965400B0B92DB12946124D07F13800A84778B92CB121460E4C07F12000A04740B9BAF150
:20967400000F09D00A4C07F114005146A04718B1B0F58140BDE8F087B9F1000F04D0054CE5
:2096940007F10800A04778600020BDE8F087C046359700806145008030B50028044608BF25
:2096B40030BD2168002908BF30BD6068D8B149686FF002021144072912D8DFE811F00A009D
:2096D40011000D000D0011000F00110008000E4DA84760680D4D02E00D4D00E00D4DA84741
:2096F40060680D4DA847A06840B121680B4D497A5FEA4101A847A068074DA8472046074C2A
:209714000C21A04730BDC0463945008011450080254500804D450080592303809547008003
:209734002DE9F0410025884204460E460CD0706868B9606840B101202060294660685FEA92
:209754008002A068154CA0472846BDE8F08103E0B16851F8201009B9401EF9D13168471C44
:2097740021606168B94206D20D4D20463946A847054680B909E0A068C91BDFF8208000EBCF
:2097940087005FEA81020021C047B168A068054C5FEA8702A0472846BDE8F081892103805E
:2097B400BD700080CD2103802DE9F04382B006469146B26D1F460C4609980A9992B10090EC
:2097D400019106F1D008154D414606F1AC0206F17C033046A84700B11DE0114D4046A8472A
:2097F400B84204D94BF28000CFF6FF7013E0B16D5FEAD10011F0070118BF401C2060304630
:20981400084DA847022807BF2268074C2268074C40464946A04702B0BDE8F083A94900800E
:20983400614500805D46008009930080018F00802DE9F041A1B08046D8F8D80000256FF015
:209854003B0610B96FF03F0030E02C46474621E0D7F8EC00012808BF012500202090D7F8CC
:20987400E000D7F8DC6020AB80226946B0470646B8B9209B63B1E1B240460E4E6A46B0472E
:20989400064690B9D7F8E40020990844C7F8E4001437641CD8F8D8008442D9DB0DB96FF0B2
:2098B4003C06054C80216846A047304621B0BDE8F081C04601920080954700802DE9F04FA4
:2098D400C8B089469DF84811539C009105A90191184D11469B46234606AA07469DF844A102
:2098F400DDF85081559EA847002820D106A800905698CDF808800396019404900E4C3846A0
:2099140049465A465346A04788B90C4C9DF8142038464946A04750B9094C3846494642463B
:209934003346A04718B9074C38464946A04748B0BDE8F08F25B4008071BA0080B5740080D2
:2099540039D10080A1C800802DE9F04F90B082468B465FF000084646684642461021491EA1
:2099740040F8042BFBD1DAF80000012802D05FF0FF3026E00DEB880502242F46103538466C
:20999400DFF844901021C8477028F8D0641E08F10408F2D1761C0D4C08216846A04720B99C
:2099B400DAF80C000099814201D30A2EE2DB0A2E06DA5846064C20226946A047002000E0B0
:2099D400012010B0BDE8F08FE97B0280714B0080CD2103802DE9F04F9BB005460E4617463F
:2099F4009846DDF890A0DDF89490DDF898B0154C01A8A047144C28460094144D31463A46AF
:209A14004346A8470546A8B9114D01A8A8472146104C202201A8A047054658B951464A4600
:209A34000C4C01A8A047054620B959460A4C01A8A0470546094C01A8A04728461BB0BDE873
:209A5400F08FC046D9430080E025002059F80080E5720080F5A40080F10B01803945008070
:209A740070B404460D46636806E05FEA8300A168001F085810B95B1E002BF6D1696806E021
:209A94005FEA8100AA68001F105810B9491E0029F6D10BB9002926D08B421BD899422A681F
:209AB40001D9504220E02068002803DD002A01DA012019E0002A14DD002812DA5FF0FF30CA
:209AD40012E05FEA8301AA68091F5658A2685158B14201D9206807E0B14201D2404203E0B1
:209AF4005B1E002BEDD1002070BC70472DE9F04F83B006468B46924698460C9F0D9C1146E7
:209B1400194DA847002805462AD1184D30464146A8470028054623D1154D3046A8470228C5
:209B34004BF28005CFF6FF7509D100970194114D3046594652464346A847054680B9DFF832
:209B540030903046C84701280AD10E98009701940290094C3046594652464346A047054687
:209B7400284603B0BDE8F08F9D9F0080D17100805D460080890D0180F5FE00802DE9F04F0C
:209B940004460F4691461D46DDF824B0DDF828A01A4E0122B047002818BFBDE8F08F184E87
:209BB4003846B047074604F10C08164E204641463A46B047002818BFBDE8F08F40463A46D5
:209BD400114E0121B047C4F85C902566206D40B9142F01D8102003E018201C2F88BF08300F
:209BF4002065204659465246084C0123A04708B1BDE8F08F0020BDE8F08FC04675CF0080E5
:209C140071410080F1C600808921038029BB00802DE9F04F82B004460F46934699469DF8C3
:209C34002C2000929DF830A00D9D1C4E302301AAB04700282ED1206801990844B84225D040
:209C54006FF0650026E0206810F8016B206016EA0B00484502D06FF061001BE020463946A0
:209C7400DFF83C8001AAC047A0B9009816EA0000504507D135B122680E98019B3146A84715
:209C940000B107E020680199084420602068B842D9D3002002B0BDE8F08FC046915100809E
:209CB400C5B00080F0B5044660680B465FEA5117002511F01F01874204D8874207D113F053
:209CD4001F0F04D020461B4C2946A047F0BDB7B1C01B2E4610D0A068F21950F8222040F832
:209CF4002620761C6068C01B8642F4D304E0A068002240F82620761C60688642F7D313F0CB
:209D14001F0F14D0676810E05FEA8702A068121F83587F1E33FA01F68650A06886582E438A
:209D34008650D1F1200013FA00F5002FECD10020F0BDC0464D6600802DE9F0410446D81DDD
:209D540096465FEAD002D3EBC20523680F468B4203D3561CD81BB04203D26FF06B00BDE855
:209D7400F08192B1581E2060521E012010FA05F0401E1EF80210814303F8011C2068801A11
:209D940020607146DFF83880C04720683946401E206005700B4D20463246A8470028B8BFC4
:209DB400BDE8F081064420463946074C0322A0470028B8BFBDE8F0813018BDE8F081C046D2
:209DD400CD2103801DD20080754800802DE9F04F01265FEA92020446DDF824A0DDF8288099
:209DF4000B9DDDF830B0DDF83490DDF83CE0109F40F8046F4260816023B126615FEA9A014C
:209E14006161A361E6615FEA95012162C4F82480254645F84C6F11995FEA91016960AF609F
:209E34005FEA9901A662E162C4F830B066635FEA9E01A1630E99084FE163266407496664A9
:209E5400A164B847A0652846034DA847E06526660020BDE8F08FC046A55300806020002005
:209E74002DE9F04791B000280C461E460546174618BF002CDDF864A0DDF8688018BF002E1C
:209E940002D0B8F1000F04D149F60070CFF6FF7020E0DFF848906846C8472946104D684686
:209EB400A847054690B921463A460E4C6846A047054658B9314652460B4C6846A047054693
:209ED40020B94146094C6846A0470546084C6846A047284611B0BDE8F087C046B943008023
:209EF4000566008041760080B5D5008051CA0080DD5E00802DE9F04F9A46DAF8006083469C
:209F14000F2E1446099FDDF82890DDF82C8084BF6FF02000BDE8F08F00292CD114E0641E5E
:209F34002EB958463A463B46164D0121A8473946895D19F8010B3A4690EA010108F8011B79
:209F54009055761C16F00F06002CE8D115E0641E2EB958463A463B460A4D0121A847384693
:209F7400805D19F8012B3946504008F8010B8855761C16F00F06002CE9D1CAF800600020E6
:209F9400BDE8F08F154B008070B51F4C05460E46A04702281AD130461C4C0021A047002870
:209FB40026D13046194C0121A047002820D1184C3046A047E96D401E884219D1FE291CD15C
:209FD4003046124C0221A047B8B111E00E4C2846A047012813D130460E4C0121A047002878
:209FF40006DB0D4C05F14C013046A047002804DB4BF28030CFF6FF7070BD002070BD4BF294
:20A014008000CFF6FF7070BD5D460080094F0080A55300807D5C0080759A00802DE9F043A7
:20A03400002A05460E4614463CD0D5E9001011F07F07D7F1800909194FF000025041C5E995
:20A054000010D5E90001914208BFA04206D2D5E90201401C41F10001C5E90201CFB14C45B7
:20A0740017D305F1500808EB0700104F31464A46B8470F4F28464146B8474E44B4EB0904A5
:20A09400002706E0DFF8288028463146C0478036803C802CF6D22CB122465035034CE81934
:20A0B4003146A0470020BDE8F083C046CD2103809D9C0180F0B5ADF5017D04460E466946B3
:20A0D40000228020401E41F8042BFBD11746809230461C4D6A4680A9A84770B98098B0F51C
:20A0F400007F0AD86846224604E010F8011B7F1C02F8011B80998F42F7D3701C114D6A46CE
:20A1140080A9A847054698B98098B0F5007F0FD8C4F824060020694604F5017304E011F845
:20A13400012B401C03F8012B809A9042F7D300E0112504F5C560044CA04755EA00000DF5FA
:20A15400017DF0BD29690020155200802DE9F04706461D48002400788A4601289146089D18
:20A1740027462DD015F0010F09D0DFF86080184F4046B847174F40462146B847074615F02C
:20A19400020F08D036B13146134E10485246B047074300E0FF2415F0040F0ED06CB9B9F10A
:20A1B400000F0A4D05D00D4E28464946B047074300E0FF2428460A4DA84717B1FF2400E035
:20A1D40090242046BDE8F087AD5500204824002029430080B9B9008031A000801955018069
:20A1F4004D4500802DE9F04F06464DF8081D9246DAF8005099461D4400274F4502D36FF005
:20A2140007002FE0CDF804803146009A174C01A8A04700288346DDF8048022D1304632469C
:20A23400009B134C0021A0478346D0B96D1EB8F10A0F34BF08F1300008F1370028707F1CEA
:20A2540030460C4C0021A0470028D6D1DAF80000094C29463A46A047DAF800003844CAF838
:20A274000000584602B0BDE8F08FC0469D8A0080455B00807D5C0080752203802DE9F041CF
:20A2940082B015461F46089E009000EB010841461C4C302301AA6846A0470028044625D1A4
:20A2B400009801990844404504D04BF28000CFF6FF7023E041462A46134C6846A04704468A
:20A2D400A0B905F10C0241460F4C6846A047044660B9414632460D4C6846A047044628B91B
:20A2F40041463A46094E6846B04710B1B4F59F4004E005F11800064C0121A04702B0BDE85A
:20A31400F081C04691510080D5530080955400804D6600802DE9F04783B005460E46904617
:20A334001F46DDF82C90DDF830A01B4C6846A0474FF0000477B12946184C01226846A0477C
:20A354000028044620D138464146154C6A46A0470446C8B9B9F1000F0DD031460F4C012233
:20A374006846A047044678B9484641460C4C6A46A047044640B9BAF1000F05D0094C5046F8
:20A3940031462A46A0470446074D6846A847204603B0BDE8F087C04659440080AD5B0080C0
:20A3B4005D8600802D3A0180855500802DE9F04706461D48002400788A4601289146089DD5
:20A3D40027462CD015F0010F08D0DFF86080184F4046B847174F4046B847074615F0020F22
:20A3F40008D036B13146144E10485246B047074300E0FF2415F0040F0ED06CB9B9F1000FA9
:20A414000A4D05D00D4E28464946B047074300E0FF2428460A4DA84717B1FF2400E090242D
:20A434002046BDE8F087C046AD55002024270020D9430080E5720080F5A40080F10B0180EA
:20A45400394500802DE9F0478AB005460C4616469A465FF0FF0802A900220820401E41F8A8
:20A47400042BFBD105F5AA794846164F02A9B84780B90094019605F1A80005F59873124CAE
:20A49400202202A9A047002818BF0120CAF800005FF000080D4C4846A0470D4C05F1A800D6
:20A4B400A0470C4C05F59270A0470B4C05F59870A0472846094CA5220021A04740460AB054
:20A4D400BDE8F087F10B0180194A0080394500800191008085550080D14F008089210380B5
:20A4F4002DE9F043002A05460E4614463FD0286810F03F070119D7F14009A142296002D28C
:20A514006968491C696010F03F0F19D04C4517D305F1280808EB0700164F31464A46B847EB
:20A53400154F28464146B8474E44B4EB0904002706E0DFF8448028463146C0474036403CEB
:20A55400402CF6D22CB12835E8190A4D31462246A847301936F00F0650F00F004AF2101123
:20A57400CEF2080101E00E6010368642FBD30020BDE8F083CD2103809DC300802DE9F047FD
:20A59400884206460C4604BF0020BDE8F0875042C0B2024361681E4F3046C2F3C019D9F1F3
:20A5B4000005B847002882462ED17168184F2046B8470028824627D1D6F800802168154FCC
:20A5D40040464A46B8473060124F41464A462068B8472060002314E0B068A26850F823702F
:20A5F40052F8232037EA05012A40114340F823102F40A06850F82310A943394340F82310A5
:20A614005B1C70688342E7D35046BDE8F087C046BD7000803D4800802DE9F04381B0154619
:20A634000746686888460C46A0B1A868282100781D4CB0FBF1F301FB03F1401A00901B4A70
:20A6540038464146A04700281EDB40451CD2B8EB00040744002301261DE033F07E40984272
:20A6740012D1A868805D10F07F0110F0800F01EBC3130FD1DFF830900D4A38462146C84763
:20A69400002801DBA04202D36FF00A0008E0241A07440023761C68688642DED3B8EB04006C
:20A6B40001B0BDE8F083C04615230380A0CB018024CB01802DE9F04189B004460D46164627
:20A6D40001A900200822521E41F8040BFBD104F1800004F160073946DFF868802022C04796
:20A6F400804601AB0822F878B97850EA0120797850EA014017F8041B50EA0160521E43F8CE
:20A71400040BF0D1B8F1000F12D1306840280AD301A8009005F1200204F1400329460A4D8E
:20A734000120A84710B15FF0FF0801E0402030602046064CCC220021A047404609B0BDE87B
:20A75400F081C046016D008075710080892103802DE9F04F83B006460F46904699460C9D66
:20A77400DDF834B0DDF838A01A4C6846A0473146194C00226846A04720B14AF68074CFF607
:20A79400FF741FE0154C6846A0470028044619D139464246124C6846A047044690B94946C5
:20A7B4002A460F4C6846A047044658B9594652460B4C6846A047044620B90F99094C6846D9
:20A7D400A0470446084D6846A847204603B0BDE8F08FC0463943008075CF0080E18100805D
:20A7F4009D73008089720080AD9600802DE9F04383B006460D4617469846DDF8289010463E
:20A814001C4C0021A04718B91B4C2846A0472CE03846184C0121A04720B9184C28464146FE
:20A83400A04722E03846134C5FF0FF31A04788B9124C28464146A0470746B8B90C352846F0
:20A854000C4C0021A04788B10D4C311D28462A46A0470AE00020CDF8089000900190094C02
:20A87400304629463A464346A0470746384603B0BDE8F0837D5C0080C5540080495C008042
:20A89400D1770080019B00802DE9F041214C054610460E461746A04729680446B14218D31A
:20A8B400881BA04215D3091B296038462246DFF86880C047002818BFBDE8F08138680128E0
:20A8D40011D12868017811F0800F0CD0811B012903DA6FF06B00BDE8F081411E2960002181
:20A8F40000F8011C641C0D4F284631462246B8470028B8BFBDE8F081044428463146084DD0
