:020000040800F2
:1000000098720020E10100087B0500081705000830
:100010007905000849030008390E000800000000B7
:10002000000000000000000000000000490100087E
:100030004B030008000000008D010008E5060008E1
:10004000FB010008FB010008FB010008FB010008A0
:10005000FB010008FB0100084D030008FB0100083C
:10006000FB010008FB010008FB010008FB01000880
:10007000FB010008FB010008FB010008FB01000870
:10008000FB010008FB010008FB010008FB01000860
:10009000FB010008FB010008FB010008FB01000850
:1000A000FB010008FB010008FB010008FB01000840
:1000B000E5070008FB010008FB010008FB01000840
:1000C000FB010008FB010008FB010008FB01000820
:1000D000FB0100088D090008250B0008E10B000852
:1000E000FB010008FB010008FB010008FB01000800
:1000F000FB010008FB010008FB010008FB010008F0
:10010000FB010008FB010008FB010008FB010008DF
:100110002D080008E9080008FB010008FB010008A1
:10012000FB010008FB010008FB010008FB010008BF
:10013000DFF810D000F0A0F8004800475D1200087A
:10014000AFF3008098720020224B19680868B0E86D
:10015000F00F80F30988BFF36F8F4FF0000080F33A
:1001600011884EF00D0E7047000000000648006830
:10017000006880F3088862B661B6BFF34F8FBFF3A3
:100180006F8F00DF00BF00BF08ED00E0EFF30980D4
:10019000BFF36F8F0F4B1A6820E9F00F106008B59E
:1001A0004FF0BF0080F31188BFF34F8FBFF36F8F05
:1001B00001F0ACFB4FF0000080F31188BDE808406F
:1001C00019680868B0E8F00F80F30988BFF36F8FF3
:1001D000704700BF44000020EFF305807047000027
:1001E0000648804706480047FEE7FEE7FEE7FEE7D1
:1001F000FEE7FEE7FEE7FEE7FEE7FEE71107000881
:100200003101000840EA01039B0703D009E008C957
:10021000121F08C0042AFAD203E011F8013B00F8CB
:10022000013B521EF9D27047D2B201E000F8012B17
:10023000491EFBD270470022F6E710B513460A4666
:1002400004461946FFF7F0FF204610BD30B50B46B7
:10025000014600202022012409E021FA02F59D42F6
:1002600005D303FA02F5491B04FA02F52844151ECA
:10027000A2F10102F1DC30BD064C074D06E0E0685A
:1002800040F0010394E8070098471034AC42F6D3DD
:10029000FFF752FFD41D0008F41D000805460B4C63
:1002A000206840F0040020604FF47A7001F052FAA8
:1002B000206840F4802020604FF47A7001F04AFA00
:1002C00003A0296800F0BAFDEAE70000100C014025
:1002D00025640A0004A000F0B1FD4FF0FF320121B7
:1002E000002001F049F9F5E7456E746572207468E5
:1002F00065204672656552544F5320696E7465726D
:10030000727570742068616E646C65720000000024
:1003100005460B4C206940F0200222614FF4FA7030
:1003200001F018FA206940F4001222614FF4FA70CB
:1003300001F010FA294603A000F080FDEAE7000072
:100340000010014025730A00FEE7704708B5002041
:100350000090012000F030F8002808BF08BD6A4670
:1003600005480021006801F011FA04A000F066FDC4
:10037000012000F01BF808BD080000204558544932
:10038000A3A1A3A1A3A1A3A1A3A1A3A1A3A1A3A14D
:10039000A3A1A3A1A3A1A3A1A3A1A3A1A3A1A3A13D
:1003A000A3A1A3A1A3A1A3A10A0000000149086081
:1003B0007047000014040140054A00211268054BF3
:1003C00002401B6803421CBF002A012108467047F7
:1003D0000004014014040140837921490268002B84
:1003E00034D00B6823EA02020A60091D0A68036818
:1003F0009A430A60017901F1804101F582310A686E
:1004000003681A430A60174B196802689143196020
:100410001A1D1168D0F800C021EA0C011160417961
:10042000102908D001F1804101F582310A68006885
:100430001043086070471968D0F800C041EA0C0109
:10044000196011680068084310607047007900F176
:10045000804000F5823001689143016070470000E0
:1004600000040140080401402DE9F001CB7800228E
:1004700003F00F0C13F0100F1CBF8B7843EA0C0C29
:100480000B784FF00F0613F0FF0F4FF0010518BF68
:10049000046819D00F8805FA02F31F409F420FD15C
:1004A000970006FA07F824EA08040CFA07F73C4319
:1004B000CF78282F08BF436102D0482F08BF0361BF
:1004C000521C082AE6D304600A88FF2A87BF4468C2
:1004D0000022BDE8F001704702F108030F8805FA19
:1004E00003F31F409F420FD1970006FA07F824EA52
:1004F00008040CFA07F73C43CF78282F08BF436164
:10050000CF78482F08BF0361521C082AE4D3446007
:10051000BDE8F0017047FEE72DE9F8430121102006
:1005200000F072F80121082000F06EF82024ADF8E8
:10053000004010250D4E8DF8035003278DF80270F2
:1005400069463046FFF790FF4FF00408ADF8008091
:100550008DF803508DF8027069460548FFF784FF57
:1005600074610448C0F80080BDE8F88300100140C1
:10057000000C0140140C0140FEE7704710B4C27833
:1005800001784FF00F0C012322B3184A126801F1D1
:10059000E02102F4E062C2F5E062120AC2F1040452
:1005A0002CFA02F290F801C00CFA04FC8478224084
:1005B00042EA0C02120181F80024007800F01F01C9
:1005C00003FA01F14009800000F1E020C0F80011B9
:1005D00010BC704701F01F0003FA00F049098900C0
:1005E00001F1E021C1F8800110BC70470CED00E082
:1005F000044A0029116914BF084321EA0000106170
:100600007047000000100240044A0029916914BF9D
:10061000084321EA0000906170470000001002408A
:10062000044A0029D16814BF084321EA0000D060C1
:100630007047000000100240254910B44A6812F0CB
:100640000C03244A18BF042B01D0082B01D00260F0
:1006500015E04A684B6802F470124FF0020C13F474
:10066000803F0CEB924203D04B6813F4003F03D061
:10067000194B5A43026002E0164B5A4302604A6823
:100680000F2303EA1212154B9A5CD0F800C02CFA23
:1006900002F24260D1F804C0072404EA1C2C13F8CB
:1006A0000CC022FA0CFCC0F808C0D1F804C004EA5F
:1006B000DC2C13F80C30DA40C2604968032303EAEB
:1006C0009131074B595CB2FBF1F1016110BC7047ED
:1006D0000010024000127A0000093D0034000020A2
:1006E0003000002010B5BF2080F31188BFF34F8F7A
:1006F000BFF36F8F01F010FA18B104494FF080502A
:100700000860002080F3118810BD000004ED00E0B7
:10071000304882B0016841F00101016042682E4911
:1007200011404160416821F4FE0141604FF41F0116
:100730008160002100910191016841F480310160E4
:10074000016801F4003101910099491C009101995F
:1007500019B90099B1F5A06FF2D1016811F4003F09
:1007600031D01E490A6842F010020A600A6822F07D
:1007700003020A600A6842F002020A6041684160AE
:1007800041684160416841F480614160416821F401
:100790007C114160416841F4E8114160016841F019
:1007A00080710160016811F0007FFBD0416821F089
:1007B00003014160416841F002014160416801F07C
:1007C0000C010829FAD106494FF00060086002B018
:1007D00070470000001002400000FFF800200240B7
:1007E00008ED00E010B50121880700F014F800289A
:1007F00008BF10BD0121880700F00AF8BDE81040CD
:1008000001A000F01BBB000068656C6C6F0000006D
:10081000C94301827047038A002280890B4200EAA3
:1008200001001CBF00280122104670472DE9F0414D
:10083000274D2888274C10F0200F05F104060BD017
:10084000608AB0F5806F24BF3088BDE8F0813188C0
:10085000214A1154401C6082288810F0100F17D0D4
:100860001E4F4FF000084FF48062A7F5006107F5B6
:100870004160FFF7C7FC608AA7F80E0CA4F812804D
:100880004FF48061A7F50060FFF7D5FC2888308819
:10089000288810F0800F08BFBDE8F081104801885B
:1008A00011F0800F08BFBDE8F0810E4AA179525CBB
:1008B0003280491CC9B2A171E279914218BFBDE8EA
:1008C000F081018821F080010180BDE8F081000005
:1008D000004C004014000020B80C0020B814002088
:1008E0000C4C0040CE2B00202DE9F041224C2088FA
:1008F000224D10F0200F0BD0A88AB0F5806F24BFD6
:10090000A088BDE8F081A1881D4A1154401CA8822E
:10091000208810F0100F14D01A4E00274FF4806278
:10092000A6F5A05106F11400FFF76CFCA88A7082AE
:10093000AF824FF48061A6F5A050FFF77CFC2088C1
:10094000A088208810F0800F1ABFA08910F0800FB7
:10095000BDE8F0810C49287A095CA180401CC0B236
:100960002872697A884218BFBDE8F081A08920F01A
:100970008000A081BDE8F0810050004014000020FC
:10098000B8100020B8240020CE2C00202DE9F04122
:10099000274D2888274C10F0200F05F104060BD0B6
:1009A000A089B0F5806F24BF3088BDE8F081318820
:1009B000214A1154401CA081288810F0100F17D034
:1009C0001E4F4FF000084FF48062A7F80280A7F591
:1009D000A051381DFFF716FCA0897880A4F80C8080
:1009E0004FF48061A7F5A050FFF725FC28883088D8
:1009F000288810F0800F08BFBDE8F08110480188FA
:100A000011F0800F08BFBDE8F0810E4A2178525CDA
:100A10003280491CC9B221706278914218BFBDE88A
:100A2000F081018821F080010180BDE8F0810000A3
:100A30000038014014000020B8000020B814002045
:100A40000C380140CE28002070B50446314886B0ED
:100A5000816941F480418161816941F004018161D2
:100A60004015ADF8100003208DF8120018202A4D13
:100A70008DF8130004A92846FFF7F6FC2815ADF8F9
:100A8000100004208DF8130004A92846FFF7ECFCA1
:100A900025208DF8140002208DF815008DF8160021
:100AA00001258DF8175005A8FFF768FD1B4E30464D
:100AB00000F0FDF800940024ADF808400C20ADF8DB
:100AC0000440ADF80A00ADF80640ADF80C406946A8
:100AD000304600F057F9002240F22771304600F00E
:100AE00038F9012240F22551304600F032F9012256
:100AF00040F22441304600F02CF90121304600F04C
:100B0000CDF84FF60F70308005480570448006B070
:100B100070BD000000100240000801400038014094
:100B2000B81400202DE9F041274D2888274C10F0FB
:100B3000200F05F104060BD0E089B0F5806F24BFCB
:100B40003088BDE8F0813188214A1154401CE08191
:100B5000288810F0100F17D01E4F4FF000084FF4E8
:100B60008062A7F5805107F58160FFF74BFBE089B4
:100B7000A7F80604A4F80E804FF48061A7F5805012
:100B8000FFF759FB28883088288810F0800F08BFAD
:100B9000BDE8F0811048018811F0800F08BFBDE862
:100BA000F0810E4AA178525C3280491CC9B2A17012
:100BB000E278914218BFBDE8F081018821F0800100
:100BC0000180BDE8F08100000044004014000020D6
:100BD000B8040020B81400200C440040CE290020A6
:100BE0002DE9F041274D2888274C10F0200F05F102
:100BF00004060BD0208AB0F5806F24BF3088BDE892
:100C0000F0813188214A1154401C2082288810F03C
:100C1000100F17D01E4F4FF000084FF48062A7F559
:100C2000406107F60C00FFF7EDFA208AA7F80A08E2
:100C3000A4F810804FF48061A7F54060FFF7FBFA3D
:100C400028883088288810F0800F08BFBDE8F08120
:100C50001048018811F0800F08BFBDE8F0810E4AEE
:100C60002179525C3280491CC9B22171627991426A
:100C700018BFBDE8F081018821F080010180BDE846
:100C8000F08100000048004014000020B808002057
:100C9000B81400200C480040CE2A00200029818989
:100CA00014BF41F4005121F400518181704710B507
:100CB000A0F18041B1F59C311FD0A0F18041B1F588
:100CC000884125D0A0F18041B1F590412BD0A0F111
:100CD0008041B1F5984131D0A0F18041B1F5A041FA
:100CE00018BF10BD01210805FFF782FCBDE81040C8
:100CF00000214FF48010FFF77BBC01218803FFF730
:100D00008FFCBDE8104000214FF48040FFF788BC05
:100D100001214804FFF76CFCBDE8104000214FF4AE
:100D20000030FFF765BC01218804FFF761FCBDE8D6
:100D3000104000214FF48020FFF75ABC0121C80465
:100D4000FFF756FCBDE8104000214FF40020FFF7EC
:100D50004FBCC1F3421301F01F014FF0010C0CFA1C
:100D600001F1012B08BF0C3003D0022B0CBF103057
:100D70001430002A026814BF114322EA0101016005
:100D80007047000030B50446008A85B00D464CF629
:100D9000FF710840E98808432082A0894EF6F311CC
:100DA0000840A9882A8911436A8910430843A08111
:100DB000A08A4FF6FF410840A9890843A0826846EF
:100DC000FFF73AFCA4F18040B0F59C300CBF0398CB
:100DD0000298A18911F4004F00EBC00101EB001053
:100DE000296814BF49008900B0FBF1F0114A6FF087
:100DF000180CA2FB0031490909010B0903FB0CF394
:100E000000EB8300A38913F4004F4FF0320314BFAB
:100E100003EBC00003EB0010A2FB00204FEA5010D0
:100E200014BF00F0070000F00F000843208105B058
:100E300030BD00001F85EB51FEE700000FB4054BED
:100E400010B503A9044A029800F018F810BC5DF828
:100E500014FB0000C11100082C00002002E008C8AB
:100E6000121F08C1002AFAD170477047002001E024
:100E700001C1121F002AFBD1704700002DE9FF4F6E
:100E80008BB088460546002606E025280BD0DDE914
:100E90000D1290476D1C761C28780028F5D10FB0F4
:100EA0003046BDE8F08F0024A146A2460122AE499B
:100EB00000E0044315F8013F203B02FA03F008422A
:100EC000F7D128782A2810D06FF02F022878A0F1C7
:100ED0003001092915D809EB890102EB410144F0E1
:100EE000020400EB01096D1CF0E758F8041B5FEAEF
:100EF000010903D544F40054C9F1000944F0020487
:100F00006D1C28782E2817D115F8010F44F0040421
:100F10002A280ED06FF02F022878A0F1300109297D
:100F20000AD80AEB8A0102EB410100EB010A6D1CB1
:100F3000F2E758F804AB6D1C28786C280FD006DC5B
:100F40004C2817D068280DD06A2814D104E07428E2
:100F500010D07A280FD10DE044F400140AE044F4D4
:100F6000801401E044F440146978814202D104F510
:100F700080146D1C6D1C2878692865D006DC00285B
:100F80008DD0632827D0642806D15DE06E2808D074
:100F900073282AD0752877D0DDE90D129047761C8A
:100FA000E0E0C4F30250022809D003280DD0D8F89D
:100FB000001004280DD00E6008F10408D2E0D8F823
:100FC0000010F217C1E90062F6E7D8F800100E80B1
:100FD000F2E70E70F0E718F8041B8DF800100020FF
:100FE0008DF80100EB46012003E058F804BB4FF0F8
:100FF000FF3061074FF0000701D40AE07F1C57451E
:101000000DDA8742FADB1BF807100029F6D106E05B
:101010007F1C8742FCDB1BF807100029F8D1DDE9B3
:101020000D23A9EB07008146214600F0B1F83044BA
:10103000C61904E0DDE90D121BF8010B90477F1E75
:10104000F8D22146484688E058F8040BC4F3025110
:101050004FF00A0B032900D100B2042900D140B29D
:10106000002802DA40422D2102E0210505D52B217E
:101070008DF82410012104E006E0E10710D02021C2
:10108000F6E708AF089113E058F8040BC4F30251D7
:101090004FF00A0B032900D180B2042900D1C0B25D
:1010A0000021EEE75946FFF7D1F8303107F8011D6E
:1010B0000028F7D1ADEB070000F1200B600702D547
:1010C00024F4803401E04FF0010ADA4502DDAAEB96
:1010D0000B0000E00020824600EB0B010898014461
:1010E000A9EB01000A90E00306D4DDE90D232146B7
:1010F0000A9800F04DF806444FF0000908E009A9ED
:1011000011F80900DDE90D12904709F10109761C7B
:1011100008998945F3DBE0030CD5DDE90D23214671
:101120000A9800F035F8064404E0DDE90D1230209D
:101130009047761CBAF10001AAF1010AF5DC05E03E
:10114000DDE90D1217F8010B9047761CBBF1000189
:10115000ABF1010BF4DC0A982146DDE90D2300F028
:1011600005F806446D1C97E6092801002DE9F041B9
:10117000044600251E461746880404D405E0394677
:101180002020B0476D1C641EF9D52846BDE8F081CB
:101190002DE9F041044600251E469046C80301D5BE
:1011A000302700E02027880404D505E04146384672
:1011B000B0476D1C641EF9D52846BDE8F0810000DB
:1011C00004490A8812F0400FFBD0034AC1B21180D3
:1011D00070470000003801400438014070B584B009
:1011E00001210420FFF710FA28208DF803000124C4
:1011F000194EADF8004003258DF80250694630467F
:10120000FFF732F948208DF803001220ADF80000F6
:101210008DF8025069463046FFF726F9012108464D
:10122000FFF7F2F98DF80E4000258DF80C500820DC
:101230008DF80D00029402A8FFF7CEF806208DF875
:1012400004008DF807408DF805508DF8065001A870
:10125000FFF794F904B070BD0008014010B582B0EA
:101260004FF41650FFF7F0FBFFF756F9FFF7B6FF04
:101270001548FFF7E1F919490220CDE9000101F114
:101280000C0312A43C2216A1174800F07BFB17495F
:101290000320CDE9000123463C2215A1174800F0A8
:1012A00071FB17490120CDE9000100233C2215A163
:1012B000174800F067FB01281EBF4FF0FF3002B057
:1012C00010BD00F0EFFAFEE7A400002048656C6C4A
:1012D0006F2C576F726C642100000000000000202A
:1012E0004170705461736B009D020008040000207F
:1012F0004170705461736B5F4C65640011030008AA
:10130000080000204170705461736B5F4B65790079
:10131000D50200082DE9F041204C0F460546E6684D
:101320002068001D00F06AF948B92068012190F892
:101330002C0001FA00F0216921EA00002061B5F1DA
:10134000FF3F15D1A7B1164922684868906023680D
:101350008268DA6022688368121D5A602268121D52
:101360008260206841610868401C0860BDE8F08127
:1013700020683544B5424560206800F1040104D27C
:10138000E06BBDE8F04100F05BB9A06B00F058F9EC
:10139000A06AA84288BFA562BDE8F0814400002091
:1013A000842E0020164E154CDFF85890A6F1A007A9
:1013B0004FF080586068B8B100F060F9F068C56817
:1013C000281D00F01BF9A068401EA0606068401E48
:1013D000606000F061F9286B00F06AF9284600F0BF
:1013E00067F960680028E7D138680128E2D9C9F8B0
:1013F0000080BFF34F8FBFF36F8FDBE74400002007
:10140000702E002004ED00E0BF2080F31188BFF3B0
:101410004F8FBFF36F8FFEE72DE9F047054600249D
:1014200000F06CFADFF820C100260CF11403DCF8A0
:101430000000E8B945494FF4804011F0070F06D08D
:10144000C81D20F007014148081AC0F58040084433
:101450000838C3E9001620F00700CCF80000466009
:10146000421A0660C1E90002CCF80820CCF804203A
:10147000002D64D005F00700C0F11000C1438D427B
:101480009CBF2A1812F0004F59D1002A57D0DCF81F
:101490000450AA429CBF2E48196850D84B6893420A
:1014A00005D20B68002B1CBF08461946F6D1DCF8A4
:1014B0000070B94243D0036803F108040B6803606D
:1014C0004868801A102827D98B1858604A60204A2B
:1014D0001068984238BF0246FAD3D2F8048008EB6D
:1014E0000209994503D15B68434453601346D3F81E
:1014F000048008EB0309814518BF186009D1B84280
:1015000008BF1F6005D040684044586010680068FC
:1015100018609A4218BF13604A68A81ACCF80400F1
:10152000DCF80830834288BFCCF8080042F0004065
:10153000C1E90060DCF80C00401CCCF80C0000F0A5
:10154000A3FB2046BDE8F08788000020982E0020ED
:101550009C0000204FF0807C40F804CC21F0010179
:1015600040F8081C034B40F80C3C40F8202C403855
:1015700070470000091400082DE9F04116460F4697
:10158000044600F07BF81B4D286800EB8400406C9B
:1015900088B929680120214481F848005EB1012101
:1015A0003046FFF7B7FE14494FF080500860BFF394
:1015B0004F8FBFF36F8F00F06FF800F05FF828686F
:1015C00000EB8400466C002056B127B1296801EB7E
:1015D0008401486404E02A68711E02EB84025164AD
:1015E0002968214481F8480000F056F83046BDE8EB
:1015F000F08100004400002004ED00E0D0E9013259
:1016000001699A60D0E901235A604A68824204BFA6
:1016100082684A60002202610868401E086008680B
:10162000704700F108014FF0FF32C0E90112C160BC
:1016300001610021016070470021016170470000D5
:1016400010B40B68B3F1FF3F0CBF026900F1080250
:1016500008D000BFD2F804C0DCF800409C4298BF1C
:101660006246F7D953684B6099608A60516008619F
:101670000168491C016010BC70470000BF2080F366
:101680001188BFF34F8FBFF36F8F02480168491C69
:10169000016070478400002004490868401E08600B
:1016A00018BF7047002080F3118870478400002025
:1016B000002808BF704770B5A0F1080550F8040C69
:1016C00010F0004F08BF70BD2968002918BF70BD19
:1016D00020F00040686000F011F91749686801F1D6
:1016E00014044A68104448602068A84238BF044681
:1016F000FAD362681319AB4203D16B6825461A44CA
:1017000062606A685319834218BF28600AD10B6867
:10171000984208BF2B6005D040681044686020687C
:1017200000682860AC4218BF25600869401C086149
:10173000BDE8704000F0A8BA880000204FF0E0201B
:101740000021016181610249416107210161704706
:101750003F19010010B558B10A494A6B521C4A633F
:101760000021FFF7D7FD00F08FFA002818BF10BD49
:101770004FF0805004490860BFF34F8FBFF36F8F65
:1017800010BD00004400002004ED00E0F0B44FF074
:10179000BF0CEFF311838CF31188BFF34F8FBFF3AE
:1017A0006F8F441894F848C0022584F8485000EB25
:1017B00081014C6C641C4C64BCF1010F27D136498B
:1017C000D1F834C00125BCF1000F24D0334CD4F83B
:1017D00004C0C0F81CC0DCF808600662DCF80870C1
:1017E00000F118067E60CCF808608462D4F800C06E
:1017F0000CF1010CC4F800C0C06AD1F800C0DCF8DC
:101800002CC0604503D9002A18BF1560CD6183F351
:101810001188F0BC7047D0E90264D0F814C0B460FD
:10182000D0E902467460DCF80440061DB44204BFEF
:10183000C468CCF8044000244461DCF80040641E15
:10184000CCF80040D0F82CC00F6905FA0CF43C43EA
:101850000C61134C0CEB8C0C04EB8C0CDCF804C00E
:10186000C0F808C0DCF80870C760DCF808707E605B
:10187000CCF80860D0F82CC00CEB8C0C04EB8C0C72
:10188000C0F814C0D0F82CC00CEB8C0C54F82C60B1
:10189000761C44F82C60AFE7440000205C2E00204A
:1018A000D02D002030B583B00F480025CDE9005081
:1018B0002B464FF480720DA10E4800F063F80E4CD9
:1018C00001280ED1BF2080F31188BFF34F8FBFF3E3
:1018D0006F8F4FF0FF30A06201206061E56000F083
:1018E00039F8206B03B030BD7000002049444C45EE
:1018F00000000000A5130008440000200248416BCE
:10190000491C416370470000440000200F48416BB0
:1019100000291EBF0121C16170470021C161016919
:101920000B4AB1FA81F1C1F11F0101EB810102EB18
:10193000810101F108034A6852684A609A4204BF73
:1019400052684A60D168016070470000440000207E
:10195000D02D0020094810B5016841F47F010160D5
:10196000016841F07F410160FFF7E8FE0449002073
:101970000860FEF7FBFB002010BD000020ED00E03A
:10198000840000202DE9F05F8146DDE90A5A9B467C
:1019900090460E469000FFF73FFD07004AD04C20CE
:1019A000FFF73AFD040042D04C21FEF744FC6FF0F3
:1019B000030000EB88003844276320F00707002E5F
:1019C00018BF00200CD02118325C81F83420315C23
:1019D00000291CBF401C1028F5D3002184F84310B7
:1019E000052D28BF0425201DE562FFF725FE04F123
:1019F0001800FFF721FE2461C5F105016462A161B1
:101A00005A4649463846FFF7A5FD2060BAF1000F57
:101A100018BFCAF80040FFF731FE374FB868401CC6
:101A2000B8603868354D48B1786950B32FE0384612
:101A3000FFF73EFE4FF0FF30BDE8F09F3C60B86816
:101A4000012808BF002622D106EB860005EB8000A6
:101A5000FFF7E7FD761C052EF6D32948FFF7E1FDD9
:101A60002848FFF7DEFD2848FFF7DBFD2748FFF792
:101A7000D8FD2748FFF7D5FD2148B8631430F86337
:101A800005E03868E16AC06A884298BF3C60786ABD
:101A90000121401C7862E06A3A6981401143396152
:101AA00000EB800005EB80004068A0608168E16089
:101AB0008268211D51608160E06A00EB800005EBC7
:101AC0008001616155F82010491C45F82010FFF78E
:101AD000E3FD786960B13868E16AC06A884207D27C
:101AE0000C494FF080500860BFF34F8FBFF36F8FEA
:101AF0000120BDE8F09F000044000020D02D002010
:101B0000342E0020482E00205C2E0020702E002055
:101B1000842E002004ED00E02DE9F007584B002052
:101B2000596B29B19969491C9961BDE8F007704763
:101B3000D9684A1CDA604FF0FF3712D1996BD3F89D
:101B40003CC0C3F838C0D963196A491C1962996B43
:101B50000968002908BF9F6203D0996BC9680968AA
:101B60009962996A474C91429CBF00264FF0010A46
:101B70000DD8996B096849B1996BC968C968D1F8E2
:101B800004C0624513D2C3F828C000E09F62196800
:101B9000C96A01EB810154F82110012988BF012095
:101BA000D969002918BF0120BDE8F0077047D1E9C5
:101BB0000285D1F814C0C8F80850D1E90258C8F815
:101BC0000450DCF804800D1DA84504BFD1F80C803A
:101BD000CCF804804E61DCF80080A8F10108CCF854
:101BE0000080D1F828C0BCF1000F18D0D1E90789D6
:101BF000C8F80890D1E90789C9F80480DCF80480A6
:101C000001F11809C84504BFD1F82080CCF8048040
:101C10008E62DCF80080A8F10108CCF80080D1F8D1
:101C20002CC0D3F810900AFA0CF848EA0908C3F857
:101C300010800CEB8C0C04EB8C0CDCF804C0C1F8AD
:101C400008C0DCF80880C1F80C80DCF80880C8F80F
:101C50000450CCF80850D1F82CC00CEB8C0C04EBE1
:101C60008C054D6154F82C506D1C44F82C50C96AF9
:101C7000D3F800C0DCF82CC0614588BF012078E7AC
:101C800044000020D02D00202DE9F0474FF0000A3D
:101C9000FFF7F4FC474C606B401E6063606B0028EC
:101CA0007DD1A06800287FD0DFF80CC1DCF80000EF
:101CB00000250127002818BF404B5DD0DCF80C0040
:101CC000C168D1E90762886AB260D1E9072672600B
:101CD000426801F11806B24204BF0A6A42608D628E
:101CE0000268521E0260D1E902624869B260D1E91D
:101CF0000226726042680E1DB24204BFCA6842608A
:101D00004D610268521E0260CA6AD4F8109007FA48
:101D100002F848EA0900206102EB820003EB800030
:101D200042688A60D2F80880C1F80C80D2F8088036
:101D3000C8F804609660C86A00EB800003EB80027C
:101D40004A6153F82020521C43F82020C86A2268B8
:101D5000D26A904228BFE761DCF800000028ADD1CC
:101D600051B1A16B2046096800290FBF4FF0FF3128
:101D7000816BC96809688162A6693EB1FFF7CCFE34
:101D8000002818BFE761761EF8D1A561E06930B17F
:101D90000B494FF080504FF0010A086000E003E06B
:101DA000BFF34F8FBFF36F8FFFF776FC5046BDE850
:101DB000F0870000440000205C2E0020D02D002081
:101DC00004ED00E04C454420426C696E6B696E671F
:101DD00000000000F41D000800000020A400000026
:101DE0005C0E0008981E0008A4000020F47100009A
:101DF0006C0E000800000000000000000000000061
:101E0000E8030000C41D00080000000000000000FE
:101E100000000000000000000000000000000000C2
:101E20000000000002040608000000000102030494
:101E3000010203040607080900000000000000007A
:101E40000000000000000000000000000000000092
:101E50000000000000000000000000000000000082
:101E6000000000000000000004000000000000006E
:101E70000000000000000000AAAAAAAA00000000BA
:101E80000000000000000000000000000000000052
:081E900000000000000000004A
:0400000508000131BD
:00000001FF
