:020000040800F2
:10000000107D0020490100084B0300084703000849
:100010004903000895020008E50B000800000000F5
:10002000000000000000000000000000A104000823
:100030009702000800000000C1030008A5040008A2
:100040006301000863010008630100086301000800
:1000500063010008630100086301000863010008F0
:1000600063010008630100086301000863010008E0
:1000700063010008630100086301000863010008D0
:1000800063010008630100086301000863010008C0
:1000900063010008630100086301000863010008B0
:1000A00063010008630100086301000863010008A0
:1000B000910500086301000863010008630100085E
:1000C0006301000863010008630100086301000880
:1000D0006301000839070008D10800088D090008ED
:1000E0006301000863010008630100086301000860
:1000F0006301000863010008630100086301000850
:10010000630100086301000863010008630100083F
:10011000D90500089506000863010008630100087E
:10012000630100086301000863010008630100081F
:10013000DFF810D000F09CF8004800478117000855
:10014000AFF30080107D0020064880470648004736
:10015000FEE7FEE7FEE7FEE7FEE7FEE7FEE7FEE777
:10016000FEE7FEE7BD040008310100082DE9F05F5D
:100170000546002092469B46884606468146402416
:100180001BE0284641464746224600F061F85346A8
:100190005A46C01A914110D311461846224600F023
:1001A00048F82D1A67EB01084F462246012000212E
:1001B00000F03FF817EB00094E41201EA4F10104A6
:1001C000DFDC484631462A464346BDE8F09F10B57D
:1001D000431A934209D28318881803E010F8011DCE
:1001E00003F8011D521EF9D210BD40EA01039B071E
:1001F00003D009E008C9121F08C0042AFAD203E09C
:1002000011F8013B00F8013B521EF9D210BDD2B2E9
:1002100001E000F8012B491EFBD270470022F6E7EF
:1002200010B513460A4604461946FFF7F0FF20466C
:1002300010BD202A04DB203A00FA02F100207047AA
:100240009140C2F1200320FA03F319439040704714
:10025000202A04DB203A21FA02F00021704721FA1B
:1002600002F3D040C2F12002914008431946704782
:10027000064C074D06E0E06840F0010394E80700F3
:1002800098471034AC42F6D3FFF756FF505300089E
:1002900070530008FEE770472DE9F001CB7800228B
:1002A00003F00F0C13F0100F1CBF8B7843EA0C0CFB
:1002B0000B784FF00F0613F0FF0F4FF0010518BF3A
:1002C000046819D00F8805FA02F31F409F420FD12E
:1002D000970006FA07F824EA08040CFA07F73C43EB
:1002E000CF78282F08BF436102D0482F08BF036191
:1002F000521C082AE6D304600A88FF2A87BF446894
:100300000022BDE8F001704702F108030F8805FAEA
:1003100003F31F409F420FD1970006FA07F824EA23
:1003200008040CFA07F73C43CF78282F08BF436135
:10033000CF78482F08BF0361521C082AE4D34460D9
:10034000BDE8F0017047FEE7FEE7704710B4C278E1
:1003500001784FF00F0C012322B3184A126801F103
:10036000E02102F4E062C2F5E062120AC2F1040484
:100370002CFA02F290F801C00CFA04FC84782240B6
:1003800042EA0C02120181F80024007800F01F01FB
:1003900003FA01F14009800000F1E020C0F80011EB
:1003A00010BC704701F01F0003FA00F049098900F2
:1003B00001F1E021C1F8800110BC70470CED00E0B4
:1003C00070470000044A0029116914BF084321EA5C
:1003D000000010617047000000100240044A00292C
:1003E000D16814BF084321EA0000D06070470000C4
:1003F00000100240254910B44A6812F00C03244A48
:1004000018BF042B01D0082B01D0026015E04A6808
:100410004B6802F470124FF0020C13F4803F0CEBA7
:10042000924203D04B6813F4003F03D0194B5A4358
:10043000026002E0164B5A4302604A680F2303EA47
:100440001212154B9A5CD0F800C02CFA02F24260EE
:10045000D1F804C0072404EA1C2C13F80CC022FABB
:100460000CFCC0F808C0D1F804C004EADC2C13F876
:100470000C30DA40C2604968032303EA9131074B2C
:10048000595CB2FBF1F1016110BC704700100240F1
:1004900000127A0000093D004400002040000020C6
:1004A000704700000448D0E90421521C41F10001CA
:1004B000C0E904217047000020000020304882B0CD
:1004C000016841F00101016042682E49114041601C
:1004D000416821F4FE0141604FF41F018160002159
:1004E00000910191016841F480310160016801F4DB
:1004F000003101910099491C0091019919B90099A5
:10050000B1F5A06FF2D1016811F4003F31D01E495E
:100510000A6842F010020A600A6822F003020A60C8
:100520000A6842F002020A60416841604168416025
:10053000416841F480614160416821F47C1141606F
:10054000416841F4E8114160016841F08071016047
:10055000016811F0007FFBD0416821F00301416088
:10056000416841F002014160416801F00C01082935
:10057000FAD106494FF00060086002B070470000F1
:10058000001002400000FFF80020024008ED00E0EB
:1005900010B50121880700F014F8002808BF10BD2D
:1005A0000121880700F00AF8BDE8104001A000F022
:1005B0001BBB000068656C6C6F000000C9430182C2
:1005C0007047038A002280890B4200EA01001CBFA9
:1005D00000280122104670472DE9F041274D288858
:1005E000274C10F0200F05F104060BD0608AB0F5FF
:1005F000806F24BF3088BDE8F0813188214A1154D2
:10060000401C6082288810F0100F17D01E4F4FF04A
:1006100000084FF48062A7F5006107F54160FFF71D
:10062000D6FD608AA7F80E0CA4F812804FF4806102
:10063000A7F50060FFF7F2FD28883088288810F0C1
:10064000800F08BFBDE8F0811048018811F0800FCD
:1006500008BFBDE8F0810E4AA179525C3280491C86
:10066000C9B2A171E279914218BFBDE8F081018859
:1006700021F080010180BDE8F0810000004C0040C5
:1006800000000020E03B0020E04300200C4C004034
:10069000F65A00202DE9F041224C2088224D10F01E
:1006A000200F0BD0A88AB0F5806F24BFA088BDE8CA
:1006B000F081A1881D4A1154401CA882208810F0A6
:1006C000100F14D01A4E00274FF48062A6F5A051E7
:1006D00006F11400FFF77BFDA88A7082AF824FF409
:1006E0008061A6F5A050FFF799FD2088A08820889A
:1006F00010F0800F1ABFA08910F0800FBDE8F081C4
:100700000C49287A095CA180401CC0B22872697A21
:10071000884218BFBDE8F081A08920F08000A08148
:10072000BDE8F0810050004000000020E03F0020C4
:10073000E0530020F65B00202DE9F041274D28888A
:10074000274C10F0200F05F104060BD0A089B0F55E
:10075000806F24BF3088BDE8F0813188214A115470
:10076000401CA081288810F0100F17D01E4F4FF0AA
:1007700000084FF48062A7F80280A7F5A051381D49
:10078000FFF725FDA0897880A4F80C804FF48061E4
:10079000A7F5A050FFF742FD28883088288810F080
:1007A000800F08BFBDE8F0811048018811F0800F6C
:1007B00008BFBDE8F0810E4A2178525C3280491CA6
:1007C000C9B221706278914218BFBDE8F0810188FA
:1007D00021F080010180BDE8F08100000038014077
:1007E00000000020E02F0020E04300200C380140F2
:1007F000F657002070B50446314886B0816941F44F
:1008000080418161816941F0040181614015ADF849
:10081000100003208DF8120018202A4D8DF81300C7
:1008200004A92846FFF738FD2815ADF8100004206C
:100830008DF8130004A92846FFF72EFD25208DF81A
:10084000140002208DF815008DF8160001258DF892
:10085000175005A8FFF77AFD1B4E304600F0FDF853
:1008600000940024ADF808400C20ADF80440ADF829
:100870000A00ADF80640ADF80C406946304600F07D
:1008800057F9002240F22771304600F038F9012272
:1008900040F22551304600F032F9012240F2244165
:1008A000304600F02CF90121304600F0CDF84FF62B
:1008B0000F70308005480570448006B070BD0000A0
:1008C000001002400008014000380140E0430020D1
:1008D0002DE9F041274D2888274C10F0200F05F115
:1008E00004060BD0E089B0F5806F24BF3088BDE8E6
:1008F000F0813188214A1154401CE081288810F091
:10090000100F17D01E4F4FF000084FF48062A7F56C
:10091000805107F58160FFF75AFCE089A7F80604CB
:10092000A4F80E804FF48061A7F58050FFF776FCA5
:1009300028883088288810F0800F08BFBDE8F08133
:100940001048018811F0800F08BFBDE8F0810E4A01
:10095000A178525C3280491CC9B2A170E278914200
:1009600018BFBDE8F081018821F080010180BDE859
:10097000F08100000044004000000020E03300202F
:10098000E04300200C440040F65800202DE9F041DF
:10099000274D2888274C10F0200F05F104060BD0B6
:1009A000208AB0F5806F24BF3088BDE8F08131889F
:1009B000214A1154401C2082288810F0100F17D0B3
:1009C0001E4F4FF000084FF48062A7F5406107F614
:1009D0000C00FFF7FCFB208AA7F80A08A4F8108097
:1009E0004FF48061A7F54060FFF718FC2888308835
:1009F000288810F0800F08BFBDE8F08110480188FA
:100A000011F0800F08BFBDE8F0810E4A2179525CD9
:100A10003280491CC9B221716279914218BFBDE888
:100A2000F081018821F080010180BDE8F0810000A3
:100A30000048004000000020E0370020E043002094
:100A40000C480040F65900200029818914BF41F468
:100A5000005121F400518181704710B5A0F180410F
:100A6000B1F59C311FD0A0F18041B1F5884125D06E
:100A7000A0F18041B1F590412BD0A0F18041B1F5BA
:100A8000984131D0A0F18041B1F5A04118BF10BD0F
:100A900001210805FFF796FCBDE8104000214FF446
:100AA0008010FFF78FBC01218803FFF797FCBDE89A
:100AB000104000214FF48040FFF790BC0121480412
:100AC000FFF780FCBDE8104000214FF40030FFF735
:100AD00079BC01218804FFF775FCBDE810400021B6
:100AE0004FF48020FFF76EBC0121C804FFF76AFCB9
:100AF000BDE8104000214FF40020FFF763BCC1F3B4
:100B0000421301F01F014FF0010C0CFA01F1012B0F
:100B100008BF0C3003D0022B0CBF10301430002A59
:100B2000026814BF114322EA01010160704700000E
:100B300030B50446008A85B00D464CF6FF7108407A
:100B4000E98808432082A0894EF6F3110840A9885D
:100B50002A8911436A8910430843A081A08A4FF66D
:100B6000FF410840A9890843A0826846FFF742FC7C
:100B7000A4F18040B0F59C300CBF03980298A18985
:100B800011F4004F00EBC00101EB0010296814BF05
:100B900049008900B0FBF1F0114A6FF0180CA2FB7C
:100BA0000031490909010B0903FB0CF300EB830039
:100BB000A38913F4004F4FF0320314BF03EBC000BE
:100BC00003EB0010A2FB00204FEA501014BF00F00E
:100BD000070000F00F000843208105B030BD000081
:100BE0001F85EB51FEE700000FB4054B10B503A9BC
:100BF000044A029800F01EF810BC5DF814FB0000D7
:100C0000ED15000818000020C9B241EA012141EAAF
:100C100001410160704702E008C8121F08C1002AA4
:100C2000FAD170477047002001E001C1121F002A6D
:100C3000FBD170472DE9FF4F8DB00F4605460026CA
:100C400006E025280BD0DDE90F1290476D1C761CBD
:100C500028780028F5D111B03046BDE8F08F002487
:100C6000A246A1460122E94900E0044315F8013FEC
:100C7000203B02FA03F00842F7D128782A2810D046
:100C80006FF02F022878A0F13001092914D80AEB5F
:100C90008A0102EB410144F0020400EB010A6D1CE1
:100CA000F0E701CF5FEA000A03D544F40054CAF12B
:100CB000000A44F002046D1C28782E2817D115F87C
:100CC000010F44F004042A280ED06FF02F02287878
:100CD000A0F1300109290AD809EB890102EB410191
:100CE00000EB01096D1CF2E757F8049B6D1C287896
:100CF0006C280FD006DC4C2817D068280DD06A2845
:100D000014D104E0742810D07A280FD10DE044F4F7
:100D100000140AE044F4801401E044F440146978BB
:100D2000814202D104F580146D1C6D1C28786E2858
:100D30001ED00CDC632830D004DC00288BD058286F
:100D400011D19FE0642867D069280CD164E0732832
:100D50002DD004DC6F2872D0702804D194E075285F
:100D60006ED078286DD0DDE90F129047761C4BE1EC
:100D7000C4F30250022806D0032809D0042801CF6A
:100D800009D0066040E101CFF117C0E900613BE105
:100D900001CF068038E1067036E117F8040B8DF8B4
:100DA000000000208DF80100EB46012003E057F819
:100DB00004BB4FF0FF3061074FF0000102D40DE09B
:100DC00008F10101884649450FDA8045F8DB1BF838
:100DD00008100029F4D108E008F101018846814299
:100DE000FADB1BF808100029F6D1DDE90F23AAEB86
:100DF00008008146214600F031F9304400EB080636
:100E000004E0DDE90F121BF8010B9047B8F101086F
:100E1000F7D221464846F2E00A21C4F302524FF0CD
:100E2000000B0891022A04D001CFC117032A09D070
:100E30000AE0FF1D27F00707F7E8020108E02CE0B1
:100E40001EE01FE000B2C117042A01D140B2C11751
:100E5000021E71F1000206DA0023D0EB030063EBFF
:100E600001012D2202E0220504D52B228DF8242039
:100E7000012203E0E20701D02022F7E7904653E089
:100E80000A210BE0102109E010214FF0000B44F083
:100E900004044FF00809089103E008214FF0000B0B
:100EA0000891C4F30252022A04D001CF0021032A80
:100EB00006D006E0FF1D27F00707F7E8020103E070
:100EC00080B2042A00D1C0B24FF0000822072BD50F
:100ED0002A78702A07D0DDF820C08CF0100C5CEA6C
:100EE0000B0C05D00EE040228DF82420012208E0F2
:100EF00050EA010306D030238DF824308DF82520E8
:100F000002229046089B83F0080353EA0B030BD19F
:100F100050EA010201D1620706D530228DF8242063
:100F20004FF00108A9F101092A78582A04D038A203
:100F30000B9208AA0A920BE03AA2F9E75B46089ADC
:100F4000FFF714F90B9B9B5C0A9A521E0A921370CE
:100F500050EA0102F2D10A98ADEB000000F1200B3B
:100F6000600702D524F4803401E04FF00109D9452F
:100F700002DDA9EB0B0000E0002000EB0B01414477
:100F80000890AAEB010AE00306D4DDE90F2321460D
:100F9000504600F063F806444FF0000908E009A944
:100FA00011F80900DDE90F12904709F10109761CDB
:100FB000C145F4DBE0030CD5DDE90F2321465046A3
:100FC00000F04CF8064404E0DDE90F1230209047B1
:100FD000761C0899481E08900029F5DC08E00A985C
:100FE0000A990078491C0A91DDE90F129047761C96
:100FF000BBF10001ABF1010BF1DC21465046DDE90C
:101000000F2300F019F806446D1C21E609280100A1
:10101000303132333435363738396162636465666E
:101020000000000030313233343536373839414230
:1010300043444546000000002DE9F04104460025E8
:101040001E461746880404D405E039462020B047E0
:101050006D1C641EF9D52846BDE8F0812DE9F041EC
:10106000044600251E469046C80301D5302700E0FF
:101070002027880404D505E041463846B0476D1C5A
:10108000641EF9D52846BDE8F08100F079BC10B5A2
:101090004FF48C71012000F0F1FE040008BF10BD78
:1010A00000F085FC204610BD10B5044600F078FC29
:1010B0002046BDE8104001F089B900F07DBC00F089
:1010C00065BD000030B583B01D4603460020CDE964
:1010D0000010944601AA6046296800F043FE04000F
:1010E00006D0014605A0FFF77FFD03B0204630BDC6
:1010F0000198286003B0002030BD00004261736594
:10110000363420E7BC96E7A081E5A4B1E8B4A53A5F
:101110002025640A0000000070B50B4638490A68B3
:10112000CC68002A1CBF8A68002A40D000FB03F26A
:101130001546002818BF002B39D0B2FBF0F09842BA
:1011400035D112F1040F32D812F0030F03D002F0A0
:101150000300281A021D54B36068904203D2A469A8
:10116000002CF9D123E014B3861A00234FF0010CB0
:10117000242E1ED2C4F808C06069002819BFA269D5
:101180008261A069C860A06900281CBF62694261D1
:101190006361A361087C10F0010F01D001F04AFEE9
:1011A000203429462046FFF739F8204670BD00203C
:1011B00070BDA018203E4662C0E90A342669066365
:1011C000104E40F8206F104EC6610669002E18BF01
:1011D000F06066694661A66986614669002E14BFA3
:1011E000B061C8608669002E18BF7061C4E904034D
:1011F000A361C4E9012C087C10F0010FD0D0CDE729
:10120000F85C002055AA00FF669911EE30B4002268
:10121000002804BF30BC704742490B68002B19BF3F
:101220008B68002B30BC704750F8203DDFF8F8C0C9
:10123000634504BFC369DFF8F4C04FF0000CC0F889
:1012400008C0C3680BB19C6874B103690BB19C689A
:1012500044B3002A5ED0087C10F0020F04BF30BCFB
:10126000704730BC01F0E6BD5A6844682244203221
:101270005A60D0E90323002B13610246C06818BFEF
:10128000D860C2F800C0C2F804C0C2F808C0C2F8F2
:101290000CC0C2F810C0C2F814C0C2F818C0C2F81E
:1012A0001CC0D2E742685C682244203242601A695E
:1012B0000261426942B38469946182691AB100BFD4
:1012C000D0E9052462615A6942619C698461002AFF
:1012D00014BF9061C8608269002A18BF506102691A
:1012E000002A18BFD060C3F800C0C3F804C0C3F818
:1012F00008C0C3F80CC0C3F810C0C3F814C0C3F8CA
:1013000018C0C3F81CC0A6E78269002A18BFCA60CB
:10131000D6D1D8E7CA688261002A18BF5061C86078
:1013200099E70000F85C002055AA00FF669911EECD
:1013300070B44FF0000C102A08BF872505D0082A8A
:101340000FBF1B251E4870BC70478B1813F8014C4B
:101350004CEA440400EB020C0CF8014C13F8010CAD
:10136000C409ACF1010012F0010F06D113F8026CB0
:101370005B1E44EA460400F8014D521E521012D082
:1013800013F8014C13F8026DE40944EA460400F82E
:10139000014C1C7813F8016CE40944EA460400F897
:1013A000024D521EECD108781CF8011CC0094042C5
:1013B000284048400CF8010C70BC00207047000029
:1013C000009FFFFF002B08BF704710B4401E491E4E
:1013D000521E13F0010F07D011F801CF12F8014F80
:1013E0008CEA040C00F801CF5B0804BF10BC704706
:1013F00091F801C054785B1E8CEA040C80F801C09F
:1014000011F802CF12F8024F8CEA040C00F802CF58
:10141000EED110BC7047000070B504460D46006C5C
:10142000802100262154382800F101011CD23829DE
:1014300047D2C1F13803002B43DD002213F0010035
:101440001CBF6654012283423BDD00BF01EB020C4E
:10145000521C04F80C6001EB020C801C521C04F8B6
:101460000C608342F2DC2CE0402918D2C1F1400329
:10147000002B14DD002213F001001CBF6654012272
:1014800083420CDD01EB020C521C04F80C6001EBF2
:10149000020C801C521C04F80C608342F2DC2146D2
:1014A000084600F0B1F826606660A660E660266136
:1014B0006661A661E66126626662A662E6622663EE
:1014C0006663206CD4E91221C00010187141C4E990
:1014D000120194F8482084F83F20030A43EA01628D
:1014E000030C84F83E2043EA0142000E84F83D20BC
:1014F00040EA012084F83C00E06C84F83B00010ADB
:1015000084F83A10010C84F83910000E84F8380081
:101510002146084600F078F8206D000E2870606DB6
:10152000000E2871A06D000E2872E06D000E287369
:10153000206E000E2874606E000E2875A06E000EDE
:101540002876E06E000E2877206D000C6870606DC4
:10155000000C6871A06D000C6872E06D000C68737F
:10156000206E000C6874606E000C6875A06E000C34
:101570006876E06E000C6877B4F85000000AA87036
:10158000B4F85400000AA871B4F85800000AA87210
:10159000B4F85C00000AA873B4F86000000AA874EC
:1015A000B4F86400000AA875B4F86800000AA876C8
:1015B000B4F86C00000AA87794F85000E87094F82A
:1015C0005400E87194F85800E87294F85C00E873ED
:1015D00094F86000E87494F86400E87594F8680082
:1015E000E87694F86C00E87770BD000004490A883A
:1015F00012F0400FFBD0034AC1B2118070470000C7
:1016000000380140043801402DE9F04FC9B06A4666
:101610005FF0100331F802CB5B1E9CFA9CFC11F8C2
:10162000024B4FEA0C4C4CEA042C11F8014C4CEAEA
:10163000040C42F804CBEDD110230022C3F1400C7E
:101640000DF13801921C51F834394FEA734484EAA1
:10165000F34484EA932451F8203B4FEAF31585EADA
:10166000B34585EAD303234451F8244951F8405B3C
:101670002C44234441F804390B684FEA734484EA4C
:10168000F34484EA932451F8343C4FEAF31585EA95
:10169000B34585EAD303234451F8144C51F8385C20
:1016A0002C4423448B60091D9445CBD8D0F850C0FE
:1016B000CDF81CC1446D4694816D4591C76D44972A
:1016C000036E4393456E4295826E4192D0F86C80D2
:1016D000DFF8A8B00026CDF8008100BF4FEAB319AB
:1016E00089EAF32903EA050A22EA030E89EA736903
:1016F0008AEA0E0AD1445BF826A004EA010ED0441F
:10170000C1445DF8268084EA010AC1444FEABC085E
:1017100088EA7C380AEA0C0A88EABC588AEA0E0A87
:10172000C24490462A461D4607EB09030F46214650
:101730006446761C09EB0A0C402ECFD3479EB44476
:10174000C0F850C0DDF818C1A444C0F854C0DDF89A
:1017500014C16144816544993944C1654399194470
:101760000166429929444166419911448166409934
:101770004144C16649B0BDE8F08F0000D02E00089A
:101780002DE9F04FE9B0664800F0F6FD654800F03D
:10179000E2FD65A332AC0FCB84E80F004FF4E130DB
:1017A000FFF728F842F21071634801F0F3FA46A8F7
:1017B00021904FF00008CDE912886348614ECDE9D1
:1017C00016606248189062481990CDF840806148D0
:1017D0001A90DFF86CA1594FCDE9147AA146102573
:1017E0005D48EB4600241B90109919F804000BF893
:1017F00001001098401C109040280DD15946084611
:10180000FFF702FFDDE9120110F5007241F100005F
:10181000CDE91220CDF84080641CAC42E4D3684688
:101820002199FFF7F9FD102200924FF000094021A5
:1018300032AB22A8CDF80C8003AA00F093FA010085
:101840001CBF4648FFF7D0F945A060AC0FC884E83C
:101850000F0047A064AF0FC887E80F0060AD1026E7
:1018600056AC684600F094FC022000F081FC014672
:10187000684600F0D1FC78B980223946684600F00D
:101880009DFB48B932462946684600F0C7FB18B9A7
:101890002146684600F0F8FA684600F04FFC002048
:1018A000CDE91200CDF840802448CDE9140A25483E
:1018B00016902548179025481890254819902548D6
:1018C0001A901025244836AE0DF59C7B6F460024F7
:1018D0001B901099305D78541098401C109040284F
:1018E0000DD139460846FFF78FFEDDE9121011F5DC
:1018F000007140F10000CDE91210CDF84080641C69
:10190000AC42E6D359466846FFF786FD09F1010966
:10191000B9F57A7F98DB69B00020BDE8F08F000050
:10192000A80100206800002000010203040506074A
:1019300008094142434445461804002067E6096A05
:1019400085AE67BB72F36E3C3AF54FA57F520E51E0
:101950008C68059BABD9831F19CDE05BFC10000898
:1019600066B0CF31F56AC16ABF4610DF87A1AE20ED
:101970003D2E6DE2A12517BAC5B31BBD0E7E3B54AB
:101980009446012908D000291CBF6FF02000704741
:101990001A46614600F03CBD1A46614600F098BF09
:1019A000002808BF70474FF48C7101F031BA4FF432
:1019B0008C71FEF733BC00002DE9F04FC7B00F4625
:1019C0000446164668464FF48C71FEF727FC00204B
:1019D000606004F1080532463946684600F0D6F8E2
:1019E000469000287DD1009820600198694601EB5F
:1019F0008000009900EB011151F8080F45F8040B25
:101A000051F8040F45F8040B51F8040F45F8040B86
:101A100051F8040F45F8040B2068A1F11C0C461E78
:101A2000002E7DDD584861462C46B24600F59052A6
:101A300000F5B05700F5D05800F5F05951F804EB17
:101A40000EF0FF03CEF3072BC35C10F80BB052F877
:101A5000233057F82BB083EA0B03CEF3074B00EB90
:101A60001E6E10F80BB09EF800E058F82BB059F835
:101A70002EE08BEA0E0B83EA0B0344F8043B51F88B
:101A8000043B03F0FF0BC3F3072E10F80BB010F864
:101A90000EE052F82BB057F82EE08BEA0E0BC3F392
:101AA000074E00EB136310F80EE01B7858F82EE099
:101AB00059F823308EEA03038BEA030344F8043B0E
:101AC00051F8043B03F0FF0BC3F3072E10F80BB0E3
:101AD00010F80EE052F82BB057F82EE08BEA0E0B00
:101AE00000E047E0C3F3074E00EB136310F80EE08D
:101AF0001B7858F82EE059F823308EEA03038BEA5E
:101B0000030344F8083B51F81C3903F0FF0BC3F3FF
:101B1000072E10F80BB010F80EE052F82BB000E0D2
:101B20001CE057F82EE0BAF1010A8BEA0E0BC3F362
:101B3000074E00EB136310F80EE01B7858F82EE008
:101B400059F823308EEA03038BEA030344F8043C7C
:101B50007FF474AFACEB061C05EB0615DCF8000057
:101B60002860DCF804006860DCF80800A860DCF895
:101B70000C00E86068464FF48C7101F049F9469812
:101B800047B0BDE8F08F000078300008F0B4802A3C
:101B900008BF0A230DD0C02A08BF0C2309D0B2F514
:101BA000807F12BF6FF01F000E23036002D0F0BCD5
:101BB000704703600023436000F108035FEA521C92
:101BC0001CBF9C4652090CD08D7831F8034B521E35
:101BD00065F31F4411F8015B44EA05644CF8044BBB
:101BE000F2D15F4C0168A4F508500A2908BF002211
:101BF00009D00C2908BF002235D00E2908BF4FF0AC
:101C0000000C67D0A9E053F80C1B54F822C0521CFA
:101C100081EA0C0C53F8041B0A2AC1F30725C1F30F
:101C20000746455D865D85EA06258CEA050C00EBD6
:101C300011652D788CEA054CCDB2455D8CEA056CBA
:101C4000C3F800C053F80C5C85EA0C0CC3F804C060
:101C500053F8085C85EA0C0C81EA0C01C3F808C053
:101C6000D960D0D379E054F822C01968521C81EAB7
:101C70000C0C5969C1F30725C1F30746455D865D24
:101C800085EA06258CEA050C00EB11652D788CEAB7
:101C9000054CCDB2455D8CEA056CC3F818C05D6893
:101CA00085EA0C0CC3F81CC09D6885EA0C0CC3F8CF
:101CB00020C0DD6885EA0C0CC3F824C01D6985EAE4
:101CC0000C0C81EA0C01C3F828C0D9621833082A29
:101CD000C9D342E054F82C2019680CF1010C514092
:101CE000DA69C2F30725C2F30746455D865D85EADA
:101CF0000625694000EB12652D7881EA0541D5B2D1
:101D0000455D81EA056119625D68694059629D68B7
:101D100069409962DD686940D962CEB21D69865D0D
:101D2000C1F307477540C1F30726C75D865D00EB29
:101D30001161360286EA07460978754085EA016135
:101D400019635D69694059639D69694099635140B0
:101D5000D9632033BCF1070FBCD3F0BC002070471F
:101D6000785200082DE9FF5F1D460E9F8FB1424853
:101D7000A0FB07204008A0EB8002D21918BF012267
:101D80000244B2F1804F08D302984FF0FF31016056
:101D90006DE002990020086063E09200521C9142BD
:101DA00063D30099002960D010EB400B4FF0000680
:101DB0000C4628D015F8019B15F801AB4FEA9900A5
:101DC00015F8018B00F08EFA04F8010B4FEA0910A8
:101DD00000EB2A1000F03F0000F084FA04F8010B39
:101DE0004FEA8A0000EBA81000F03F0000F07AFAFA
:101DF00004F8010B08F03F0000F074FAF61C04F838
:101E0000010BB345D6D8BE4225D215F8018B761CFE
:101E1000BE422CBF00252D784FEA980000F062FAF0
:101E200004F8010B4FEA081000EB251000F03F000A
:101E300000F058FA04F8010B4FF03D08BE4228BFED
:101E400004F8018B05D22807800E00F04BFA04F845
:101E5000010B04F8018B0098211A02980160002000
:101E6000207004B00020BDE8F09F0298026004B02A
:101E70006FF02900BDE8F09FABAAAAAA014A126838
:101E800010470000540000202DE9F04794B0894627
:101E900007001CBF3868002823D0BC6B002C18BF7B
:101EA000B9F1000F1DD046694FF0100106A800F0EF
:101EB000AFFF10210AA800F0ABFF06AD0DF1280A14
:101EC00010210EA800F0A4FF38680EAB1946D0F818
:101ED000148012A800904246384600F0C3F920B1A1
:101EE0000EE014B03448BDE8F08742460EA92846FB
:101EF000FFF71EFA20B9424629465046FFF718FA66
:101F000010210EA800F084FF226A04F110014FF0A6
:101F10000008B2421FD202A835001CBF00234FF0B8
:101F2000800C13D0934288BF80F8008008BF80F8EF
:101F300000C03CBF91F800A080F800A000F10100B3
:101F400001F1010103F101036D1EEBD102A933463A
:101F50000AAA084602E0334606AA02A8FFF732FAA8
:101F60002246334602A91046FFF72CFA01A8234661
:101F7000009032461946384600F074F9050004D145
:101F8000324621464846FEF722F9102106A800F005
:101F90003FFF10210AA800F03BFF102104F11000C0
:101FA000C4F8208000F034FF1021204600F030FFFC
:101FB00014B02846BDE8F087009FFFFF70B5154DAF
:101FC00004001EBF20680028002911D04FF0010333
:101FD000204600F0EFF8002818BF70BD2068007898
:101FE000022818BF032805D0042818BF242801D0D0
:101FF000284670BD4FF024014FF00100FFF73EFF6F
:10200000002804BF044870BD1021A06300F000FF49
:10201000002070BD009FFFFF809EFFFF2DE9F74F5E
:1020200082B0174602980E464FF0000A00281EBFE5
:1020300000680028002E22D002998C6BFCB1456903
:10204000206A00281CBF2A1ABA4222D204F11001C9
:1020500008443146FEF7BBF822462B46104604F1F1
:102060001001FFF7AFF901A8234600902A46194650
:10207000029800F0F7F85FEA000A58D103E005B0D3
:102080002D48BDE8F08F206A281A3F1A0021064427
:1020900021627819401EB0FBF5FB4FF00109BBF13E
:1020A000010F88BF4FEA550835D9204615B3721E77
:1020B000431E611E15F0010F07D012F8010F13F82F
:1020C00001CF80EA0C0001F8010F5FEA080011D08F
:1020D00092F801C093F801A0401E8CEA0A0C81F826
:1020E00001C012F802CF13F802AF8CEA0A0C01F813
:1020F00002CFEDD101A8234600902A461946029846
:1021000000F0B0F85FEA000A11D17F1B09F1010964
:102110002E44D945C9D357B1206A04F110010844AF
:102120003A463146FEF753F8206A3844206205B03B
:102130005046BDE8F08F0000009FFFFF002808BF59
:10214000704710B50446806B28B1242100F060FE72
:10215000A06B00F03BF9606B18B12168896949698F
:1021600088472046BDE810403C2100F051BE0000E9
:1021700006494A6842B10A78824201D148687047EC
:10218000CA680831002AF6D1002070470C530008B5
:102190000021016041608160C16001614161816134
:1021A000C161016241628162C16201634163816315
:1021B0007047000030B4174D012B18BF002B1AD107
:1021C000D0F800C0BCF1000F15D09CF8104014F0FE
:1021D000020F03D1DCF8044094420CD14260037238
:1021E000012B1CBF9CF80140032C07D0042C18BF06
:1021F000052C03D043B1284630BC7047DCF81830BA
:10220000406B9B6830BC1847DCF81830406BDB68CB
:1022100030BC1847009FFFFF002904BF0F487047DC
:1022200070B50022026042608260C2600261426159
:102230008261C261026242628262C26204460263D9
:102240000D464263A263A869006980476063002865
:102250000EBF03482560002070BD0000009FFFFFF7
:10226000809EFFFFF0B494460268049D194E002A38
:102270002AD000222A600468002C19BF6269002A53
:102280001548F0BC08BF70476478012C04D099420F
:102290001DD1C069C0B912E094451EBF0F48F0BC03
:1022A0007047C5F800C090F90850446B00680A46B2
:1022B00029468069D0F804C02046F0BC6047BCFBCA
:1022C000F2F002FB10C010B13046F0BC7047F0BC19
:1022D00003487047009FFFFF809CFFFF809DFFFF2A
:1022E000809FFFFF010AC0F1190241EA1221C94390
:1022F000C9B200F1410211405B3A120AC0F1330346
:1023000042EA1322D243D2B200F147031A401143EA
:10231000A0F13402120AC0F13D0342EA1322D24373
:10232000D2B2031F1A401143A0F13E02120AC0F1BB
:102330003E0342EA1322D24302F02B021143A0F1E2
:102340003F02120AC0F13F0042EA1020C04300F0F1
:102350002F000843704710B504464FF4A071FDF7F5
:102360005DFF04F12000FFF722FB4FF0FF302061FA
:1023700042F21070E06110BD70B500250446C0F84F
:10238000D8504FF4C871DC30FDF748FF04F1080065
:10239000256000F047FDD4F8D800DFF82CC00023FA
:1023A000202201211428A8BF70BD00EB800004EB9F
:1023B0008000C0E93A21C0E937C3D4F8D800401CF6
:1023C000C4F8D80070BD0000D9230008014949684D
:1023D00008470000540000202DE9F0411646DFF8C0
:1023E0002C8000241D460F46B4EB960F0BD22868B4
:1023F0004146001D286007EB8400FEF705FC641CC5
:10240000B4EB960FF3D30020BDE8F0817856341278
:102410002DE9F0438C78B1F800C0436864F31F4C99
:10242000CC7889B000EB83034CEA046CCDF800C093
:1024300053F8084F8CEA040CCDF800C08C79B1F841
:1024400004C064F31F4CCC794CEA046CCDF804C092
:1024500053F8044F8CEA040CCDF804C08C7AB1F820
:1024600008C064F31F4CCC7A4CEA046CCDF808C069
:1024700053F8044F8CEA040CCDF808C08C7BB1F8FB
:102480000CC0C97B64F31F4C4CEA01610391D3F883
:1024900004C0083381EA0C01039100684FF0FF315A
:1024A00001EB6005FD48002D00F5806C00F5006132
:1024B00000F5406440F3F380009E53F8047B06F07F
:1024C000FF08DDF8089050F82880C9F3074987EA2B
:1024D0000807DDF80C8051F82990C8F307285CF84C
:1024E000288088EA090887EA0807DDF80480DDF813
:1024F0000C904FEA1868C9F3074954F8288087EA16
:102500000807DDF80480049708F0FF0853F8047BFF
:1025100050F8288051F8299087EA0807C6F3072861
:102520005CF8288088EA090887EA0807DDF808804F
:10253000C6F307494FEA1868360E54F8288087EA30
:102540000807DDF80880059708F0FF0853F8047BBA
:1025500050F8288051F8299087EA0807DDF80480B0
:10256000C8F307285CF8288088EA090887EA080782
:10257000DDF80C804FEA186854F8288087EA0807CD
:10258000DDF80C80069708F0FF0853F8047B50F83C
:102590002880DDF8049087EA0807DDF80880C9F391
:1025A0000749C8F3072851F829905CF8288054F8A7
:1025B000266088EA090887EA08077E40049F079694
:1025C000FFB253F8046B50F827707E40079FDDF888
:1025D0001880C7F30727C8F307485CF8277051F83D
:1025E00028806D1E87EA08077E40059FDDF81C8065
:1025F0003F0EC8F3074854F827707E400096059FA9
:1026000053F8046BFFB251F8288050F827707E40D1
:10261000049FC7F307275CF8277087EA08077E4006
:10262000069FDDF810803F0EC8F3074854F8277066
:102630007E400196069F53F8046BFFB251F8288044
:1026400050F827707E40059FC7F307275CF8277076
:1026500087EA08077E40079FDDF814803F0EC8F325
:10266000074854F827707E400296079F53F8046B82
:10267000FFB251F8288050F827707E40069FC7F3BC
:1026800007275CF8277087EA08077E40049F3F0E03
:1026900054F827707E400396002D3FF70DAF009D44
:1026A0001E68EFB2DDF8088050F82770C8F30748BD
:1026B0007E40039F51F82880C7F307275CF82770F6
:1026C00087EA08077E40019FDDF80C803F0EC8F3C3
:1026D000074854F827707E40019F0496FFB25E6859
:1026E00050F8277051F828807E40C5F307275CF822
:1026F000277087EA08077E40029FC5F307483F0E10
:1027000054F827707E40029F0596FFB29E6850F8ED
:10271000277051F828807E40019FC7F307275CF897
:10272000277087EA08077E40039F3F0E54F8277002
:102730007E40039F0696FFB2DE6850F82700704087
:10274000029EC6F307265CF826C0019EC6F3074624
:1027500051F826108CEA01014840290E54F8211046
:10276000484007900498196900F0FF0C4C4810F895
:102770000CC081EA0C01DDF81CC0069CCCF3072CD0
:10278000C4F3074410F80CC0045D4FEA0C2C8CEA2B
:10279000044C81EA0C01DDF814C0079C00EB1C6CB2
:1027A000C4F307449CF800C081EA0C610091DDF895
:1027B00014C059690CF0FF0C045D10F80CC081EADC
:1027C0000C0C0499C1F30721415C090281EA044120
:1027D0008CEA0101DDF818C0049C00EB1C6CC4F30A
:1027E00007449CF800C081EA0C610191DDF818C033
:1027F00099690CF0FF0C045D10F80CC081EA0C0123
:10280000DDF814C0CCF3072C10F80CC04FEA0C2CE8
:102810008CEA044C81EA0C01DDF81CC000EB1C6C56
:102820009CF800C081EA0C610291D969079BDDF830
:1028300014C0DBB2CCF3074CC35C10F80CC0594099
:10284000069BC3F30723C35C1B0283EA0C43594076
:10285000049B00EB1360007881EA0060039000980D
:1028600010700098000A50700098000C907000984A
:10287000000ED070019810710198000A50710198F3
:10288000000C90710198000ED0710298107202989D
:10289000000A50720298000C907203E0784200081F
:1028A0007841000802982021000ED072039810731E
:1028B0000398000A50730398000C90730398000E5D
:1028C000D073684600F0A4FA09B00020BDE8F08398
:1028D0002DE9F0438C78B1F800C0436864F31F4CD5
:1028E000CC7889B000EB83034CEA046CCDF800C0CF
:1028F00053F8084F8CEA040CCDF800C08C79B1F87D
:1029000004C064F31F4CCC794CEA046CCDF804C0CD
:1029100053F8044F8CEA040CCDF804C08C7AB1F85B
:1029200008C064F31F4CCC7A4CEA046CCDF808C0A4
:1029300053F8044F8CEA040CCDF808C08C7BB1F836
:102940000CC0C97B64F31F4C4CEA01610391D3F8BE
:1029500004C0083381EA0C01039100684FF0FF3195
:1029600001EB6005FD48002D00F5806400F5006C6A
:1029700000F5406140F3F180009E53F8047B06F0BF
:10298000FF08DDF8089050F82880C9F3074987EA66
:102990000807DDF804805CF82990C8F3072854F88C
:1029A000288088EA090887EA0807DDF80C80DDF846
:1029B0000C904FEA1868C9F3074951F8288087EA54
:1029C0000807DDF80480049708F0FF0853F8047B3B
:1029D00050F828805CF8299087EA0807DDF808801D
:1029E000C8F3072854F8288088EA090887EA080706
:1029F0004FEA1668C6F3074951F82880C6F3072640
:102A000087EA0807DDF80880059708F0FF0853F803
:102A1000047B50F828805CF8299087EA0807DDF8E5
:102A20000C80C8F3072854F8288088EA090887EA48
:102A30000807DDF804804FEA186851F8288087EA13
:102A40000807DDF80C80069708F0FF0853F8047BB0
:102A500050F8288054F8266087EA0807DDF80480DB
:102A6000C8F307485CF8288086EA08067E40029F83
:102A70003F0E51F827707E40049F0796FFB253F82F
:102A8000046B50F827707E40059FDDF81880C7F36F
:102A90000727C8F3074854F827705CF828806D1E94
:102AA00087EA08077E40079FDDF81C803F0EC8F3C9
:102AB000074851F827707E400096059F53F8046B35
:102AC000FFB25CF8288050F827707E40069FC7F35D
:102AD000072754F8277087EA08077E40049FDDF82F
:102AE00010803F0EC8F3074851F827707E400196CA
:102AF000069F53F8046BFFB25CF8288050F82770EB
:102B00007E40079FC7F3072754F8277087EA080716
:102B10007E40059FDDF814803F0EC8F3074851F84A
:102B200027707E400296079F53F8046BFFB25CF853
:102B3000288050F827707E40049FC7F3072754F879
:102B4000277087EA08077E40069F3F0E51F82770DE
:102B50007E400396002D3FF70FAF009D1E68EFB239
:102B6000DDF8088050F82770C8F307487E40019FC1
:102B70005CF82880C7F3072754F8277087EA08070E
:102B80007E40039FDDF80C803F0EC8F3074851F8E4
:102B900027707E40019F0496FFB25E6850F8277050
:102BA0005CF828807E40029FC7F3072754F82770FF
:102BB00087EA08077E402F0EC5F3074851F82770B3
:102BC000C5F307257E40029F0596FFB29E6850F828
:102BD00027705CF828807E40039FC7F3072754F8CE
:102BE000277087EA08077E40019F3F0E51F8277043
:102BF0007E40069654F82540039F019DFFB2C5F321
:102C00000745DE6850F827005CF825C0704084EA6C
:102C10000C0C80EA0C00DDF808C04FEA1C6C51F87F
:102C20002C10484007900498196900F0FF0C4C489C
:102C300010F80CC081EA0C01DDF814C0069CCCF33E
:102C4000072CC4F3074410F80CC0045D4FEA0C2CA9
:102C50008CEA044C81EA0C01DDF81CC0079C00EBF7
:102C60001C6CC4F307449CF800C081EA0C6100911D
:102C7000DDF814C059690CF0FF0C045D10F80CC0AD
:102C800081EA0C0C0699C1F30721415C090281EA33
:102C900004418CEA0101DDF810C0049C00EB1C6CBF
:102CA000C4F307449CF800C081EA0C610191DDF88F
:102CB00018C099690CF0FF0C045D10F80CC081EA93
:102CC0000C01DDF81CC0CCF3072C10F80CC04FEA47
:102CD0000C2C8CEA044C81EA0C01DDF814C000EBEA
:102CE0001C6C9CF800C081EA0C610291D969079BB9
:102CF000DDF814C0DBB2CCF3074CC35C10F80CC099
:102D00005940049BC3F30723C35C1B0283EA0C43B3
:102D10005940069B00EB1360007881EA0060039045
:102D2000009810700098000A50700098000C907085
:102D30000098000ED070019810710198000A50712F
:102D40000198000C90710198000ED07102981072D9
:102D50000298000A50720298000C03E078310008D3
:102D600078300008907202982021000ED0720398EB
:102D700010730398000A50730398000C9073039823
:102D8000000ED073684600F043F809B00020BDE89B
:102D9000F083000070B5154D04460020286068607F
:102DA000A860E8600E4628611149124800F028F832
:102DB000242E38BF70BD14F0030F05D004F00300BB
:102DC000C0F10400361A044431462046FDF726FAC5
:102DD000C5E90046A6F12000AC606060A96806481D
:102DE0000860A8680549C161E86070BDF85C002012
:102DF0000D1200081911000855AA00FF669911EE7E
:102E0000024AC2E90001002070470000540000207F
:102E1000002908BF70470A460021014B1B6818476C
:102E200060000020D021FDF7F9B9002070477047FD
:102E300000207047234830B48068002838D0224AE8
:102E40000168914234D1214BC169994230D18168E6
:102E500001292DD8C16819B1D0F810C0614527D01B
:102E6000D0F814C0BCF1000F02D08469A4451FD073
:102E7000F1B9016919B300BFD1F800C0944504BF8E
:102E8000D1F81CC09C4513D1D1F808C0BCF1010F8A
:102E90000ED8D1F80CC0BCF1000F02D00C69A445CB
:102EA00006D04C6914B18D69AC4201D0844502D082
:102EB00030BC01207047084609690029DCD130BCCC
:102EC00000207047F85C002055AA00FF669911EEBB
:102ED000982F8A4291443771CFFBC0B5A5DBB5E985
:102EE0005BC25639F111F159A4823F92D55E1CABF9
:102EF00098AA07D8015B8312BE853124C37D0C5587
:102F0000745DBE72FEB1DE80A706DC9B74F19BC1CE
:102F1000C1699BE48647BEEFC69DC10FCCA10C24BE
:102F20006F2CE92DAA84744ADCA9B05CDA88F976A2
:102F300052513E986DC631A8C82703B0C77F59BF0C
:102F4000F30BE0C64791A7D55163CA066729291438
:102F5000850AB72738211B2EFC6D2C4D130D3853D5
:102F600054730A65BB0A6A762EC9C281852C729297
:102F7000A1E8BFA24B661AA8708B4BC2A3516CC7C5
:102F800019E892D1240699D685350EF470A06A10FE
:102F900016C1A419086C371E4C774827B5BCB0344D
:102FA000B30C1C394AAAD84E4FCA9C5BF36F2E68EB
:102FB000EE828F746F63A5781478C8840802C78C7A
:102FC000FAFFBE90EB6C50A4F7A3F9BEF27871C67D
:102FD000202122232425262728292A2B2C2D2E2F79
:102FE000303132333435363738393A3B3C3D3E3F69
:102FF000404142434445464748494A4B4C4D4E4F59
:10300000505152535455565758595A5B5C5D5E5F48
:10301000606162636465666768696A6B6C6D6E6F38
:10302000707172737475767778797A7B7C7D7E00A7
:103030003046022100BC813E59B0816CC89AB1591A
:10304000FD4D52C4CF1CFD418BB5C5F601934DAB70
:103050002AD03F8C41022100E2E39261B1F91B17B3
:10306000F159B3ABF0857FD037E64771285B0DB6D9
:10307000335326AFFEFACF6B637C777BF26B6FC561
:103080003001672BFED7AB76CA82C97DFA5947F06B
:10309000ADD4A2AF9CA472C0B7FD9326363FF7CC47
:1030A00034A5E5F171D8311504C723C31896059AE4
:1030B000071280E2EB27B27509832C1A1B6E5AA007
:1030C000523BD6B329E32F8453D100ED20FCB15BF2
:1030D0006ACBBE394A4C58CFD0EFAAFB434D33855B
:1030E00045F9027F503C9FA851A3408F929D38F52F
:1030F000BCB6DA2110FFF3D2CD0C13EC5F97441766
:10310000C4A77E3D645D197360814FDC222A9088DC
:1031100046EEB814DE5E0BDBE0323A0A4906245C68
:10312000C2D3AC629195E479E7C8376D8DD54EA9CD
:103130006C56F4EA657AAE08BA78252E1CA6B4C699
:10314000E8DD741F4BBD8B8A703EB5664803F60EF2
:10315000613557B986C11D9EE1F8981169D98E94E1
:103160009B1E87E9CE5528DF8CA1890DBFE64268FA
:1031700041992D0FB054BB16C66363A5F87C7C84BF
:10318000EE777799F67B7B8DFFF2F20DD66B6BBDF8
:10319000DE6F6FB191C5C55460303050020101033C
:1031A000CE6767A9562B2B7DE7FEFE19B5D7D762F0
:1031B0004DABABE6EC76769A8FCACA451F82829DEC
:1031C00089C9C940FA7D7D87EFFAFA15B25959EBE2
:1031D0008E4747C9FBF0F00B41ADADECB3D4D467DB
:1031E0005FA2A2FD45AFAFEA239C9CBF53A4A4F706
:1031F000E47272969BC0C05B75B7B7C2E1FDFD1C5F
:103200003D9393AE4C26266A6C36365A7E3F3F413C
:10321000F5F7F70283CCCC4F6834345C51A5A5F4A4
:10322000D1E5E534F9F1F108E2717193ABD8D873C7
:10323000623131532A15153F0804040C95C7C75253
:10324000462323659DC3C35E30181828379696A180
:103250000A05050F2F9A9AB50E0707092412123690
:103260001B80809BDFE2E23DCDEBEB264E272769FA
:103270007FB2B2CDEA75759F1209091B1D83839E2B
:10328000582C2C74341A1A2E361B1B2DDC6E6EB281
:10329000B45A5AEE5BA0A0FBA45252F6763B3B4DCB
:1032A000B7D6D6617DB3B3CE5229297BDDE3E33EA9
:1032B0005E2F2F7113848497A65353F5B9D1D1682B
:1032C00000000000C1EDED2C40202060E3FCFC1F5D
:1032D00079B1B1C8B65B5BEDD46A6ABE8DCBCB4623
:1032E00067BEBED97239394B944A4ADE984C4CD4E9
:1032F000B05858E885CFCF4ABBD0D06BC5EFEF2A86
:103300004FAAAAE5EDFBFB16864343C59A4D4DD760
:1033100066333355118585948A4545CFE9F9F9100F
:1033200004020206FE7F7F81A05050F0783C3C44AE
:10333000259F9FBA4BA8A8E3A25151F35DA3A3FE1A
:10334000804040C0058F8F8A3F9292AD219D9DBCE9
:1033500070383848F1F5F50463BCBCDF77B6B6C108
:10336000AFDADA754221216320101030E5FFFF1A31
:10337000FDF3F30EBFD2D26D81CDCD4C180C0C14E1
:1033800026131335C3ECEC2FBE5F5FE1359797A290
:10339000884444CC2E17173993C4C45755A7A7F2B5
:1033A000FC7E7E827A3D3D47C86464ACBA5D5DE7D1
:1033B0003219192BE6737395C06060A0198181984A
:1033C0009E4F4FD1A3DCDC7F44222266542A2A7E02
:1033D0003B9090AB0B8888838C4646CAC7EEEE299B
:1033E0006BB8B8D32814143CA7DEDE79BC5E5EE26D
:1033F000160B0B1DADDBDB76DBE0E03B64323256B7
:10340000743A3A4E140A0A1E924949DB0C06060A1F
:103410004824246CB85C5CE49FC2C25DBDD3D36E0B
:1034200043ACACEFC46262A6399191A8319595A4E2
:10343000D3E4E437F279798BD5E7E7328BC8C84318
:103440006E373759DA6D6DB7018D8D8CB1D5D56476
:103450009C4E4ED249A9A9E0D86C6CB4AC5656FA31
:10346000F3F4F407CFEAEA25CA6565AFF47A7A8EF9
:1034700047AEAEE9100808186FBABAD5F078788868
:103480004A25256F5C2E2E72381C1C2457A6A6F1E7
:1034900073B4B4C797C6C651CBE8E823A1DDDD7C81
:1034A000E874749C3E1F1F21964B4BDD61BDBDDC53
:1034B0000D8B8B860F8A8A85E07070907C3E3E4231
:1034C00071B5B5C4CC6666AA904848D80603030512
:1034D000F7F6F6011C0E0E12C26161A36A35355F64
:1034E000AE5757F969B9B9D01786869199C1C158B5
:1034F0003A1D1D27279E9EB9D9E1E138EBF8F81354
:103500002B9898B322111133D26969BBA9D9D9700C
:10351000078E8E89339494A72D9B9BB63C1E1E224A
:1035200015878792C9E9E92087CECE49AA5555FF6C
:1035300050282878A5DFDF7A038C8C8F59A1A1F859
:10354000098989801A0D0D1765BFBFDAD7E6E63104
:10355000844242C6D06868B8824141C3299999B073
:103560005A2D2D771E0F0F117BB0B0CBA85454FCF1
:103570006DBBBBD62C16163AA5C6636384F87C7C5B
:1035800099EE77778DF67B7B0DFFF2F2BDD66B6BF4
:10359000B1DE6F6F5491C5C5506030300302010138
:1035A000A9CE67677D562B2B19E7FEFE62B5D7D7EC
:1035B000E64DABAB9AEC7676458FCACA9D1F8282E8
:1035C0004089C9C987FA7D7D15EFFAFAEBB25959DE
:1035D000C98E47470BFBF0F0EC41ADAD67B3D4D4D7
:1035E000FD5FA2A2EA45AFAFBF239C9CF753A4A402
:1035F00096E472725B9BC0C0C275B7B71CE1FDFD5B
:10360000AE3D93936A4C26265A6C3636417E3F3F38
:1036100002F5F7F74F83CCCC5C683434F451A5A5A0
:1036200034D1E5E508F9F1F193E2717173ABD8D8C3
:10363000536231313F2A15150C0804045295C7C74F
:10364000654623235E9DC3C328301818A13796967C
:103650000F0A0505B52F9A9A090E0707362412128C
:103660009B1B80803DDFE2E226CDEBEB694E2727F6
:10367000CD7FB2B29FEA75751B1209099E1D838327
:1036800074582C2C2E341A1A2D361B1BB2DC6E6E7D
:10369000EEB45A5AFB5BA0A0F6A452524D763B3BC7
:1036A00061B7D6D6CE7DB3B37B5229293EDDE3E3A5
:1036B000715E2F2F97138484F5A6535368B9D1D127
:1036C000000000002CC1EDED604020201FE3FCFC59
:1036D000C879B1B1EDB65B5BBED46A6A468DCBCB1F
:1036E000D967BEBE4B723939DE944A4AD4984C4CE5
:1036F000E8B058584A85CFCF6BBBD0D02AC5EFEF82
:10370000E54FAAAA16EDFBFBC5864343D79A4D4D5C
:103710005566333394118585CF8A454510E9F9F90B
:103720000604020281FE7F7FF0A0505044783C3CAA
:10373000BA259F9FE34BA8A8F3A25151FE5DA3A316
:10374000C08040408A058F8FAD3F9292BC219D9DE5
:103750004870383804F1F5F5DF63BCBCC177B6B604
:1037600075AFDADA63422121302010101AE5FFFF2D
:103770000EFDF3F36DBFD2D24C81CDCD14180C0CDD
:10378000352613132FC3ECECE1BE5F5FA23597978C
:10379000CC884444392E17175793C4C4F255A7A7B1
:1037A00082FC7E7E477A3D3DACC86464E7BA5D5DCD
:1037B0002B32191995E67373A0C060609819818146
:1037C000D19E4F4F7FA3DCDC664422227E542A2AFE
:1037D000AB3B9090830B8888CA8C464629C7EEEE97
:1037E000D36BB8B83C28141479A7DEDEE2BC5E5E69
:1037F0001D160B0B76ADDBDB3BDBE0E056643232B3
:103800004E743A3A1E140A0ADB9249490A0C06061B
:103810006C482424E4B85C5C5D9FC2C26EBDD3D307
:10382000EF43ACACA6C46262A8399191A4319595DE
:1038300037D3E4E48BF2797932D5E7E7438BC8C814
:10384000596E3737B7DA6D6D8C018D8D64B1D5D572
:10385000D29C4E4EE049A9A9B4D86C6CFAAC56562D
:1038600007F3F4F425CFEAEAAFCA65658EF47A7AF5
:10387000E947AEAE18100808D56FBABA88F0787864
:103880006F4A2525725C2E2E24381C1CF157A6A6E3
:10389000C773B4B45197C6C623CBE8E87CA1DDDD7D
:1038A0009CE87474213E1F1FDD964B4BDC61BDBD4F
:1038B000860D8B8B850F8A8A90E07070427C3E3E2D
:1038C000C471B5B5AACC6666D8904848050603030E
:1038D00001F7F6F6121C0E0EA3C261615F6A353560
:1038E000F9AE5757D069B9B9911786865899C1C1B1
:1038F000273A1D1DB9279E9E38D9E1E113EBF8F850
:10390000B32B989833221111BBD2696970A9D9D908
:1039100089078E8EA7339494B62D9B9B223C1E1E46
:103920009215878720C9E9E94987CECEFFAA555568
:10393000785028287AA5DFDF8F038C8CF859A1A155
:1039400080098989171A0D0DDA65BFBF31D7E6E600
:10395000C6844242B8D06868C3824141B02999996F
:10396000775A2D2D111E0F0FCB7BB0B0FCA85454ED
:10397000D66DBBBB3A2C161663A5C6637C84F87C57
:103980007799EE777B8DF67BF20DFFF26BBDD66BF0
:103990006FB1DE6FC55491C5305060300103020134
:1039A00067A9CE672B7D562BFE19E7FED762B5D7E8
:1039B000ABE64DAB769AEC76CA458FCA829D1F82E4
:1039C000C94089C97D87FA7DFA15EFFA59EBB259DA
:1039D00047C98E47F00BFBF0ADEC41ADD467B3D4D3
:1039E000A2FD5FA2AFEA45AF9CBF239CA4F753A4FE
:1039F0007296E472C05B9BC0B7C275B7FD1CE1FD57
:103A000093AE3D93266A4C26365A6C363F417E3F34
:103A1000F702F5F7CC4F83CC345C6834A5F451A59C
:103A2000E534D1E5F108F9F17193E271D873ABD8BF
:103A300031536231153F2A15040C0804C75295C74B
:103A400023654623C35E9DC31828301896A1379678
:103A5000050F0A059AB52F9A07090E071236241288
:103A6000809B1B80E23DDFE2EB26CDEB27694E27F2
:103A7000B2CD7FB2759FEA75091B1209839E1D8323
:103A80002C74582C1A2E341A1B2D361B6EB2DC6E79
:103A90005AEEB45AA0FB5BA052F6A4523B4D763BC3
:103AA000D661B7D6B3CE7DB3297B5229E33EDDE3A1
:103AB0002F715E2F8497138453F5A653D168B9D123
:103AC00000000000ED2CC1ED20604020FC1FE3FC55
:103AD000B1C879B15BEDB65B6ABED46ACB468DCB1B
:103AE000BED967BE394B72394ADE944A4CD4984CE1
:103AF00058E8B058CF4A85CFD06BBBD0EF2AC5EF7E
:103B0000AAE54FAAFB16EDFB43C586434DD79A4D58
:103B1000335566338594118545CF8A45F910E9F907
:103B2000020604027F81FE7F50F0A0503C44783CA6
:103B30009FBA259FA8E34BA851F3A251A3FE5DA312
:103B400040C080408F8A058F92AD3F929DBC219DE1
:103B500038487038F504F1F5BCDF63BCB6C177B600
:103B6000DA75AFDA2163422110302010FF1AE5FF29
:103B7000F30EFDF3D26DBFD2CD4C81CD0C14180CD9
:103B800013352613EC2FC3EC5FE1BE5F97A2359788
:103B900044CC884417392E17C45793C4A7F255A7AD
:103BA0007E82FC7E3D477A3D64ACC8645DE7BA5DC9
:103BB000192B32197395E67360A0C0608198198142
:103BC0004FD19E4FDC7FA3DC226644222A7E542AFA
:103BD00090AB3B9088830B8846CA8C46EE29C7EE93
:103BE000B8D36BB8143C2814DE79A7DE5EE2BC5E65
:103BF0000B1D160BDB76ADDBE03BDBE032566432AF
:103C00003A4E743A0A1E140A49DB9249060A0C0617
:103C1000246C48245CE4B85CC25D9FC2D36EBDD303
:103C2000ACEF43AC62A6C46291A8399195A43195DA
:103C3000E437D3E4798BF279E732D5E7C8438BC810
:103C400037596E376DB7DA6D8D8C018DD564B1D56E
:103C50004ED29C4EA9E049A96CB4D86C56FAAC5629
:103C6000F407F3F4EA25CFEA65AFCA657A8EF47AF1
:103C7000AEE947AE08181008BAD56FBA7888F07860
:103C8000256F4A252E725C2E1C24381CA6F157A6DF
:103C9000B4C773B4C65197C6E823CBE8DD7CA1DD79
:103CA000749CE8741F213E1F4BDD964BBDDC61BD4B
:103CB0008B860D8B8A850F8A7090E0703E427C3E29
:103CC000B5C471B566AACC6648D89048030506030A
:103CD000F601F7F60E121C0E61A3C261355F6A355C
:103CE00057F9AE57B9D069B986911786C15899C1AD
:103CF0001D273A1D9EB9279EE138D9E1F813EBF84C
:103D000098B32B981133221169BBD269D970A9D904
:103D10008E89078E94A733949BB62D9B1E223C1E42
:103D200087921587E920C9E9CE4987CE55FFAA5564
:103D300028785028DF7AA5DF8C8F038CA1F859A151
:103D4000898009890D171A0DBFDA65BFE631D7E6FC
:103D500042C6844268B8D06841C3824199B029996B
:103D60002D775A2D0F111E0FB0CB7BB054FCA854E9
:103D7000BBD66DBB163A2C166363A5C67C7C84F853
:103D8000777799EE7B7B8DF6F2F20DFF6B6BBDD6EC
:103D90006F6FB1DEC5C55491303050600101030230
:103DA0006767A9CE2B2B7D56FEFE19E7D7D762B5E4
:103DB000ABABE64D76769AECCACA458F82829D1FE0
:103DC000C9C940897D7D87FAFAFA15EF5959EBB2D6
:103DD0004747C98EF0F00BFBADADEC41D4D467B3CF
:103DE000A2A2FD5FAFAFEA459C9CBF23A4A4F753FA
:103DF000727296E4C0C05B9BB7B7C275FDFD1CE153
:103E00009393AE3D26266A4C36365A6C3F3F417E30
:103E1000F7F702F5CCCC4F8334345C68A5A5F45198
:103E2000E5E534D1F1F108F9717193E2D8D873ABBB
:103E30003131536215153F2A04040C08C7C7529547
:103E400023236546C3C35E9D181828309696A13774
:103E500005050F0A9A9AB52F0707090E1212362484
:103E600080809B1BE2E23DDFEBEB26CD2727694EEE
:103E7000B2B2CD7F75759FEA09091B1283839E1D1F
:103E80002C2C74581A1A2E341B1B2D366E6EB2DC75
:103E90005A5AEEB4A0A0FB5B5252F6A43B3B4D76BF
:103EA000D6D661B7B3B3CE7D29297B52E3E33EDD9D
:103EB0002F2F715E848497135353F5A6D1D168B91F
:103EC00000000000EDED2CC120206040FCFC1FE351
:103ED000B1B1C8795B5BEDB66A6ABED4CBCB468D17
:103EE000BEBED96739394B724A4ADE944C4CD498DD
:103EF0005858E8B0CFCF4A85D0D06BBBEFEF2AC57A
:103F0000AAAAE54FFBFB16ED4343C5864D4DD79A54
:103F100033335566858594114545CF8AF9F910E903
:103F2000020206047F7F81FE5050F0A03C3C4478A2
:103F30009F9FBA25A8A8E34B5151F3A2A3A3FE5D0E
:103F40004040C0808F8F8A059292AD3F9D9DBC21DD
:103F500038384870F5F504F1BCBCDF63B6B6C177FC
:103F6000DADA75AF2121634210103020FFFF1AE525
:103F7000F3F30EFDD2D26DBFCDCD4C810C0C1418D5
:103F800013133526ECEC2FC35F5FE1BE9797A23584
:103F90004444CC881717392EC4C45793A7A7F255A9
:103FA0007E7E82FC3D3D477A6464ACC85D5DE7BAC5
:103FB00019192B32737395E66060A0C0818198193E
:103FC0004F4FD19EDCDC7FA3222266442A2A7E54F6
:103FD0009090AB3B8888830B4646CA8CEEEE29C78F
:103FE000B8B8D36B14143C28DEDE79A75E5EE2BC61
:103FF0000B0B1D16DBDB76ADE0E03BDB32325664AB
:104000003A3A4E740A0A1E144949DB9206060A0C13
:1040100024246C485C5CE4B8C2C25D9FD3D36EBDFF
:10402000ACACEF436262A6C49191A8399595A431D6
:10403000E4E437D379798BF2E7E732D5C8C8438B0C
:104040003737596E6D6DB7DA8D8D8C01D5D564B16A
:104050004E4ED29CA9A9E0496C6CB4D85656FAAC25
:10406000F4F407F3EAEA25CF6565AFCA7A7A8EF4ED
:10407000AEAEE94708081810BABAD56F787888F05C
:1040800025256F4A2E2E725C1C1C2438A6A6F157DB
:10409000B4B4C773C6C65197E8E823CBDDDD7CA175
:1040A00074749CE81F1F213E4B4BDD96BDBDDC6147
:1040B0008B8B860D8A8A850F707090E03E3E427C25
:1040C000B5B5C4716666AACC4848D8900303050606
:1040D000F6F601F70E0E121C6161A3C235355F6A58
:1040E0005757F9AEB9B9D06986869117C1C15899A9
:1040F0001D1D273A9E9EB927E1E138D9F8F813EB48
:104100009898B32B111133226969BBD2D9D970A900
:104110008E8E89079494A7339B9BB62D1E1E223C3E
:1041200087879215E9E920C9CECE49875555FFAA60
:1041300028287850DFDF7AA58C8C8F03A1A1F8594D
:10414000898980090D0D171ABFBFDA65E6E631D7F8
:104150004242C6846868B8D04141C3829999B02967
:104160002D2D775A0F0F111EB0B0CB7B5454FCA8E5
:10417000BBBBD66D16163A2C52096AD53036A53817
:10418000BF40A39E81F3D7FB7CE339829B2FFF873F
:10419000348E4344C4DEE9CB547B9432A6C2233D23
:1041A000EE4C950B42FAC34E082EA16628D924B2D4
:1041B000765BA2496D8BD12572F8F66486689816F5
:1041C000D4A45CCC5D65B6926C704850FDEDB9DA54
:1041D0005E154657A78D9D8490D8AB008CBCD30A42
:1041E000F7E45805B8B34506D02C1E8FCA3F0F021E
:1041F000C1AFBD0301138A6B3A9111414F67DCEAED
:1042000097F2CFCEF0B4E67396AC7422E7AD358565
:10421000E2F937E81C75DF6E47F11A711D29C5896F
:104220006FB7620EAA18BE1BFC563E4BC6D2792051
:104230009ADBC0FE78CD5AF41FDDA8338807C7315A
:10424000B11210592780EC5F60517FA919B54A0D52
:104250002DE57A9F93C99CEFA0E03B4DAE2AF5B0C7
:10426000C8EBBB3C83539961172B047EBA77D626E3
:10427000E169146355210C7D51F4A7507E416553CB
:104280001A17A4C33A275E963BAB6BCB1F9D45F133
:10429000ACFA58AB4BE303932030FA55AD766DF68C
:1042A00088CC7691F5024C254FE5D7FCC52ACBD7B3
:1042B00026354480B562A38FDEB15A4925BA1B6703
:1042C00045EA0E985DFEC0E1C32F7502814CF012E5
:1042D0008D4697A36BD3F9C6038F5FE715929C9524
:1042E000BF6D7AEB955259DAD4BE832D587421D321
:1042F00049E069298EC9C84475C2896AF48E797803
:1043000099583E6B27B971DDBEE14FB6F088AD1705
:10431000C920AC667DCE3AB463DF4A18E51A318213
:104320009751336062537F45B16477E0BB6BAE84D5
:10433000FE81A01CF9082B94704868588F45FD1920
:1043400094DE6C87527BF8B7AB73D323724B02E2D7
:10435000E31F8F576655AB2AB2EB28072FB5C20370
:1043600086C57B9AD33708A5302887F223BFA5B22C
:1043700002036ABAED16825C8ACF1C2BA779B4922D
:10438000F307F2F04E69E2A165DAF4CD0605BED579
:10439000D134621FC4A6FE8A342E539DA2F355A0C9
:1043A000058AE132A4F6EB750B83EC394060EFAA85
:1043B0005E719F06BD6E10513E218AF996DD063D65
:1043C000DD3E05AE4DE6BD4691548DB571C45D052B
:1043D0000406D46F605015FF1998FB24D6BDE997E9
:1043E000894043CC67D99E77B0E842BD07898B8866
:1043F000E7195B3879C8EEDBA17C0A477C420FE9FC
:10440000F8841EC90000000009808683322BED4825
:104410001E1170AC6C5A724EFD0EFFFB0F853856A4
:104420003DAED51E362D39270A0FD964685CA6210A
:104430009B5B54D124362E3A0C0A67B19357E70F91
:10444000B4EE96D21B9B919E80C0C54F61DC20A22A
:104450005A774B691C121A16E293BA0AC0A02AE5D1
:104460003C22E043121B171D0E090D0BF28BC7AD4A
:104470002DB6A8B9141EA9C857F11985AF75074CF8
:10448000EE99DDBBA37F60FDF701269F5C72F5BC52
:1044900044663BC55BFB7E348B432976CB23C6DC6D
:1044A000B6EDFC68B8E4F163D731DCCA426385102D
:1044B0001397224084C61120854A247DD2BB3DF843
:1044C000AEF93211C729A16D1D9E2F4BDCB230F31E
:1044D0000D8652EC77C1E3D02BB3166CA970B99955
:1044E000119448FA47E96422A8FC8CC4A0F03F1A52
:1044F000567D2CD8223390EF87494EC7D938D1C189
:104500008CCAA2FE98D40B36A6F581CFA57ADE28F8
:10451000DAB78E263FADBFA42C3A9DE45078920DB9
:104520006A5FCC9B547E4662F68D13C290D8B8E881
:104530002E39F75E82C3AFF59F5D80BE69D0937C54
:104540006FD52DA9CF2512B3C8AC993B10187DA704
:10455000E89C636EDB3BBB7BCD2678096E5918F473
:10456000EC9AB701834F9AA8E6956E65AAFFE67E9E
:1045700021BCCF08EF15E8E6BAE79BD94A6F36CEE3
:10458000EA9F09D429B07CD631A4B2AF2A3F2331A7
:10459000C6A5943035A266C0744EBC37FC82CAA64C
:1045A000E090D0B033A7D815F104984A41ECDAF77F
:1045B0007FCD500E1791F62F764DD68D43EFB04D2F
:1045C000CCAA4D54E49604DF9ED1B5E34C6A881B17
:1045D000C12C1FB84665517F9D5EEA04018C355D94
:1045E000FA877473FB0B412EB3671D5A92DBD252CC
:1045F000E91056336DD647139AD7618C37A10C7AE0
:1046000059F8148EEB133C89CEA927EEB761C93552
:10461000E11CE5ED7A47B13C9CD2DF5955F2733F7E
:104620001814CE7973C737BF53F7CDEA5FFDAA5B85
:10463000DF3D6F147844DB86CAAFF381B968C43EAE
:104640003824342CC2A3405F161DC372BCE2250C73
:10465000283C498BFF0D954139A80171080CB3DE48
:10466000D8B4E49C6456C1907BCB8461D532B670DB
:10467000486C5C74D0B857425051F4A7537E4165E2
:10468000C31A17A4963A275ECB3BAB6BF11F9D452F
:10469000ABACFA58934BE303552030FAF6AD766D88
:1046A0009188CC7625F5024CFC4FE5D7D7C52ACBAF
:1046B000802635448FB562A349DEB15A6725BA1BFF
:1046C0009845EA0EE15DFEC002C32F7512814CF0E1
:1046D000A38D4697C66BD3F9E7038F5F9515929C20
:1046E000EBBF6D7ADA9552592DD4BE83D35874211D
:1046F0002949E069448EC9C86A75C28978F48E79FF
:104700006B99583EDD27B971B6BEE14F17F088AD01
:1047100066C920ACB47DCE3A1863DF4A82E51A310F
:10472000609751334562537FE0B1647784BB6BAED1
:104730001CFE81A094F9082B58704868198F45FD1C
:104740008794DE6CB7527BF823AB73D3E2724B02D3
:1047500057E31F8F2A6655AB07B2EB28032FB5C26C
:104760009A86C57BA5D33708F2302887B223BFA528
:10477000BA02036A5CED16822B8ACF1C92A779B429
:10478000F0F307F2A14E69E2CD65DAF4D50605BE75
:104790001FD134628AC4A6FE9D342E53A0A2F355C5
:1047A00032058AE175A4F6EB390B83ECAA4060EF81
:1047B000065E719F51BD6E10F93E218A3D96DD0661
:1047C000AEDD3E05464DE6BDB591548D0571C45D27
:1047D0006F0406D4FF605015241998FB97D6BDE9E5
:1047E000CC8940437767D99EBDB0E8428807898B62
:1047F00038E7195BDB79C8EE47A17C0AE97C420FF8
:10480000C9F8841E000000008309808648322BED21
:10481000AC1E11704E6C5A72FBFD0EFF560F8538A0
:104820001E3DAED527362D39640A0FD921685CA606
:10483000D19B5B543A24362EB10C0A670F9357E78D
:10484000D2B4EE969E1B9B914F80C0C5A261DC2026
:10485000695A774B161C121A0AE293BAE5C0A02ACD
:10486000433C22E01D121B170B0E090DADF28BC746
:10487000B92DB6A8C8141EA98557F1194CAF7507F4
:10488000BBEE99DDFDA37F609FF70126BC5C72F54E
:10489000C544663B345BFB7E768B4329DCCB23C669
:1048A00068B6EDFC63B8E4F1CAD731DC1042638529
:1048B000401397222084C6117D854A24F8D2BB3D3F
:1048C00011AEF9326DC729A14B1D9E2FF3DCB2301A
:1048D000EC0D8652D077C1E36C2BB31699A970B951
:1048E000FA1194482247E964C4A8FC8C1AA0F03F4E
:1048F000D8567D2CEF223390C787494EC1D938D185
:10490000FE8CCAA23698D40BCFA6F58128A57ADEF4
:1049100026DAB78EA43FADBFE42C3A9D0D507892B5
:104920009B6A5FCC62547E46C2F68D13E890D8B87D
:104930005E2E39F7F582C3AFBE9F5D807C69D09350
:10494000A96FD52DB3CF25123BC8AC99A710187D00
:104950006EE89C637BDB3BBB09CD2678F46E59186F
:1049600001EC9AB7A8834F9A65E6956E7EAAFFE69A
:104970000821BCCFE6EF15E8D9BAE79BCE4A6F36DF
:10498000D4EA9F09D629B07CAF31A4B2312A3F23A3
:1049900030C6A594C035A26637744EBCA6FC82CA48
:1049A000B0E090D01533A7D84AF10498F741ECDA7B
:1049B0000E7FCD502F1791F68D764DD64D43EFB02B
:1049C00054CCAA4DDFE49604E39ED1B51B4C6A8813
:1049D000B8C12C1F7F466551049D5EEA5D018C3590
:1049E00073FA87742EFB0B415AB3671D5292DBD2C8
:1049F00033E91056136DD6478C9AD7617A37A10CDC
:104A00008E59F81489EB133CEECEA92735B761C94E
:104A1000EDE11CE53C7A47B1599CD2DF3F55F2737A
:104A2000791814CEBF73C737EA53F7CD5B5FFDAA81
:104A300014DF3D6F867844DB81CAAFF33EB968C4AA
:104A40002C3824345FC2A34072161DC30CBCE2256F
:104A50008B283C4941FF0D957139A801DE080CB344
:104A60009CD8B4E4906456C1617BCB8470D532B6D7
:104A700074486C5C42D0B857A75051F465537E41DE
:104A8000A4C31A175E963A276BCB3BAB45F11F9D2B
:104A900058ABACFA03934BE3FA5520306DF6AD7684
:104AA000769188CC4C25F502D7FC4FE5CBD7C52AAB
:104AB00044802635A38FB5625A49DEB11B6725BAFB
:104AC0000E9845EAC0E15DFE7502C32FF012814CDD
:104AD00097A38D46F9C66BD35FE7038F9C9515921C
:104AE0007AEBBF6D59DA9552832DD4BE21D3587419
:104AF000692949E0C8448EC9896A75C27978F48EFB
:104B00003E6B995871DD27B94FB6BEE1AD17F088FD
:104B1000AC66C9203AB47DCE4A1863DF3182E51A0B
:104B2000336097517F45625377E0B164AE84BB6BCD
:104B3000A01CFE812B94F90868587048FD198F4518
:104B40006C8794DEF8B7527BD323AB7302E2724BCF
:104B50008F57E31FAB2A66552807B2EBC2032FB568
:104B60007B9A86C508A5D33787F23028A5B223BF24
:104B70006ABA0203825CED161C2B8ACFB492A77925
:104B8000F2F0F307E2A14E69F4CD65DABED5060571
:104B9000621FD134FE8AC4A6539D342E55A0A2F3C1
:104BA000E132058AEB75A4F6EC390B83EFAA40607D
:104BB0009F065E711051BD6E8AF93E21063D96DD5D
:104BC00005AEDD3EBD464DE68DB591545D0571C423
:104BD000D46F040615FF6050FB241998E997D6BDE1
:104BE00043CC89409E7767D942BDB0E88B8807895E
:104BF0005B38E719EEDB79C80A47A17C0FE97C42F4
:104C00001EC9F8840000000086830980ED48322B1D
:104C100070AC1E11724E6C5AFFFBFD0E38560F859C
:104C2000D51E3DAE3927362DD9640A0FA621685C02
:104C300054D19B5B2E3A243667B10C0AE70F935789
:104C400096D2B4EE919E1B9BC54F80C020A261DC22
:104C50004B695A771A161C12BA0AE2932AE5C0A0C9
:104C6000E0433C22171D121B0D0B0E09C7ADF28B42
:104C7000A8B92DB6A9C8141E198557F1074CAF75F0
:104C8000DDBBEE9960FDA37F269FF701F5BC5C724A
:104C90003BC544667E345BFB29768B43C6DCCB2365
:104CA000FC68B6EDF163B8E4DCCAD7318510426325
:104CB00022401397112084C6247D854A3DF8D2BB3B
:104CC0003211AEF9A16DC7292F4B1D9E30F3DCB216
:104CD00052EC0D86E3D077C1166C2BB3B999A9704D
:104CE00048FA1194642247E98CC4A8FC3F1AA0F04A
:104CF0002CD8567D90EF22334EC78749D1C1D93881
:104D0000A2FE8CCA0B3698D481CFA6F5DE28A57AF0
:104D10008E26DAB7BFA43FAD9DE42C3A920D5078B1
:104D2000CC9B6A5F4662547E13C2F68DB8E890D879
:104D3000F75E2E39AFF582C380BE9F5D937C69D04C
:104D40002DA96FD512B3CF25993BC8AC7DA71018FC
:104D5000636EE89CBB7BDB3B7809CD2618F46E596B
:104D6000B701EC9A9AA8834F6E65E695E67EAAFF96
:104D7000CF0821BCE8E6EF159BD9BAE736CE4A6FDB
:104D800009D4EA9F7CD629B0B2AF31A423312A3F9F
:104D90009430C6A566C035A2BC37744ECAA6FC8244
:104DA000D0B0E090D81533A7984AF104DAF741EC77
:104DB000500E7FCDF62F1791D68D764DB04D43EF27
:104DC0004D54CCAA04DFE496B5E39ED1881B4C6A0F
:104DD0001FB8C12C517F4665EA049D5E355D018C8C
:104DE0007473FA87412EFB0B1D5AB367D25292DBC4
:104DF0005633E91047136DD6618C9AD70C7A37A1D8
:104E0000148E59F83C89EB1327EECEA9C935B7614A
:104E1000E5EDE11CB13C7A47DF599CD2733F55F276
:104E2000CE79181437BF73C7CDEA53F7AA5B5FFD7D
:104E30006F14DF3DDB867844F381CAAFC43EB968A6
:104E4000342C3824405FC2A3C372161D250CBCE26B
:104E5000498B283C9541FF0D017139A8B3DE080C40
:104E6000E49CD8B4C190645684617BCBB670D532D3
:104E70005C74486C5742D0B8F4A750514165537EDA
:104E800017A4C31A275E963AAB6BCB3B9D45F11F27
:104E9000FA58ABACE303934B30FA5520766DF6AD80
:104EA000CC769188024C25F5E5D7FC4F2ACBD7C5A7
:104EB0003544802662A38FB5B15A49DEBA1B6725F7
:104EC000EA0E9845FEC0E15D2F7502C34CF01281D9
:104ED0004697A38DD3F9C66B8F5FE703929C951518
:104EE0006D7AEBBF5259DA95BE832DD47421D35815
:104EF000E0692949C9C8448EC2896A758E7978F4F7
:104F0000583E6B99B971DD27E14FB6BE88AD17F0F9
:104F100020AC66C9CE3AB47DDF4A18631A3182E507
:104F200051336097537F45626477E0B16BAE84BBC9
:104F300081A01CFE082B94F94868587045FD198F14
:104F4000DE6C87947BF8B75273D323AB4B02E272CB
:104F50001F8F57E355AB2A66EB2807B2B5C2032F64
:104F6000C57B9A863708A5D32887F230BFA5B22320
:104F7000036ABA0216825CEDCF1C2B8A79B492A721
:104F800007F2F0F369E2A14EDAF4CD6505BED5066D
:104F900034621FD1A6FE8AC42E539D34F355A0A2BD
:104FA0008AE13205F6EB75A483EC390B60EFAA4079
:104FB000719F065E6E1051BD218AF93EDD063D9659
:104FC0003E05AEDDE6BD464D548DB591C45D05711F
:104FD00006D46F045015FF6098FB2419BDE997D6DD
:104FE0004043CC89D99E7767E842BDB0898B88075A
:104FF000195B38E7C8EEDB797C0A47A1420FE97CF0
:10500000841EC9F800000000808683092BED483219
:105010001170AC1E5A724E6C0EFFFBFD8538560F98
:10502000AED51E3D2D3927360FD9640A5CA62168FE
:105030005B54D19B362E3A240A67B10C57E70F9385
:10504000EE96D2B49B919E1BC0C54F80DC20A2611E
:10505000774B695A121A161C93BA0AE2A02AE5C0C5
:1050600022E0433C1B171D12090D0B0E8BC7ADF23E
:10507000B6A8B92D1EA9C814F119855775074CAFEC
:1050800099DDBBEE7F60FDA301269FF772F5BC5C46
:10509000663BC544FB7E345B4329768B23C6DCCB61
:1050A000EDFC68B6E4F163B831DCCAD76385104221
:1050B00097224013C61120844A247D85BB3DF8D237
:1050C000F93211AE29A16DC79E2F4B1DB230F3DC12
:1050D0008652EC0DC1E3D077B3166C2B70B999A949
:1050E0009448FA11E9642247FC8CC4A8F03F1AA046
:1050F0007D2CD8563390EF22494EC78738D1C1D97D
:10510000CAA2FE8CD40B3698F581CFA67ADE28A5EC
:10511000B78E26DAADBFA43F3A9DE42C78920D50AD
:105120005FCC9B6A7E4662548D13C2F6D8B8E89075
:1051300039F75E2EC3AFF5825D80BE9FD0937C6948
:10514000D52DA96F2512B3CFAC993BC8187DA710F8
:105150009C636EE83BBB7BDB267809CD5918F46E67
:105160009AB701EC4F9AA883956E65E6FFE67EAA92
:10517000BCCF082115E8E6EFE79BD9BA6F36CE4AD7
:105180009F09D4EAB07CD629A4B2AF313F23312A9B
:10519000A59430C6A266C0354EBC377482CAA6FC40
:1051A00090D0B0E0A7D8153304984AF1ECDAF74173
:1051B000CD500E7F91F62F174DD68D76EFB04D4323
:1051C000AA4D54CC9604DFE4D1B5E39E6A881B4C0B
:1051D0002C1FB8C165517F465EEA049D8C355D0188
:1051E000877473FA0B412EFB671D5AB3DBD25292C0
:1051F000105633E9D647136DD7618C9AA10C7A37D4
:10520000F8148E59133C89EBA927EECE61C935B746
:105210001CE5EDE147B13C7AD2DF599CF2733F5572
:1052200014CE7918C737BF73F7CDEA53FDAA5B5F79
:105230003D6F14DF44DB8678AFF381CA68C43EB9A2
:1052400024342C38A3405FC21DC37216E2250CBC67
:105250003C498B280D9541FFA80171390CB3DE083C
:10526000B4E49CD856C19064CB84617B32B670D5CF
:105270006C5C7448B85742D0010000000200000086
:1052800004000000080000001000000020000000E2
:1052900040000000800000001B00000036000000FD
:1052A000020000008B100008BF100008BB100008AF
:1052B0008F100008A9100008020100008000000003
:1052C0002C53000800000000000000001000000047
:1052D000A052000803010000C0000000385300087D
:1052E000000000000000000010000000A0520008B4
:1052F0000401000000010000445300080000000009
:105300000000000010000000A05200080200000091
:10531000B852000803000000D45200080400000046
:10532000F052000800000000000000004145532D2D
:105330003132382D454342004145532D3139322D0C
:10534000454342004145532D3235362D45434200F9
:10535000705300080000002064000000160C0008D4
:10536000D453000864000020AC7C0000260C000828
:10537000000000000000000000000000000000002D
:10538000000000000000000000000000000000001D
:10539000000000000000000000000000000000000D
:1053A00000000000000000000000000000000000FD
:1053B00002040608000000000102030401020304C5
:1053C000060708092B2E00082F2E0008312E000892
:0453D00021020008AE
:0400000508000131BD
:00000001FF
